{
  "_format": "hh-sol-artifact-1",
  "contractName": "StudentBadge",
  "sourceName": "src/nft/StudentBadge.sol",
  "abi": [
    {
      "inputs": [],
      "stateMutability": "nonpayable",
      "type": "constructor"
    },
    {
      "inputs": [
        {
          "internalType": "address",
          "name": "sender",
          "type": "address"
        },
        {
          "internalType": "uint256",
          "name": "tokenId",
          "type": "uint256"
        },
        {
          "internalType": "address",
          "name": "owner",
          "type": "address"
        }
      ],
      "name": "ERC721IncorrectOwner",
      "type": "error"
    },
    {
      "inputs": [
        {
          "internalType": "address",
          "name": "operator",
          "type": "address"
        },
        {
          "internalType": "uint256",
          "name": "tokenId",
          "type": "uint256"
        }
      ],
      "name": "ERC721InsufficientApproval",
      "type": "error"
    },
    {
      "inputs": [
        {
          "internalType": "address",
          "name": "approver",
          "type": "address"
        }
      ],
      "name": "ERC721InvalidApprover",
      "type": "error"
    },
    {
      "inputs": [
        {
          "internalType": "address",
          "name": "operator",
          "type": "address"
        }
      ],
      "name": "ERC721InvalidOperator",
      "type": "error"
    },
    {
      "inputs": [
        {
          "internalType": "address",
          "name": "owner",
          "type": "address"
        }
      ],
      "name": "ERC721InvalidOwner",
      "type": "error"
    },
    {
      "inputs": [
        {
          "internalType": "address",
          "name": "receiver",
          "type": "address"
        }
      ],
      "name": "ERC721InvalidReceiver",
      "type": "error"
    },
    {
      "inputs": [
        {
          "internalType": "address",
          "name": "sender",
          "type": "address"
        }
      ],
      "name": "ERC721InvalidSender",
      "type": "error"
    },
    {
      "inputs": [
        {
          "internalType": "uint256",
          "name": "tokenId",
          "type": "uint256"
        }
      ],
      "name": "ERC721NonexistentToken",
      "type": "error"
    },
    {
      "inputs": [],
      "name": "StudentBadge__AlreadyMinted",
      "type": "error"
    },
    {
      "anonymous": false,
      "inputs": [
        {
          "indexed": true,
          "internalType": "address",
          "name": "owner",
          "type": "address"
        },
        {
          "indexed": true,
          "internalType": "address",
          "name": "approved",
          "type": "address"
        },
        {
          "indexed": true,
          "internalType": "uint256",
          "name": "tokenId",
          "type": "uint256"
        }
      ],
      "name": "Approval",
      "type": "event"
    },
    {
      "anonymous": false,
      "inputs": [
        {
          "indexed": true,
          "internalType": "address",
          "name": "owner",
          "type": "address"
        },
        {
          "indexed": true,
          "internalType": "address",
          "name": "operator",
          "type": "address"
        },
        {
          "indexed": false,
          "internalType": "bool",
          "name": "approved",
          "type": "bool"
        }
      ],
      "name": "ApprovalForAll",
      "type": "event"
    },
    {
      "anonymous": false,
      "inputs": [
        {
          "indexed": true,
          "internalType": "address",
          "name": "from",
          "type": "address"
        },
        {
          "indexed": true,
          "internalType": "address",
          "name": "to",
          "type": "address"
        },
        {
          "indexed": true,
          "internalType": "uint256",
          "name": "tokenId",
          "type": "uint256"
        }
      ],
      "name": "Transfer",
      "type": "event"
    },
    {
      "inputs": [
        {
          "internalType": "address",
          "name": "to",
          "type": "address"
        },
        {
          "internalType": "uint256",
          "name": "tokenId",
          "type": "uint256"
        }
      ],
      "name": "approve",
      "outputs": [],
      "stateMutability": "nonpayable",
      "type": "function"
    },
    {
      "inputs": [
        {
          "internalType": "address",
          "name": "owner",
          "type": "address"
        }
      ],
      "name": "balanceOf",
      "outputs": [
        {
          "internalType": "uint256",
          "name": "",
          "type": "uint256"
        }
      ],
      "stateMutability": "view",
      "type": "function"
    },
    {
      "inputs": [
        {
          "internalType": "uint256",
          "name": "tokenId",
          "type": "uint256"
        }
      ],
      "name": "getApproved",
      "outputs": [
        {
          "internalType": "address",
          "name": "",
          "type": "address"
        }
      ],
      "stateMutability": "view",
      "type": "function"
    },
    {
      "inputs": [
        {
          "internalType": "address",
          "name": "owner",
          "type": "address"
        },
        {
          "internalType": "address",
          "name": "operator",
          "type": "address"
        }
      ],
      "name": "isApprovedForAll",
      "outputs": [
        {
          "internalType": "bool",
          "name": "",
          "type": "bool"
        }
      ],
      "stateMutability": "view",
      "type": "function"
    },
    {
      "inputs": [],
      "name": "mint",
      "outputs": [],
      "stateMutability": "nonpayable",
      "type": "function"
    },
    {
      "inputs": [],
      "name": "name",
      "outputs": [
        {
          "internalType": "string",
          "name": "",
          "type": "string"
        }
      ],
      "stateMutability": "view",
      "type": "function"
    },
    {
      "inputs": [
        {
          "internalType": "uint256",
          "name": "tokenId",
          "type": "uint256"
        }
      ],
      "name": "ownerOf",
      "outputs": [
        {
          "internalType": "address",
          "name": "",
          "type": "address"
        }
      ],
      "stateMutability": "view",
      "type": "function"
    },
    {
      "inputs": [
        {
          "internalType": "address",
          "name": "from",
          "type": "address"
        },
        {
          "internalType": "address",
          "name": "to",
          "type": "address"
        },
        {
          "internalType": "uint256",
          "name": "tokenId",
          "type": "uint256"
        }
      ],
      "name": "safeTransferFrom",
      "outputs": [],
      "stateMutability": "nonpayable",
      "type": "function"
    },
    {
      "inputs": [
        {
          "internalType": "address",
          "name": "from",
          "type": "address"
        },
        {
          "internalType": "address",
          "name": "to",
          "type": "address"
        },
        {
          "internalType": "uint256",
          "name": "tokenId",
          "type": "uint256"
        },
        {
          "internalType": "bytes",
          "name": "data",
          "type": "bytes"
        }
      ],
      "name": "safeTransferFrom",
      "outputs": [],
      "stateMutability": "nonpayable",
      "type": "function"
    },
    {
      "inputs": [
        {
          "internalType": "address",
          "name": "operator",
          "type": "address"
        },
        {
          "internalType": "bool",
          "name": "approved",
          "type": "bool"
        }
      ],
      "name": "setApprovalForAll",
      "outputs": [],
      "stateMutability": "nonpayable",
      "type": "function"
    },
    {
      "inputs": [
        {
          "internalType": "bytes4",
          "name": "interfaceId",
          "type": "bytes4"
        }
      ],
      "name": "supportsInterface",
      "outputs": [
        {
          "internalType": "bool",
          "name": "",
          "type": "bool"
        }
      ],
      "stateMutability": "view",
      "type": "function"
    },
    {
      "inputs": [],
      "name": "symbol",
      "outputs": [
        {
          "internalType": "string",
          "name": "",
          "type": "string"
        }
      ],
      "stateMutability": "view",
      "type": "function"
    },
    {
      "inputs": [
        {
          "internalType": "uint256",
          "name": "tokenId",
          "type": "uint256"
        }
      ],
      "name": "tokenURI",
      "outputs": [
        {
          "internalType": "string",
          "name": "",
          "type": "string"
        }
      ],
      "stateMutability": "view",
      "type": "function"
    },
    {
      "inputs": [
        {
          "internalType": "address",
          "name": "from",
          "type": "address"
        },
        {
          "internalType": "address",
          "name": "to",
          "type": "address"
        },
        {
          "internalType": "uint256",
          "name": "tokenId",
          "type": "uint256"
        }
      ],
      "name": "transferFrom",
      "outputs": [],
      "stateMutability": "nonpayable",
      "type": "function"
    }
  ],
  "bytecode": "0x608060405234801562000010575f80fd5b506040518060400160405280600c81526020017f53747564656e74426164676500000000000000000000000000000000000000008152506040518060400160405280600381526020017f5354420000000000000000000000000000000000000000000000000000000000815250815f90816200008d91906200032b565b5080600190816200009f91906200032b565b505050620000be67914a1189ae33bb1c60c01b620000c460201b60201c565b6200040f565b50565b5f81519050919050565b7f4e487b71000000000000000000000000000000000000000000000000000000005f52604160045260245ffd5b7f4e487b71000000000000000000000000000000000000000000000000000000005f52602260045260245ffd5b5f60028204905060018216806200014357607f821691505b602082108103620001595762000158620000fe565b5b50919050565b5f819050815f5260205f209050919050565b5f6020601f8301049050919050565b5f82821b905092915050565b5f60088302620001bd7fffffffffffffffffffffffffffffffffffffffffffffffffffffffffffffffff8262000180565b620001c9868362000180565b95508019841693508086168417925050509392505050565b5f819050919050565b5f819050919050565b5f620002136200020d6200020784620001e1565b620001ea565b620001e1565b9050919050565b5f819050919050565b6200022e83620001f3565b620002466200023d826200021a565b8484546200018c565b825550505050565b5f90565b6200025c6200024e565b6200026981848462000223565b505050565b5b818110156200029057620002845f8262000252565b6001810190506200026f565b5050565b601f821115620002df57620002a9816200015f565b620002b48462000171565b81016020851015620002c4578190505b620002dc620002d38562000171565b8301826200026e565b50505b505050565b5f82821c905092915050565b5f620003015f1984600802620002e4565b1980831691505092915050565b5f6200031b8383620002f0565b9150826002028217905092915050565b6200033682620000c7565b67ffffffffffffffff811115620003525762000351620000d1565b5b6200035e82546200012b565b6200036b82828562000294565b5f60209050601f831160018114620003a1575f84156200038c578287015190505b6200039885826200030e565b86555062000407565b601f198416620003b1866200015f565b5f5b82811015620003da57848901518255600182019150602085019450602081019050620003b3565b86831015620003fa5784890151620003f6601f891682620002f0565b8355505b6001600288020188555050505b505050505050565b611fe3806200041d5f395ff3fe608060405234801561000f575f80fd5b50600436106100e8575f3560e01c80636352211e1161008a578063a22cb46511610064578063a22cb46514610246578063b88d4fde14610262578063c87b56dd1461027e578063e985e9c5146102ae576100e8565b80636352211e146101c857806370a08231146101f857806395d89b4114610228576100e8565b8063095ea7b3116100c6578063095ea7b31461016a5780631249c58b1461018657806323b872dd1461019057806342842e0e146101ac576100e8565b806301ffc9a7146100ec57806306fdde031461011c578063081812fc1461013a575b5f80fd5b61010660048036038101906101019190611800565b6102de565b6040516101139190611845565b60405180910390f35b6101246103bf565b60405161013191906118e8565b60405180910390f35b610154600480360381019061014f919061193b565b61044e565b60405161016191906119a5565b60405180910390f35b610184600480360381019061017f91906119e8565b610469565b005b61018e61047f565b005b6101aa60048036038101906101a59190611a26565b610643565b005b6101c660048036038101906101c19190611a26565b610742565b005b6101e260048036038101906101dd919061193b565b610761565b6040516101ef91906119a5565b60405180910390f35b610212600480360381019061020d9190611a76565b610772565b60405161021f9190611ab0565b60405180910390f35b610230610828565b60405161023d91906118e8565b60405180910390f35b610260600480360381019061025b9190611af3565b6108b8565b005b61027c60048036038101906102779190611c5d565b6108ce565b005b6102986004803603810190610293919061193b565b6108f3565b6040516102a591906118e8565b60405180910390f35b6102c860048036038101906102c39190611cdd565b610959565b6040516102d59190611845565b60405180910390f35b5f7f80ac58cd000000000000000000000000000000000000000000000000000000007bffffffffffffffffffffffffffffffffffffffffffffffffffffffff1916827bffffffffffffffffffffffffffffffffffffffffffffffffffffffff191614806103a857507f5b5e139f000000000000000000000000000000000000000000000000000000007bffffffffffffffffffffffffffffffffffffffffffffffffffffffff1916827bffffffffffffffffffffffffffffffffffffffffffffffffffffffff1916145b806103b857506103b7826109e7565b5b9050919050565b60605f80546103cd90611d48565b80601f01602080910402602001604051908101604052809291908181526020018280546103f990611d48565b80156104445780601f1061041b57610100808354040283529160200191610444565b820191905f5260205f20905b81548152906001019060200180831161042757829003601f168201915b5050505050905090565b5f61045882610a50565b5061046282610ad6565b9050919050565b61047b8282610476610b0f565b610b16565b5050565b61049367271c540e8d5c30df60c01b610b28565b6104a767c09f1f9e3d0d6e8360c01b610b28565b6104bb67b9f396dbf3c91c9c60c01b610b28565b60075f3373ffffffffffffffffffffffffffffffffffffffff1673ffffffffffffffffffffffffffffffffffffffff1681526020019081526020015f205f9054906101000a900460ff16156105505761051e67c782a02c7f8ed5df60c01b610b28565b6040517f6de4a5af00000000000000000000000000000000000000000000000000000000815260040160405180910390fd5b61056467e0780b55ce51635460c01b610b28565b610578672021625f640f2e8060c01b610b28565b600160075f3373ffffffffffffffffffffffffffffffffffffffff1673ffffffffffffffffffffffffffffffffffffffff1681526020019081526020015f205f6101000a81548160ff0219169083151502179055506105e167322e9171b7e3d85960c01b610b28565b6105f5674a5c5d8cf31ca18360c01b610b28565b5f60065f81548092919061060890611da5565b919050559050610622671035ea8cf644122860c01b610b28565b61063667755e1b491c7e4ed160c01b610b28565b6106403382610b2b565b50565b5f73ffffffffffffffffffffffffffffffffffffffff168273ffffffffffffffffffffffffffffffffffffffff16036106b3575f6040517f64a0ae920000000000000000000000000000000000000000000000000000000081526004016106aa91906119a5565b60405180910390fd5b5f6106c683836106c1610b0f565b610b48565b90508373ffffffffffffffffffffffffffffffffffffffff168173ffffffffffffffffffffffffffffffffffffffff161461073c578382826040517f64283d7b00000000000000000000000000000000000000000000000000000000815260040161073393929190611dec565b60405180910390fd5b50505050565b61075c83838360405180602001604052805f8152506108ce565b505050565b5f61076b82610a50565b9050919050565b5f8073ffffffffffffffffffffffffffffffffffffffff168273ffffffffffffffffffffffffffffffffffffffff16036107e3575f6040517f89c62b640000000000000000000000000000000000000000000000000000000081526004016107da91906119a5565b60405180910390fd5b60035f8373ffffffffffffffffffffffffffffffffffffffff1673ffffffffffffffffffffffffffffffffffffffff1681526020019081526020015f20549050919050565b60606001805461083790611d48565b80601f016020809104026020016040519081016040528092919081815260200182805461086390611d48565b80156108ae5780601f10610885576101008083540402835291602001916108ae565b820191905f5260205f20905b81548152906001019060200180831161089157829003601f168201915b5050505050905090565b6108ca6108c3610b0f565b8383610d53565b5050565b6108d9848484610643565b6108ed6108e4610b0f565b85858585610f2c565b50505050565b60606108fe82610a50565b505f6109086110d8565b90505f8151116109265760405180602001604052805f815250610951565b80610930846110ee565b604051602001610941929190611e5b565b6040516020818303038152906040525b915050919050565b5f60055f8473ffffffffffffffffffffffffffffffffffffffff1673ffffffffffffffffffffffffffffffffffffffff1681526020019081526020015f205f8373ffffffffffffffffffffffffffffffffffffffff1673ffffffffffffffffffffffffffffffffffffffff1681526020019081526020015f205f9054906101000a900460ff16905092915050565b5f7f01ffc9a7000000000000000000000000000000000000000000000000000000007bffffffffffffffffffffffffffffffffffffffffffffffffffffffff1916827bffffffffffffffffffffffffffffffffffffffffffffffffffffffff1916149050919050565b5f80610a5b836111b8565b90505f73ffffffffffffffffffffffffffffffffffffffff168173ffffffffffffffffffffffffffffffffffffffff1603610acd57826040517f7e273289000000000000000000000000000000000000000000000000000000008152600401610ac49190611ab0565b60405180910390fd5b80915050919050565b5f60045f8381526020019081526020015f205f9054906101000a900473ffffffffffffffffffffffffffffffffffffffff169050919050565b5f33905090565b610b2383838360016111f1565b505050565b50565b610b44828260405180602001604052805f8152506113b0565b5050565b5f80610b53846111b8565b90505f73ffffffffffffffffffffffffffffffffffffffff168373ffffffffffffffffffffffffffffffffffffffff1614610b9457610b938184866113d3565b5b5f73ffffffffffffffffffffffffffffffffffffffff168173ffffffffffffffffffffffffffffffffffffffff1614610c1f57610bd35f855f806111f1565b600160035f8373ffffffffffffffffffffffffffffffffffffffff1673ffffffffffffffffffffffffffffffffffffffff1681526020019081526020015f205f82825403925050819055505b5f73ffffffffffffffffffffffffffffffffffffffff168573ffffffffffffffffffffffffffffffffffffffff1614610c9e57600160035f8773ffffffffffffffffffffffffffffffffffffffff1673ffffffffffffffffffffffffffffffffffffffff1681526020019081526020015f205f82825401925050819055505b8460025f8681526020019081526020015f205f6101000a81548173ffffffffffffffffffffffffffffffffffffffff021916908373ffffffffffffffffffffffffffffffffffffffff160217905550838573ffffffffffffffffffffffffffffffffffffffff168273ffffffffffffffffffffffffffffffffffffffff167fddf252ad1be2c89b69c2b068fc378daa952ba7f163c4a11628f55a4df523b3ef60405160405180910390a4809150509392505050565b5f73ffffffffffffffffffffffffffffffffffffffff168373ffffffffffffffffffffffffffffffffffffffff1603610dc3575f6040517fa9fbf51f000000000000000000000000000000000000000000000000000000008152600401610dba91906119a5565b60405180910390fd5b5f73ffffffffffffffffffffffffffffffffffffffff168273ffffffffffffffffffffffffffffffffffffffff1603610e3357816040517f5b08ba18000000000000000000000000000000000000000000000000000000008152600401610e2a91906119a5565b60405180910390fd5b8060055f8573ffffffffffffffffffffffffffffffffffffffff1673ffffffffffffffffffffffffffffffffffffffff1681526020019081526020015f205f8473ffffffffffffffffffffffffffffffffffffffff1673ffffffffffffffffffffffffffffffffffffffff1681526020019081526020015f205f6101000a81548160ff0219169083151502179055508173ffffffffffffffffffffffffffffffffffffffff168373ffffffffffffffffffffffffffffffffffffffff167f17307eab39ab6107e8899845ad3d59bd9653f200f220920489ca2b5937696c3183604051610f1f9190611845565b60405180910390a3505050565b5f8373ffffffffffffffffffffffffffffffffffffffff163b11156110d1578273ffffffffffffffffffffffffffffffffffffffff1663150b7a02868685856040518563ffffffff1660e01b8152600401610f8a9493929190611ed0565b6020604051808303815f875af1925050508015610fc557506040513d601f19601f82011682018060405250810190610fc29190611f2e565b60015b611046573d805f8114610ff3576040519150601f19603f3d011682016040523d82523d5f602084013e610ff8565b606091505b505f81510361103e57836040517f64a0ae9200000000000000000000000000000000000000000000000000000000815260040161103591906119a5565b60405180910390fd5b805160208201fd5b63150b7a0260e01b7bffffffffffffffffffffffffffffffffffffffffffffffffffffffff1916817bffffffffffffffffffffffffffffffffffffffffffffffffffffffff1916146110cf57836040517f64a0ae920000000000000000000000000000000000000000000000000000000081526004016110c691906119a5565b60405180910390fd5b505b5050505050565b606060405180602001604052805f815250905090565b60605f60016110fc84611496565b0190505f8167ffffffffffffffff81111561111a57611119611b39565b5b6040519080825280601f01601f19166020018201604052801561114c5781602001600182028036833780820191505090505b5090505f82602083010190505b6001156111ad578080600190039150507f3031323334353637383961626364656600000000000000000000000000000000600a86061a8153600a85816111a2576111a1611f59565b5b0494505f8503611159575b819350505050919050565b5f60025f8381526020019081526020015f205f9054906101000a900473ffffffffffffffffffffffffffffffffffffffff169050919050565b808061122957505f73ffffffffffffffffffffffffffffffffffffffff168273ffffffffffffffffffffffffffffffffffffffff1614155b1561135b575f61123884610a50565b90505f73ffffffffffffffffffffffffffffffffffffffff168373ffffffffffffffffffffffffffffffffffffffff16141580156112a257508273ffffffffffffffffffffffffffffffffffffffff168173ffffffffffffffffffffffffffffffffffffffff1614155b80156112b557506112b38184610959565b155b156112f757826040517fa9fbf51f0000000000000000000000000000000000000000000000000000000081526004016112ee91906119a5565b60405180910390fd5b811561135957838573ffffffffffffffffffffffffffffffffffffffff168273ffffffffffffffffffffffffffffffffffffffff167f8c5be1e5ebec7d5bd14f71427d1e84f3dd0314c0f7b2291e5b200ac8c7c3b92560405160405180910390a45b505b8360045f8581526020019081526020015f205f6101000a81548173ffffffffffffffffffffffffffffffffffffffff021916908373ffffffffffffffffffffffffffffffffffffffff16021790555050505050565b6113ba83836115e7565b6113ce6113c5610b0f565b5f858585610f2c565b505050565b6113de8383836116da565b611491575f73ffffffffffffffffffffffffffffffffffffffff168373ffffffffffffffffffffffffffffffffffffffff160361145257806040517f7e2732890000000000000000000000000000000000000000000000000000000081526004016114499190611ab0565b60405180910390fd5b81816040517f177e802f000000000000000000000000000000000000000000000000000000008152600401611488929190611f86565b60405180910390fd5b505050565b5f805f90507a184f03e93ff9f4daa797ed6e38ed64bf6a1f01000000000000000083106114f2577a184f03e93ff9f4daa797ed6e38ed64bf6a1f01000000000000000083816114e8576114e7611f59565b5b0492506040810190505b6d04ee2d6d415b85acef8100000000831061152f576d04ee2d6d415b85acef8100000000838161152557611524611f59565b5b0492506020810190505b662386f26fc10000831061155e57662386f26fc10000838161155457611553611f59565b5b0492506010810190505b6305f5e1008310611587576305f5e100838161157d5761157c611f59565b5b0492506008810190505b61271083106115ac5761271083816115a2576115a1611f59565b5b0492506004810190505b606483106115cf57606483816115c5576115c4611f59565b5b0492506002810190505b600a83106115de576001810190505b80915050919050565b5f73ffffffffffffffffffffffffffffffffffffffff168273ffffffffffffffffffffffffffffffffffffffff1603611657575f6040517f64a0ae9200000000000000000000000000000000000000000000000000000000815260040161164e91906119a5565b60405180910390fd5b5f61166383835f610b48565b90505f73ffffffffffffffffffffffffffffffffffffffff168173ffffffffffffffffffffffffffffffffffffffff16146116d5575f6040517f73c6ac6e0000000000000000000000000000000000000000000000000000000081526004016116cc91906119a5565b60405180910390fd5b505050565b5f8073ffffffffffffffffffffffffffffffffffffffff168373ffffffffffffffffffffffffffffffffffffffff161415801561179157508273ffffffffffffffffffffffffffffffffffffffff168473ffffffffffffffffffffffffffffffffffffffff16148061175257506117518484610959565b5b8061179057508273ffffffffffffffffffffffffffffffffffffffff1661177883610ad6565b73ffffffffffffffffffffffffffffffffffffffff16145b5b90509392505050565b5f604051905090565b5f80fd5b5f80fd5b5f7fffffffff0000000000000000000000000000000000000000000000000000000082169050919050565b6117df816117ab565b81146117e9575f80fd5b50565b5f813590506117fa816117d6565b92915050565b5f60208284031215611815576118146117a3565b5b5f611822848285016117ec565b91505092915050565b5f8115159050919050565b61183f8161182b565b82525050565b5f6020820190506118585f830184611836565b92915050565b5f81519050919050565b5f82825260208201905092915050565b5f5b8381101561189557808201518184015260208101905061187a565b5f8484015250505050565b5f601f19601f8301169050919050565b5f6118ba8261185e565b6118c48185611868565b93506118d4818560208601611878565b6118dd816118a0565b840191505092915050565b5f6020820190508181035f83015261190081846118b0565b905092915050565b5f819050919050565b61191a81611908565b8114611924575f80fd5b50565b5f8135905061193581611911565b92915050565b5f602082840312156119505761194f6117a3565b5b5f61195d84828501611927565b91505092915050565b5f73ffffffffffffffffffffffffffffffffffffffff82169050919050565b5f61198f82611966565b9050919050565b61199f81611985565b82525050565b5f6020820190506119b85f830184611996565b92915050565b6119c781611985565b81146119d1575f80fd5b50565b5f813590506119e2816119be565b92915050565b5f80604083850312156119fe576119fd6117a3565b5b5f611a0b858286016119d4565b9250506020611a1c85828601611927565b9150509250929050565b5f805f60608486031215611a3d57611a3c6117a3565b5b5f611a4a868287016119d4565b9350506020611a5b868287016119d4565b9250506040611a6c86828701611927565b9150509250925092565b5f60208284031215611a8b57611a8a6117a3565b5b5f611a98848285016119d4565b91505092915050565b611aaa81611908565b82525050565b5f602082019050611ac35f830184611aa1565b92915050565b611ad28161182b565b8114611adc575f80fd5b50565b5f81359050611aed81611ac9565b92915050565b5f8060408385031215611b0957611b086117a3565b5b5f611b16858286016119d4565b9250506020611b2785828601611adf565b9150509250929050565b5f80fd5b5f80fd5b7f4e487b71000000000000000000000000000000000000000000000000000000005f52604160045260245ffd5b611b6f826118a0565b810181811067ffffffffffffffff82111715611b8e57611b8d611b39565b5b80604052505050565b5f611ba061179a565b9050611bac8282611b66565b919050565b5f67ffffffffffffffff821115611bcb57611bca611b39565b5b611bd4826118a0565b9050602081019050919050565b828183375f83830152505050565b5f611c01611bfc84611bb1565b611b97565b905082815260208101848484011115611c1d57611c1c611b35565b5b611c28848285611be1565b509392505050565b5f82601f830112611c4457611c43611b31565b5b8135611c54848260208601611bef565b91505092915050565b5f805f8060808587031215611c7557611c746117a3565b5b5f611c82878288016119d4565b9450506020611c93878288016119d4565b9350506040611ca487828801611927565b925050606085013567ffffffffffffffff811115611cc557611cc46117a7565b5b611cd187828801611c30565b91505092959194509250565b5f8060408385031215611cf357611cf26117a3565b5b5f611d00858286016119d4565b9250506020611d11858286016119d4565b9150509250929050565b7f4e487b71000000000000000000000000000000000000000000000000000000005f52602260045260245ffd5b5f6002820490506001821680611d5f57607f821691505b602082108103611d7257611d71611d1b565b5b50919050565b7f4e487b71000000000000000000000000000000000000000000000000000000005f52601160045260245ffd5b5f611daf82611908565b91507fffffffffffffffffffffffffffffffffffffffffffffffffffffffffffffffff8203611de157611de0611d78565b5b600182019050919050565b5f606082019050611dff5f830186611996565b611e0c6020830185611aa1565b611e196040830184611996565b949350505050565b5f81905092915050565b5f611e358261185e565b611e3f8185611e21565b9350611e4f818560208601611878565b80840191505092915050565b5f611e668285611e2b565b9150611e728284611e2b565b91508190509392505050565b5f81519050919050565b5f82825260208201905092915050565b5f611ea282611e7e565b611eac8185611e88565b9350611ebc818560208601611878565b611ec5816118a0565b840191505092915050565b5f608082019050611ee35f830187611996565b611ef06020830186611996565b611efd6040830185611aa1565b8181036060830152611f0f8184611e98565b905095945050505050565b5f81519050611f28816117d6565b92915050565b5f60208284031215611f4357611f426117a3565b5b5f611f5084828501611f1a565b91505092915050565b7f4e487b71000000000000000000000000000000000000000000000000000000005f52601260045260245ffd5b5f604082019050611f995f830185611996565b611fa66020830184611aa1565b939250505056fea2646970667358221220a557297a6c939bf64cbbde1a3408ca7faa449d71a02906511bee1a4fb4107b6764736f6c63430008180033",
  "linkReferences": {},
  "deployedLinkReferences": {}
}