{"src/staking/EduStaking.sol":{"EduStaking":{"abi":[{"inputs":[{"internalType":"address","name":"_badge","type":"address"},{"internalType":"address","name":"_token","type":"address"},{"internalType":"address","name":"_priceFeed","type":"address"}],"stateMutability":"nonpayable","type":"constructor"},{"inputs":[],"name":"EduStaking__InvalidPrice","type":"error"},{"inputs":[],"name":"EduStaking__NotOwnerOfNFT","type":"error"},{"inputs":[],"name":"EduStaking__StakingTimeNotMet","type":"error"},{"inputs":[],"name":"ReentrancyGuardReentrantCall","type":"error"},{"anonymous":false,"inputs":[{"indexed":true,"internalType":"address","name":"user","type":"address"},{"indexed":true,"internalType":"uint256","name":"tokenId","type":"uint256"}],"name":"Staked","type":"event"},{"anonymous":false,"inputs":[{"indexed":true,"internalType":"address","name":"user","type":"address"},{"indexed":true,"internalType":"uint256","name":"tokenId","type":"uint256"},{"indexed":false,"internalType":"uint256","name":"reward","type":"uint256"}],"name":"Unstaked","type":"event"},{"inputs":[],"name":"BASE_REWARD_RATE","outputs":[{"internalType":"uint256","name":"","type":"uint256"}],"stateMutability":"view","type":"function"},{"inputs":[],"name":"BONUS_MULTIPLIER","outputs":[{"internalType":"uint256","name":"","type":"uint256"}],"stateMutability":"view","type":"function"},{"inputs":[],"name":"EDU_TOKEN","outputs":[{"internalType":"contract IEduToken","name":"","type":"address"}],"stateMutability":"view","type":"function"},{"inputs":[],"name":"ETH_PRICE_THRESHOLD","outputs":[{"internalType":"int256","name":"","type":"int256"}],"stateMutability":"view","type":"function"},{"inputs":[],"name":"MIN_STAKING_TIME","outputs":[{"internalType":"uint256","name":"","type":"uint256"}],"stateMutability":"view","type":"function"},{"inputs":[],"name":"PRICE_FEED","outputs":[{"internalType":"contract IAggregatorV3","name":"","type":"address"}],"stateMutability":"view","type":"function"},{"inputs":[],"name":"STUDENT_BADGE","outputs":[{"internalType":"contract IERC721","name":"","type":"address"}],"stateMutability":"view","type":"function"},{"inputs":[{"internalType":"uint256","name":"tokenId","type":"uint256"}],"name":"calculateReward","outputs":[{"internalType":"uint256","name":"","type":"uint256"}],"stateMutability":"view","type":"function"},{"inputs":[{"internalType":"uint256","name":"tokenId","type":"uint256"}],"name":"stake","outputs":[],"stateMutability":"nonpayable","type":"function"},{"inputs":[{"internalType":"uint256","name":"","type":"uint256"}],"name":"stakes","outputs":[{"internalType":"address","name":"owner","type":"address"},{"internalType":"uint64","name":"timestamp","type":"uint64"}],"stateMutability":"view","type":"function"},{"inputs":[{"internalType":"uint256","name":"tokenId","type":"uint256"}],"name":"unstake","outputs":[],"stateMutability":"nonpayable","type":"function"}],"evm":{"bytecode":{"linkReferences":{},"object":"60e060405234801562000010575f80fd5b506040516200186e3803806200186e83398181016040528101906200003691906200020d565b6001620000586200004c6200017360201b60201c565b6200019c60201b60201c565b5f01819055506200007a67b69449e5463bb92260c01b620001a560201b60201c565b6200009667d86d02eea71e142460c01b620001a560201b60201c565b8273ffffffffffffffffffffffffffffffffffffffff1660808173ffffffffffffffffffffffffffffffffffffffff1681525050620000e667aa53f5073ccb547b60c01b620001a560201b60201c565b8173ffffffffffffffffffffffffffffffffffffffff1660a08173ffffffffffffffffffffffffffffffffffffffff168152505062000136679d017498892fe28060c01b620001a560201b60201c565b8073ffffffffffffffffffffffffffffffffffffffff1660c08173ffffffffffffffffffffffffffffffffffffffff168152505050505062000266565b5f7f9b779b17422d0df92223018b32b4d1fa46e071723d6817e2486d003becc55f005f1b905090565b5f819050919050565b50565b5f80fd5b5f73ffffffffffffffffffffffffffffffffffffffff82169050919050565b5f620001d782620001ac565b9050919050565b620001e981620001cb565b8114620001f4575f80fd5b50565b5f815190506200020781620001de565b92915050565b5f805f60608486031215620002275762000226620001a8565b5b5f6200023686828701620001f7565b93505060206200024986828701620001f7565b92505060406200025c86828701620001f7565b9150509250925092565b60805160a05160c0516115ba620002b45f395f818161076c0152610e6601525f818161059401526107b901525f818161065e01528181610795015281816108650152610a6801526115ba5ff3fe608060405234801561000f575f80fd5b50600436106100a7575f3560e01c80635df2dcbc1161006f5780635df2dcbc1461013f5780638aa285501461015d578063a694fc3a1461017b578063d2d7231f14610197578063d5a44f86146101c7578063ebfad492146101f8576100a7565b80630e40fe9f146100ab5780632e17de78146100c957806331eb318a146100e5578063343d597c146101035780635856deba14610121575b5f80fd5b6100b3610216565b6040516100c091906110fa565b60405180910390f35b6100e360048036038101906100de9190611141565b610221565b005b6100ed61076a565b6040516100fa91906111e6565b60405180910390f35b61010b61078e565b60405161011891906110fa565b60405180910390f35b610129610793565b604051610136919061121f565b60405180910390f35b6101476107b7565b6040516101549190611258565b60405180910390f35b6101656107db565b60405161017291906110fa565b60405180910390f35b61019560048036038101906101909190611141565b6107e0565b005b6101b160048036038101906101ac9190611141565b610b67565b6040516101be91906110fa565b60405180910390f35b6101e160048036038101906101dc9190611141565b610d24565b6040516101ef9291906112b3565b60405180910390f35b610200610d75565b60405161020d91906112f2565b60405180910390f35b66038d7ea4c6800081565b61023567c669b44638e11c3260c01b610d7e565b61023d610d81565b610251678cc6f47ffdd9428360c01b610d7e565b6102656737af73d16f7d704560c01b610d7e565b61027967b114175d7018322060c01b610d7e565b61028d673ba81f83c216a56c60c01b610d7e565b5f805f8381526020019081526020015f206040518060400160405290815f82015f9054906101000a900473ffffffffffffffffffffffffffffffffffffffff1673ffffffffffffffffffffffffffffffffffffffff1673ffffffffffffffffffffffffffffffffffffffff1681526020015f820160149054906101000a900467ffffffffffffffff1667ffffffffffffffff1667ffffffffffffffff1681525050905061034467d115193d4380ec2260c01b610d7e565b6103586717315a3d40c8a56a60c01b610d7e565b3373ffffffffffffffffffffffffffffffffffffffff16815f015173ffffffffffffffffffffffffffffffffffffffff16146103d4576103a2678f1842da22fadb7760c01b610d7e565b6040517fff75c0a900000000000000000000000000000000000000000000000000000000815260040160405180910390fd5b6103e867cd664dac546a433760c01b610d7e565b6103fc67dc33f4830a20d4a760c01b610d7e565b6104106710cde47bb9cf55e960c01b610d7e565b601e816020015167ffffffffffffffff1661042b9190611338565b4210156104785761044667109c3f8548cb86ce60c01b610d7e565b6040517ff149710500000000000000000000000000000000000000000000000000000000815260040160405180910390fd5b61048c6769196954be6f417060c01b610d7e565b6104a06727a3a2789e3ee29160c01b610d7e565b6104b46750a9bdd7f7dc7a2660c01b610d7e565b5f6104be82610da3565b90506104d467daedc86be54c0b9560c01b610d7e565b5f808481526020019081526020015f205f8082015f6101000a81549073ffffffffffffffffffffffffffffffffffffffff02191690555f820160146101000a81549067ffffffffffffffff0219169055505061053a674cbe46ef00792b4060c01b610d7e565b61054e678cb32f08ef203eeb60c01b610d7e565b5f81111561061f5761056a675ec3fd74471b07b360c01b610d7e565b61057e67cda7ab05fcde44b160c01b610d7e565b6105926779a53ce6cc81a62760c01b610d7e565b7f000000000000000000000000000000000000000000000000000000000000000073ffffffffffffffffffffffffffffffffffffffff166340c10f1933836040518363ffffffff1660e01b81526004016105ed92919061136b565b5f604051808303815f87803b158015610604575f80fd5b505af1158015610616573d5f803e3d5ffd5b50505050610634565b61063367de0d604d6daf1b7660c01b610d7e565b5b61064867ca9705071b08533560c01b610d7e565b61065c67e84871c8499e5e3960c01b610d7e565b7f000000000000000000000000000000000000000000000000000000000000000073ffffffffffffffffffffffffffffffffffffffff166323b872dd3033866040518463ffffffff1660e01b81526004016106b993929190611392565b5f604051808303815f87803b1580156106d0575f80fd5b505af11580156106e2573d5f803e3d5ffd5b505050506106fa67fb6465a5e8780ee160c01b610d7e565b61070e6752a7c06e1758f51b60c01b610d7e565b823373ffffffffffffffffffffffffffffffffffffffff167f7fc4727e062e336010f2c282598ef5f14facb3de68cf8195c2f23e1454b2b74e8360405161075591906110fa565b60405180910390a35050610767611039565b50565b7f000000000000000000000000000000000000000000000000000000000000000081565b601e81565b7f000000000000000000000000000000000000000000000000000000000000000081565b7f000000000000000000000000000000000000000000000000000000000000000081565b600281565b6107f467a0c7f68b908d83cc60c01b610d7e565b6107fc610d81565b61081067fc1f4dfd70b634e460c01b610d7e565b61082467c7e2f84f7955524e60c01b610d7e565b61083867526f28309dd53dff60c01b610d7e565b61084c67e5de484a469a7b1e60c01b610d7e565b3373ffffffffffffffffffffffffffffffffffffffff167f000000000000000000000000000000000000000000000000000000000000000073ffffffffffffffffffffffffffffffffffffffff16636352211e836040518263ffffffff1660e01b81526004016108bc91906110fa565b602060405180830381865afa1580156108d7573d5f803e3d5ffd5b505050506040513d601f19601f820116820180604052508101906108fb91906113f1565b73ffffffffffffffffffffffffffffffffffffffff161461095c5761092a67649d2a018af0344b60c01b610d7e565b6040517fff75c0a900000000000000000000000000000000000000000000000000000000815260040160405180910390fd5b61097067df8f1a1be1b8788560c01b610d7e565b61098467bfe3476904ceb49960c01b610d7e565b60405180604001604052803373ffffffffffffffffffffffffffffffffffffffff1681526020014267ffffffffffffffff168152505f808381526020019081526020015f205f820151815f015f6101000a81548173ffffffffffffffffffffffffffffffffffffffff021916908373ffffffffffffffffffffffffffffffffffffffff1602179055506020820151815f0160146101000a81548167ffffffffffffffff021916908367ffffffffffffffff160217905550905050610a5267a312983fb8d67c3360c01b610d7e565b610a6667d3e4eb15b4f119bd60c01b610d7e565b7f000000000000000000000000000000000000000000000000000000000000000073ffffffffffffffffffffffffffffffffffffffff166323b872dd3330846040518463ffffffff1660e01b8152600401610ac393929190611392565b5f604051808303815f87803b158015610ada575f80fd5b505af1158015610aec573d5f803e3d5ffd5b50505050610b0467f6fea526fb83d62d60c01b610d7e565b610b1867b1c2f03b5ce473ef60c01b610d7e565b803373ffffffffffffffffffffffffffffffffffffffff167f9e71bc8eea02a63969f509818f2dafb9254532904319f9dbda79b67bd34a5f3d60405160405180910390a3610b64611039565b50565b5f610b7c6766671eff88b030cb60c01b610d7e565b610b906717c146e6d3b1520360c01b610d7e565b610ba4678daaf19e3c8b124d60c01b610d7e565b5f805f8481526020019081526020015f206040518060400160405290815f82015f9054906101000a900473ffffffffffffffffffffffffffffffffffffffff1673ffffffffffffffffffffffffffffffffffffffff1673ffffffffffffffffffffffffffffffffffffffff1681526020015f820160149054906101000a900467ffffffffffffffff1667ffffffffffffffff1667ffffffffffffffff16815250509050610c5b67ab511a8deaa15d0f60c01b610d7e565b610c6f67b2846e7855f097e560c01b610d7e565b5f73ffffffffffffffffffffffffffffffffffffffff16815f015173ffffffffffffffffffffffffffffffffffffffff1603610cd657610cb96798d05587aa231f3960c01b610d7e565b610ccd67dfd988bad518adf260c01b610d7e565b5f915050610d1f565b610cea6766c2887e2f62e74560c01b610d7e565b610cfe67c1bf79a31082b7ff60c01b610d7e565b610d1267cfcfad8b7be065bd60c01b610d7e565b610d1b81610da3565b9150505b919050565b5f602052805f5260405f205f91509050805f015f9054906101000a900473ffffffffffffffffffffffffffffffffffffffff1690805f0160149054906101000a900467ffffffffffffffff16905082565b642e90edd00081565b50565b610d89611053565b6002610d9b610d96611094565b6110bd565b5f0181905550565b5f610db867997650923f24e59760c01b610d7e565b610dcc674e08be895fa2d43460c01b610d7e565b610de06771ce62bd3d9fba7060c01b610d7e565b5f826020015167ffffffffffffffff1642610dfb919061141c565b9050610e1167dae35c5763e0ccef60c01b610d7e565b610e2567dfc0bde838a11b9660c01b610d7e565b5f66038d7ea4c6800082610e39919061144f565b9050610e4f677c370b76374fb6b960c01b610d7e565b610e6367f178053f18d1ab3f60c01b610d7e565b5f7f000000000000000000000000000000000000000000000000000000000000000073ffffffffffffffffffffffffffffffffffffffff1663feaf968c6040518163ffffffff1660e01b815260040160a060405180830381865afa158015610ecd573d5f803e3d5ffd5b505050506040513d601f19601f82011682018060405250810190610ef1919061150d565b505050915050610f0b67669afec633c359ca60c01b610d7e565b610f1f67a962020952a7063d60c01b610d7e565b5f8113610f6c57610f3a673edf16164d1ba66e60c01b610d7e565b6040517fffb848d000000000000000000000000000000000000000000000000000000000815260040160405180910390fd5b610f8067b8329487ebb4903760c01b610d7e565b610f94672244ff631d1a8f2160c01b610d7e565b610fa867dec89b9ca6311f8760c01b610d7e565b642e90edd000811215610ff157610fc967fab3f2ac90600f4d60c01b610d7e565b610fdd671d4460f42f57e40b60c01b610d7e565b600282610fea919061144f565b9150611006565b61100567e4a06abd94a92bbb60c01b610d7e565b5b61101a6742916fe4924f6b1860c01b610d7e565b61102e6795fae1c079cc9a2d60c01b610d7e565b819350505050919050565b600161104b611046611094565b6110bd565b5f0181905550565b61105b6110c6565b15611092576040517f3ee5aeb500000000000000000000000000000000000000000000000000000000815260040160405180910390fd5b565b5f7f9b779b17422d0df92223018b32b4d1fa46e071723d6817e2486d003becc55f005f1b905090565b5f819050919050565b5f60026110d96110d4611094565b6110bd565b5f015414905090565b5f819050919050565b6110f4816110e2565b82525050565b5f60208201905061110d5f8301846110eb565b92915050565b5f80fd5b611120816110e2565b811461112a575f80fd5b50565b5f8135905061113b81611117565b92915050565b5f6020828403121561115657611155611113565b5b5f6111638482850161112d565b91505092915050565b5f73ffffffffffffffffffffffffffffffffffffffff82169050919050565b5f819050919050565b5f6111ae6111a96111a48461116c565b61118b565b61116c565b9050919050565b5f6111bf82611194565b9050919050565b5f6111d0826111b5565b9050919050565b6111e0816111c6565b82525050565b5f6020820190506111f95f8301846111d7565b92915050565b5f611209826111b5565b9050919050565b611219816111ff565b82525050565b5f6020820190506112325f830184611210565b92915050565b5f611242826111b5565b9050919050565b61125281611238565b82525050565b5f60208201905061126b5f830184611249565b92915050565b5f61127b8261116c565b9050919050565b61128b81611271565b82525050565b5f67ffffffffffffffff82169050919050565b6112ad81611291565b82525050565b5f6040820190506112c65f830185611282565b6112d360208301846112a4565b9392505050565b5f819050919050565b6112ec816112da565b82525050565b5f6020820190506113055f8301846112e3565b92915050565b7f4e487b71000000000000000000000000000000000000000000000000000000005f52601160045260245ffd5b5f611342826110e2565b915061134d836110e2565b92508282019050808211156113655761136461130b565b5b92915050565b5f60408201905061137e5f830185611282565b61138b60208301846110eb565b9392505050565b5f6060820190506113a55f830186611282565b6113b26020830185611282565b6113bf60408301846110eb565b949350505050565b6113d081611271565b81146113da575f80fd5b50565b5f815190506113eb816113c7565b92915050565b5f6020828403121561140657611405611113565b5b5f611413848285016113dd565b91505092915050565b5f611426826110e2565b9150611431836110e2565b92508282039050818111156114495761144861130b565b5b92915050565b5f611459826110e2565b9150611464836110e2565b9250828202611472816110e2565b915082820484148315176114895761148861130b565b5b5092915050565b5f69ffffffffffffffffffff82169050919050565b6114ae81611490565b81146114b8575f80fd5b50565b5f815190506114c9816114a5565b92915050565b6114d8816112da565b81146114e2575f80fd5b50565b5f815190506114f3816114cf565b92915050565b5f8151905061150781611117565b92915050565b5f805f805f60a0868803121561152657611525611113565b5b5f611533888289016114bb565b9550506020611544888289016114e5565b9450506040611555888289016114f9565b9350506060611566888289016114f9565b9250506080611577888289016114bb565b915050929550929590935056fea2646970667358221220ba8c6a134761e934523deab41e7ba563fd0a59f55db4444350909060579662bb64736f6c63430008180033","opcodes":"PUSH1 0xE0 PUSH1 0x40 MSTORE CALLVALUE DUP1 ISZERO PUSH3 0x10 JUMPI PUSH0 DUP1 REVERT JUMPDEST POP PUSH1 0x40 MLOAD PUSH3 0x186E CODESIZE SUB DUP1 PUSH3 0x186E DUP4 CODECOPY DUP2 DUP2 ADD PUSH1 0x40 MSTORE DUP2 ADD SWAP1 PUSH3 0x36 SWAP2 SWAP1 PUSH3 0x20D JUMP JUMPDEST PUSH1 0x1 PUSH3 0x58 PUSH3 0x4C PUSH3 0x173 PUSH1 0x20 SHL PUSH1 0x20 SHR JUMP JUMPDEST PUSH3 0x19C PUSH1 0x20 SHL PUSH1 0x20 SHR JUMP JUMPDEST PUSH0 ADD DUP2 SWAP1 SSTORE POP PUSH3 0x7A PUSH8 0xB69449E5463BB922 PUSH1 0xC0 SHL PUSH3 0x1A5 PUSH1 0x20 SHL PUSH1 0x20 SHR JUMP JUMPDEST PUSH3 0x96 PUSH8 0xD86D02EEA71E1424 PUSH1 0xC0 SHL PUSH3 0x1A5 PUSH1 0x20 SHL PUSH1 0x20 SHR JUMP JUMPDEST DUP3 PUSH20 0xFFFFFFFFFFFFFFFFFFFFFFFFFFFFFFFFFFFFFFFF AND PUSH1 0x80 DUP2 PUSH20 0xFFFFFFFFFFFFFFFFFFFFFFFFFFFFFFFFFFFFFFFF AND DUP2 MSTORE POP POP PUSH3 0xE6 PUSH8 0xAA53F5073CCB547B PUSH1 0xC0 SHL PUSH3 0x1A5 PUSH1 0x20 SHL PUSH1 0x20 SHR JUMP JUMPDEST DUP2 PUSH20 0xFFFFFFFFFFFFFFFFFFFFFFFFFFFFFFFFFFFFFFFF AND PUSH1 0xA0 DUP2 PUSH20 0xFFFFFFFFFFFFFFFFFFFFFFFFFFFFFFFFFFFFFFFF AND DUP2 MSTORE POP POP PUSH3 0x136 PUSH8 0x9D017498892FE280 PUSH1 0xC0 SHL PUSH3 0x1A5 PUSH1 0x20 SHL PUSH1 0x20 SHR JUMP JUMPDEST DUP1 PUSH20 0xFFFFFFFFFFFFFFFFFFFFFFFFFFFFFFFFFFFFFFFF AND PUSH1 0xC0 DUP2 PUSH20 0xFFFFFFFFFFFFFFFFFFFFFFFFFFFFFFFFFFFFFFFF AND DUP2 MSTORE POP POP POP POP POP PUSH3 0x266 JUMP JUMPDEST PUSH0 PUSH32 0x9B779B17422D0DF92223018B32B4D1FA46E071723D6817E2486D003BECC55F00 PUSH0 SHL SWAP1 POP SWAP1 JUMP JUMPDEST PUSH0 DUP2 SWAP1 POP SWAP2 SWAP1 POP JUMP JUMPDEST POP JUMP JUMPDEST PUSH0 DUP1 REVERT JUMPDEST PUSH0 PUSH20 0xFFFFFFFFFFFFFFFFFFFFFFFFFFFFFFFFFFFFFFFF DUP3 AND SWAP1 POP SWAP2 SWAP1 POP JUMP JUMPDEST PUSH0 PUSH3 0x1D7 DUP3 PUSH3 0x1AC JUMP JUMPDEST SWAP1 POP SWAP2 SWAP1 POP JUMP JUMPDEST PUSH3 0x1E9 DUP2 PUSH3 0x1CB JUMP JUMPDEST DUP2 EQ PUSH3 0x1F4 JUMPI PUSH0 DUP1 REVERT JUMPDEST POP JUMP JUMPDEST PUSH0 DUP2 MLOAD SWAP1 POP PUSH3 0x207 DUP2 PUSH3 0x1DE JUMP JUMPDEST SWAP3 SWAP2 POP POP JUMP JUMPDEST PUSH0 DUP1 PUSH0 PUSH1 0x60 DUP5 DUP7 SUB SLT ISZERO PUSH3 0x227 JUMPI PUSH3 0x226 PUSH3 0x1A8 JUMP JUMPDEST JUMPDEST PUSH0 PUSH3 0x236 DUP7 DUP3 DUP8 ADD PUSH3 0x1F7 JUMP JUMPDEST SWAP4 POP POP PUSH1 0x20 PUSH3 0x249 DUP7 DUP3 DUP8 ADD PUSH3 0x1F7 JUMP JUMPDEST SWAP3 POP POP PUSH1 0x40 PUSH3 0x25C DUP7 DUP3 DUP8 ADD PUSH3 0x1F7 JUMP JUMPDEST SWAP2 POP POP SWAP3 POP SWAP3 POP SWAP3 JUMP JUMPDEST PUSH1 0x80 MLOAD PUSH1 0xA0 MLOAD PUSH1 0xC0 MLOAD PUSH2 0x15BA PUSH3 0x2B4 PUSH0 CODECOPY PUSH0 DUP2 DUP2 PUSH2 0x76C ADD MSTORE PUSH2 0xE66 ADD MSTORE PUSH0 DUP2 DUP2 PUSH2 0x594 ADD MSTORE PUSH2 0x7B9 ADD MSTORE PUSH0 DUP2 DUP2 PUSH2 0x65E ADD MSTORE DUP2 DUP2 PUSH2 0x795 ADD MSTORE DUP2 DUP2 PUSH2 0x865 ADD MSTORE PUSH2 0xA68 ADD MSTORE PUSH2 0x15BA PUSH0 RETURN INVALID PUSH1 0x80 PUSH1 0x40 MSTORE CALLVALUE DUP1 ISZERO PUSH2 0xF JUMPI PUSH0 DUP1 REVERT JUMPDEST POP PUSH1 0x4 CALLDATASIZE LT PUSH2 0xA7 JUMPI PUSH0 CALLDATALOAD PUSH1 0xE0 SHR DUP1 PUSH4 0x5DF2DCBC GT PUSH2 0x6F JUMPI DUP1 PUSH4 0x5DF2DCBC EQ PUSH2 0x13F JUMPI DUP1 PUSH4 0x8AA28550 EQ PUSH2 0x15D JUMPI DUP1 PUSH4 0xA694FC3A EQ PUSH2 0x17B JUMPI DUP1 PUSH4 0xD2D7231F EQ PUSH2 0x197 JUMPI DUP1 PUSH4 0xD5A44F86 EQ PUSH2 0x1C7 JUMPI DUP1 PUSH4 0xEBFAD492 EQ PUSH2 0x1F8 JUMPI PUSH2 0xA7 JUMP JUMPDEST DUP1 PUSH4 0xE40FE9F EQ PUSH2 0xAB JUMPI DUP1 PUSH4 0x2E17DE78 EQ PUSH2 0xC9 JUMPI DUP1 PUSH4 0x31EB318A EQ PUSH2 0xE5 JUMPI DUP1 PUSH4 0x343D597C EQ PUSH2 0x103 JUMPI DUP1 PUSH4 0x5856DEBA EQ PUSH2 0x121 JUMPI JUMPDEST PUSH0 DUP1 REVERT JUMPDEST PUSH2 0xB3 PUSH2 0x216 JUMP JUMPDEST PUSH1 0x40 MLOAD PUSH2 0xC0 SWAP2 SWAP1 PUSH2 0x10FA JUMP JUMPDEST PUSH1 0x40 MLOAD DUP1 SWAP2 SUB SWAP1 RETURN JUMPDEST PUSH2 0xE3 PUSH1 0x4 DUP1 CALLDATASIZE SUB DUP2 ADD SWAP1 PUSH2 0xDE SWAP2 SWAP1 PUSH2 0x1141 JUMP JUMPDEST PUSH2 0x221 JUMP JUMPDEST STOP JUMPDEST PUSH2 0xED PUSH2 0x76A JUMP JUMPDEST PUSH1 0x40 MLOAD PUSH2 0xFA SWAP2 SWAP1 PUSH2 0x11E6 JUMP JUMPDEST PUSH1 0x40 MLOAD DUP1 SWAP2 SUB SWAP1 RETURN JUMPDEST PUSH2 0x10B PUSH2 0x78E JUMP JUMPDEST PUSH1 0x40 MLOAD PUSH2 0x118 SWAP2 SWAP1 PUSH2 0x10FA JUMP JUMPDEST PUSH1 0x40 MLOAD DUP1 SWAP2 SUB SWAP1 RETURN JUMPDEST PUSH2 0x129 PUSH2 0x793 JUMP JUMPDEST PUSH1 0x40 MLOAD PUSH2 0x136 SWAP2 SWAP1 PUSH2 0x121F JUMP JUMPDEST PUSH1 0x40 MLOAD DUP1 SWAP2 SUB SWAP1 RETURN JUMPDEST PUSH2 0x147 PUSH2 0x7B7 JUMP JUMPDEST PUSH1 0x40 MLOAD PUSH2 0x154 SWAP2 SWAP1 PUSH2 0x1258 JUMP JUMPDEST PUSH1 0x40 MLOAD DUP1 SWAP2 SUB SWAP1 RETURN JUMPDEST PUSH2 0x165 PUSH2 0x7DB JUMP JUMPDEST PUSH1 0x40 MLOAD PUSH2 0x172 SWAP2 SWAP1 PUSH2 0x10FA JUMP JUMPDEST PUSH1 0x40 MLOAD DUP1 SWAP2 SUB SWAP1 RETURN JUMPDEST PUSH2 0x195 PUSH1 0x4 DUP1 CALLDATASIZE SUB DUP2 ADD SWAP1 PUSH2 0x190 SWAP2 SWAP1 PUSH2 0x1141 JUMP JUMPDEST PUSH2 0x7E0 JUMP JUMPDEST STOP JUMPDEST PUSH2 0x1B1 PUSH1 0x4 DUP1 CALLDATASIZE SUB DUP2 ADD SWAP1 PUSH2 0x1AC SWAP2 SWAP1 PUSH2 0x1141 JUMP JUMPDEST PUSH2 0xB67 JUMP JUMPDEST PUSH1 0x40 MLOAD PUSH2 0x1BE SWAP2 SWAP1 PUSH2 0x10FA JUMP JUMPDEST PUSH1 0x40 MLOAD DUP1 SWAP2 SUB SWAP1 RETURN JUMPDEST PUSH2 0x1E1 PUSH1 0x4 DUP1 CALLDATASIZE SUB DUP2 ADD SWAP1 PUSH2 0x1DC SWAP2 SWAP1 PUSH2 0x1141 JUMP JUMPDEST PUSH2 0xD24 JUMP JUMPDEST PUSH1 0x40 MLOAD PUSH2 0x1EF SWAP3 SWAP2 SWAP1 PUSH2 0x12B3 JUMP JUMPDEST PUSH1 0x40 MLOAD DUP1 SWAP2 SUB SWAP1 RETURN JUMPDEST PUSH2 0x200 PUSH2 0xD75 JUMP JUMPDEST PUSH1 0x40 MLOAD PUSH2 0x20D SWAP2 SWAP1 PUSH2 0x12F2 JUMP JUMPDEST PUSH1 0x40 MLOAD DUP1 SWAP2 SUB SWAP1 RETURN JUMPDEST PUSH7 0x38D7EA4C68000 DUP2 JUMP JUMPDEST PUSH2 0x235 PUSH8 0xC669B44638E11C32 PUSH1 0xC0 SHL PUSH2 0xD7E JUMP JUMPDEST PUSH2 0x23D PUSH2 0xD81 JUMP JUMPDEST PUSH2 0x251 PUSH8 0x8CC6F47FFDD94283 PUSH1 0xC0 SHL PUSH2 0xD7E JUMP JUMPDEST PUSH2 0x265 PUSH8 0x37AF73D16F7D7045 PUSH1 0xC0 SHL PUSH2 0xD7E JUMP JUMPDEST PUSH2 0x279 PUSH8 0xB114175D70183220 PUSH1 0xC0 SHL PUSH2 0xD7E JUMP JUMPDEST PUSH2 0x28D PUSH8 0x3BA81F83C216A56C PUSH1 0xC0 SHL PUSH2 0xD7E JUMP JUMPDEST PUSH0 DUP1 PUSH0 DUP4 DUP2 MSTORE PUSH1 0x20 ADD SWAP1 DUP2 MSTORE PUSH1 0x20 ADD PUSH0 KECCAK256 PUSH1 0x40 MLOAD DUP1 PUSH1 0x40 ADD PUSH1 0x40 MSTORE SWAP1 DUP2 PUSH0 DUP3 ADD PUSH0 SWAP1 SLOAD SWAP1 PUSH2 0x100 EXP SWAP1 DIV PUSH20 0xFFFFFFFFFFFFFFFFFFFFFFFFFFFFFFFFFFFFFFFF AND PUSH20 0xFFFFFFFFFFFFFFFFFFFFFFFFFFFFFFFFFFFFFFFF AND PUSH20 0xFFFFFFFFFFFFFFFFFFFFFFFFFFFFFFFFFFFFFFFF AND DUP2 MSTORE PUSH1 0x20 ADD PUSH0 DUP3 ADD PUSH1 0x14 SWAP1 SLOAD SWAP1 PUSH2 0x100 EXP SWAP1 DIV PUSH8 0xFFFFFFFFFFFFFFFF AND PUSH8 0xFFFFFFFFFFFFFFFF AND PUSH8 0xFFFFFFFFFFFFFFFF AND DUP2 MSTORE POP POP SWAP1 POP PUSH2 0x344 PUSH8 0xD115193D4380EC22 PUSH1 0xC0 SHL PUSH2 0xD7E JUMP JUMPDEST PUSH2 0x358 PUSH8 0x17315A3D40C8A56A PUSH1 0xC0 SHL PUSH2 0xD7E JUMP JUMPDEST CALLER PUSH20 0xFFFFFFFFFFFFFFFFFFFFFFFFFFFFFFFFFFFFFFFF AND DUP2 PUSH0 ADD MLOAD PUSH20 0xFFFFFFFFFFFFFFFFFFFFFFFFFFFFFFFFFFFFFFFF AND EQ PUSH2 0x3D4 JUMPI PUSH2 0x3A2 PUSH8 0x8F1842DA22FADB77 PUSH1 0xC0 SHL PUSH2 0xD7E JUMP JUMPDEST PUSH1 0x40 MLOAD PUSH32 0xFF75C0A900000000000000000000000000000000000000000000000000000000 DUP2 MSTORE PUSH1 0x4 ADD PUSH1 0x40 MLOAD DUP1 SWAP2 SUB SWAP1 REVERT JUMPDEST PUSH2 0x3E8 PUSH8 0xCD664DAC546A4337 PUSH1 0xC0 SHL PUSH2 0xD7E JUMP JUMPDEST PUSH2 0x3FC PUSH8 0xDC33F4830A20D4A7 PUSH1 0xC0 SHL PUSH2 0xD7E JUMP JUMPDEST PUSH2 0x410 PUSH8 0x10CDE47BB9CF55E9 PUSH1 0xC0 SHL PUSH2 0xD7E JUMP JUMPDEST PUSH1 0x1E DUP2 PUSH1 0x20 ADD MLOAD PUSH8 0xFFFFFFFFFFFFFFFF AND PUSH2 0x42B SWAP2 SWAP1 PUSH2 0x1338 JUMP JUMPDEST TIMESTAMP LT ISZERO PUSH2 0x478 JUMPI PUSH2 0x446 PUSH8 0x109C3F8548CB86CE PUSH1 0xC0 SHL PUSH2 0xD7E JUMP JUMPDEST PUSH1 0x40 MLOAD PUSH32 0xF149710500000000000000000000000000000000000000000000000000000000 DUP2 MSTORE PUSH1 0x4 ADD PUSH1 0x40 MLOAD DUP1 SWAP2 SUB SWAP1 REVERT JUMPDEST PUSH2 0x48C PUSH8 0x69196954BE6F4170 PUSH1 0xC0 SHL PUSH2 0xD7E JUMP JUMPDEST PUSH2 0x4A0 PUSH8 0x27A3A2789E3EE291 PUSH1 0xC0 SHL PUSH2 0xD7E JUMP JUMPDEST PUSH2 0x4B4 PUSH8 0x50A9BDD7F7DC7A26 PUSH1 0xC0 SHL PUSH2 0xD7E JUMP JUMPDEST PUSH0 PUSH2 0x4BE DUP3 PUSH2 0xDA3 JUMP JUMPDEST SWAP1 POP PUSH2 0x4D4 PUSH8 0xDAEDC86BE54C0B95 PUSH1 0xC0 SHL PUSH2 0xD7E JUMP JUMPDEST PUSH0 DUP1 DUP5 DUP2 MSTORE PUSH1 0x20 ADD SWAP1 DUP2 MSTORE PUSH1 0x20 ADD PUSH0 KECCAK256 PUSH0 DUP1 DUP3 ADD PUSH0 PUSH2 0x100 EXP DUP2 SLOAD SWAP1 PUSH20 0xFFFFFFFFFFFFFFFFFFFFFFFFFFFFFFFFFFFFFFFF MUL NOT AND SWAP1 SSTORE PUSH0 DUP3 ADD PUSH1 0x14 PUSH2 0x100 EXP DUP2 SLOAD SWAP1 PUSH8 0xFFFFFFFFFFFFFFFF MUL NOT AND SWAP1 SSTORE POP POP PUSH2 0x53A PUSH8 0x4CBE46EF00792B40 PUSH1 0xC0 SHL PUSH2 0xD7E JUMP JUMPDEST PUSH2 0x54E PUSH8 0x8CB32F08EF203EEB PUSH1 0xC0 SHL PUSH2 0xD7E JUMP JUMPDEST PUSH0 DUP2 GT ISZERO PUSH2 0x61F JUMPI PUSH2 0x56A PUSH8 0x5EC3FD74471B07B3 PUSH1 0xC0 SHL PUSH2 0xD7E JUMP JUMPDEST PUSH2 0x57E PUSH8 0xCDA7AB05FCDE44B1 PUSH1 0xC0 SHL PUSH2 0xD7E JUMP JUMPDEST PUSH2 0x592 PUSH8 0x79A53CE6CC81A627 PUSH1 0xC0 SHL PUSH2 0xD7E JUMP JUMPDEST PUSH32 0x0 PUSH20 0xFFFFFFFFFFFFFFFFFFFFFFFFFFFFFFFFFFFFFFFF AND PUSH4 0x40C10F19 CALLER DUP4 PUSH1 0x40 MLOAD DUP4 PUSH4 0xFFFFFFFF AND PUSH1 0xE0 SHL DUP2 MSTORE PUSH1 0x4 ADD PUSH2 0x5ED SWAP3 SWAP2 SWAP1 PUSH2 0x136B JUMP JUMPDEST PUSH0 PUSH1 0x40 MLOAD DUP1 DUP4 SUB DUP2 PUSH0 DUP8 DUP1 EXTCODESIZE ISZERO DUP1 ISZERO PUSH2 0x604 JUMPI PUSH0 DUP1 REVERT JUMPDEST POP GAS CALL ISZERO DUP1 ISZERO PUSH2 0x616 JUMPI RETURNDATASIZE PUSH0 DUP1 RETURNDATACOPY RETURNDATASIZE PUSH0 REVERT JUMPDEST POP POP POP POP PUSH2 0x634 JUMP JUMPDEST PUSH2 0x633 PUSH8 0xDE0D604D6DAF1B76 PUSH1 0xC0 SHL PUSH2 0xD7E JUMP JUMPDEST JUMPDEST PUSH2 0x648 PUSH8 0xCA9705071B085335 PUSH1 0xC0 SHL PUSH2 0xD7E JUMP JUMPDEST PUSH2 0x65C PUSH8 0xE84871C8499E5E39 PUSH1 0xC0 SHL PUSH2 0xD7E JUMP JUMPDEST PUSH32 0x0 PUSH20 0xFFFFFFFFFFFFFFFFFFFFFFFFFFFFFFFFFFFFFFFF AND PUSH4 0x23B872DD ADDRESS CALLER DUP7 PUSH1 0x40 MLOAD DUP5 PUSH4 0xFFFFFFFF AND PUSH1 0xE0 SHL DUP2 MSTORE PUSH1 0x4 ADD PUSH2 0x6B9 SWAP4 SWAP3 SWAP2 SWAP1 PUSH2 0x1392 JUMP JUMPDEST PUSH0 PUSH1 0x40 MLOAD DUP1 DUP4 SUB DUP2 PUSH0 DUP8 DUP1 EXTCODESIZE ISZERO DUP1 ISZERO PUSH2 0x6D0 JUMPI PUSH0 DUP1 REVERT JUMPDEST POP GAS CALL ISZERO DUP1 ISZERO PUSH2 0x6E2 JUMPI RETURNDATASIZE PUSH0 DUP1 RETURNDATACOPY RETURNDATASIZE PUSH0 REVERT JUMPDEST POP POP POP POP PUSH2 0x6FA PUSH8 0xFB6465A5E8780EE1 PUSH1 0xC0 SHL PUSH2 0xD7E JUMP JUMPDEST PUSH2 0x70E PUSH8 0x52A7C06E1758F51B PUSH1 0xC0 SHL PUSH2 0xD7E JUMP JUMPDEST DUP3 CALLER PUSH20 0xFFFFFFFFFFFFFFFFFFFFFFFFFFFFFFFFFFFFFFFF AND PUSH32 0x7FC4727E062E336010F2C282598EF5F14FACB3DE68CF8195C2F23E1454B2B74E DUP4 PUSH1 0x40 MLOAD PUSH2 0x755 SWAP2 SWAP1 PUSH2 0x10FA JUMP JUMPDEST PUSH1 0x40 MLOAD DUP1 SWAP2 SUB SWAP1 LOG3 POP POP PUSH2 0x767 PUSH2 0x1039 JUMP JUMPDEST POP JUMP JUMPDEST PUSH32 0x0 DUP2 JUMP JUMPDEST PUSH1 0x1E DUP2 JUMP JUMPDEST PUSH32 0x0 DUP2 JUMP JUMPDEST PUSH32 0x0 DUP2 JUMP JUMPDEST PUSH1 0x2 DUP2 JUMP JUMPDEST PUSH2 0x7F4 PUSH8 0xA0C7F68B908D83CC PUSH1 0xC0 SHL PUSH2 0xD7E JUMP JUMPDEST PUSH2 0x7FC PUSH2 0xD81 JUMP JUMPDEST PUSH2 0x810 PUSH8 0xFC1F4DFD70B634E4 PUSH1 0xC0 SHL PUSH2 0xD7E JUMP JUMPDEST PUSH2 0x824 PUSH8 0xC7E2F84F7955524E PUSH1 0xC0 SHL PUSH2 0xD7E JUMP JUMPDEST PUSH2 0x838 PUSH8 0x526F28309DD53DFF PUSH1 0xC0 SHL PUSH2 0xD7E JUMP JUMPDEST PUSH2 0x84C PUSH8 0xE5DE484A469A7B1E PUSH1 0xC0 SHL PUSH2 0xD7E JUMP JUMPDEST CALLER PUSH20 0xFFFFFFFFFFFFFFFFFFFFFFFFFFFFFFFFFFFFFFFF AND PUSH32 0x0 PUSH20 0xFFFFFFFFFFFFFFFFFFFFFFFFFFFFFFFFFFFFFFFF AND PUSH4 0x6352211E DUP4 PUSH1 0x40 MLOAD DUP3 PUSH4 0xFFFFFFFF AND PUSH1 0xE0 SHL DUP2 MSTORE PUSH1 0x4 ADD PUSH2 0x8BC SWAP2 SWAP1 PUSH2 0x10FA JUMP JUMPDEST PUSH1 0x20 PUSH1 0x40 MLOAD DUP1 DUP4 SUB DUP2 DUP7 GAS STATICCALL ISZERO DUP1 ISZERO PUSH2 0x8D7 JUMPI RETURNDATASIZE PUSH0 DUP1 RETURNDATACOPY RETURNDATASIZE PUSH0 REVERT JUMPDEST POP POP POP POP PUSH1 0x40 MLOAD RETURNDATASIZE PUSH1 0x1F NOT PUSH1 0x1F DUP3 ADD AND DUP3 ADD DUP1 PUSH1 0x40 MSTORE POP DUP2 ADD SWAP1 PUSH2 0x8FB SWAP2 SWAP1 PUSH2 0x13F1 JUMP JUMPDEST PUSH20 0xFFFFFFFFFFFFFFFFFFFFFFFFFFFFFFFFFFFFFFFF AND EQ PUSH2 0x95C JUMPI PUSH2 0x92A PUSH8 0x649D2A018AF0344B PUSH1 0xC0 SHL PUSH2 0xD7E JUMP JUMPDEST PUSH1 0x40 MLOAD PUSH32 0xFF75C0A900000000000000000000000000000000000000000000000000000000 DUP2 MSTORE PUSH1 0x4 ADD PUSH1 0x40 MLOAD DUP1 SWAP2 SUB SWAP1 REVERT JUMPDEST PUSH2 0x970 PUSH8 0xDF8F1A1BE1B87885 PUSH1 0xC0 SHL PUSH2 0xD7E JUMP JUMPDEST PUSH2 0x984 PUSH8 0xBFE3476904CEB499 PUSH1 0xC0 SHL PUSH2 0xD7E JUMP JUMPDEST PUSH1 0x40 MLOAD DUP1 PUSH1 0x40 ADD PUSH1 0x40 MSTORE DUP1 CALLER PUSH20 0xFFFFFFFFFFFFFFFFFFFFFFFFFFFFFFFFFFFFFFFF AND DUP2 MSTORE PUSH1 0x20 ADD TIMESTAMP PUSH8 0xFFFFFFFFFFFFFFFF AND DUP2 MSTORE POP PUSH0 DUP1 DUP4 DUP2 MSTORE PUSH1 0x20 ADD SWAP1 DUP2 MSTORE PUSH1 0x20 ADD PUSH0 KECCAK256 PUSH0 DUP3 ADD MLOAD DUP2 PUSH0 ADD PUSH0 PUSH2 0x100 EXP DUP2 SLOAD DUP2 PUSH20 0xFFFFFFFFFFFFFFFFFFFFFFFFFFFFFFFFFFFFFFFF MUL NOT AND SWAP1 DUP4 PUSH20 0xFFFFFFFFFFFFFFFFFFFFFFFFFFFFFFFFFFFFFFFF AND MUL OR SWAP1 SSTORE POP PUSH1 0x20 DUP3 ADD MLOAD DUP2 PUSH0 ADD PUSH1 0x14 PUSH2 0x100 EXP DUP2 SLOAD DUP2 PUSH8 0xFFFFFFFFFFFFFFFF MUL NOT AND SWAP1 DUP4 PUSH8 0xFFFFFFFFFFFFFFFF AND MUL OR SWAP1 SSTORE POP SWAP1 POP POP PUSH2 0xA52 PUSH8 0xA312983FB8D67C33 PUSH1 0xC0 SHL PUSH2 0xD7E JUMP JUMPDEST PUSH2 0xA66 PUSH8 0xD3E4EB15B4F119BD PUSH1 0xC0 SHL PUSH2 0xD7E JUMP JUMPDEST PUSH32 0x0 PUSH20 0xFFFFFFFFFFFFFFFFFFFFFFFFFFFFFFFFFFFFFFFF AND PUSH4 0x23B872DD CALLER ADDRESS DUP5 PUSH1 0x40 MLOAD DUP5 PUSH4 0xFFFFFFFF AND PUSH1 0xE0 SHL DUP2 MSTORE PUSH1 0x4 ADD PUSH2 0xAC3 SWAP4 SWAP3 SWAP2 SWAP1 PUSH2 0x1392 JUMP JUMPDEST PUSH0 PUSH1 0x40 MLOAD DUP1 DUP4 SUB DUP2 PUSH0 DUP8 DUP1 EXTCODESIZE ISZERO DUP1 ISZERO PUSH2 0xADA JUMPI PUSH0 DUP1 REVERT JUMPDEST POP GAS CALL ISZERO DUP1 ISZERO PUSH2 0xAEC JUMPI RETURNDATASIZE PUSH0 DUP1 RETURNDATACOPY RETURNDATASIZE PUSH0 REVERT JUMPDEST POP POP POP POP PUSH2 0xB04 PUSH8 0xF6FEA526FB83D62D PUSH1 0xC0 SHL PUSH2 0xD7E JUMP JUMPDEST PUSH2 0xB18 PUSH8 0xB1C2F03B5CE473EF PUSH1 0xC0 SHL PUSH2 0xD7E JUMP JUMPDEST DUP1 CALLER PUSH20 0xFFFFFFFFFFFFFFFFFFFFFFFFFFFFFFFFFFFFFFFF AND PUSH32 0x9E71BC8EEA02A63969F509818F2DAFB9254532904319F9DBDA79B67BD34A5F3D PUSH1 0x40 MLOAD PUSH1 0x40 MLOAD DUP1 SWAP2 SUB SWAP1 LOG3 PUSH2 0xB64 PUSH2 0x1039 JUMP JUMPDEST POP JUMP JUMPDEST PUSH0 PUSH2 0xB7C PUSH8 0x66671EFF88B030CB PUSH1 0xC0 SHL PUSH2 0xD7E JUMP JUMPDEST PUSH2 0xB90 PUSH8 0x17C146E6D3B15203 PUSH1 0xC0 SHL PUSH2 0xD7E JUMP JUMPDEST PUSH2 0xBA4 PUSH8 0x8DAAF19E3C8B124D PUSH1 0xC0 SHL PUSH2 0xD7E JUMP JUMPDEST PUSH0 DUP1 PUSH0 DUP5 DUP2 MSTORE PUSH1 0x20 ADD SWAP1 DUP2 MSTORE PUSH1 0x20 ADD PUSH0 KECCAK256 PUSH1 0x40 MLOAD DUP1 PUSH1 0x40 ADD PUSH1 0x40 MSTORE SWAP1 DUP2 PUSH0 DUP3 ADD PUSH0 SWAP1 SLOAD SWAP1 PUSH2 0x100 EXP SWAP1 DIV PUSH20 0xFFFFFFFFFFFFFFFFFFFFFFFFFFFFFFFFFFFFFFFF AND PUSH20 0xFFFFFFFFFFFFFFFFFFFFFFFFFFFFFFFFFFFFFFFF AND PUSH20 0xFFFFFFFFFFFFFFFFFFFFFFFFFFFFFFFFFFFFFFFF AND DUP2 MSTORE PUSH1 0x20 ADD PUSH0 DUP3 ADD PUSH1 0x14 SWAP1 SLOAD SWAP1 PUSH2 0x100 EXP SWAP1 DIV PUSH8 0xFFFFFFFFFFFFFFFF AND PUSH8 0xFFFFFFFFFFFFFFFF AND PUSH8 0xFFFFFFFFFFFFFFFF AND DUP2 MSTORE POP POP SWAP1 POP PUSH2 0xC5B PUSH8 0xAB511A8DEAA15D0F PUSH1 0xC0 SHL PUSH2 0xD7E JUMP JUMPDEST PUSH2 0xC6F PUSH8 0xB2846E7855F097E5 PUSH1 0xC0 SHL PUSH2 0xD7E JUMP JUMPDEST PUSH0 PUSH20 0xFFFFFFFFFFFFFFFFFFFFFFFFFFFFFFFFFFFFFFFF AND DUP2 PUSH0 ADD MLOAD PUSH20 0xFFFFFFFFFFFFFFFFFFFFFFFFFFFFFFFFFFFFFFFF AND SUB PUSH2 0xCD6 JUMPI PUSH2 0xCB9 PUSH8 0x98D05587AA231F39 PUSH1 0xC0 SHL PUSH2 0xD7E JUMP JUMPDEST PUSH2 0xCCD PUSH8 0xDFD988BAD518ADF2 PUSH1 0xC0 SHL PUSH2 0xD7E JUMP JUMPDEST PUSH0 SWAP2 POP POP PUSH2 0xD1F JUMP JUMPDEST PUSH2 0xCEA PUSH8 0x66C2887E2F62E745 PUSH1 0xC0 SHL PUSH2 0xD7E JUMP JUMPDEST PUSH2 0xCFE PUSH8 0xC1BF79A31082B7FF PUSH1 0xC0 SHL PUSH2 0xD7E JUMP JUMPDEST PUSH2 0xD12 PUSH8 0xCFCFAD8B7BE065BD PUSH1 0xC0 SHL PUSH2 0xD7E JUMP JUMPDEST PUSH2 0xD1B DUP2 PUSH2 0xDA3 JUMP JUMPDEST SWAP2 POP POP JUMPDEST SWAP2 SWAP1 POP JUMP JUMPDEST PUSH0 PUSH1 0x20 MSTORE DUP1 PUSH0 MSTORE PUSH1 0x40 PUSH0 KECCAK256 PUSH0 SWAP2 POP SWAP1 POP DUP1 PUSH0 ADD PUSH0 SWAP1 SLOAD SWAP1 PUSH2 0x100 EXP SWAP1 DIV PUSH20 0xFFFFFFFFFFFFFFFFFFFFFFFFFFFFFFFFFFFFFFFF AND SWAP1 DUP1 PUSH0 ADD PUSH1 0x14 SWAP1 SLOAD SWAP1 PUSH2 0x100 EXP SWAP1 DIV PUSH8 0xFFFFFFFFFFFFFFFF AND SWAP1 POP DUP3 JUMP JUMPDEST PUSH5 0x2E90EDD000 DUP2 JUMP JUMPDEST POP JUMP JUMPDEST PUSH2 0xD89 PUSH2 0x1053 JUMP JUMPDEST PUSH1 0x2 PUSH2 0xD9B PUSH2 0xD96 PUSH2 0x1094 JUMP JUMPDEST PUSH2 0x10BD JUMP JUMPDEST PUSH0 ADD DUP2 SWAP1 SSTORE POP JUMP JUMPDEST PUSH0 PUSH2 0xDB8 PUSH8 0x997650923F24E597 PUSH1 0xC0 SHL PUSH2 0xD7E JUMP JUMPDEST PUSH2 0xDCC PUSH8 0x4E08BE895FA2D434 PUSH1 0xC0 SHL PUSH2 0xD7E JUMP JUMPDEST PUSH2 0xDE0 PUSH8 0x71CE62BD3D9FBA70 PUSH1 0xC0 SHL PUSH2 0xD7E JUMP JUMPDEST PUSH0 DUP3 PUSH1 0x20 ADD MLOAD PUSH8 0xFFFFFFFFFFFFFFFF AND TIMESTAMP PUSH2 0xDFB SWAP2 SWAP1 PUSH2 0x141C JUMP JUMPDEST SWAP1 POP PUSH2 0xE11 PUSH8 0xDAE35C5763E0CCEF PUSH1 0xC0 SHL PUSH2 0xD7E JUMP JUMPDEST PUSH2 0xE25 PUSH8 0xDFC0BDE838A11B96 PUSH1 0xC0 SHL PUSH2 0xD7E JUMP JUMPDEST PUSH0 PUSH7 0x38D7EA4C68000 DUP3 PUSH2 0xE39 SWAP2 SWAP1 PUSH2 0x144F JUMP JUMPDEST SWAP1 POP PUSH2 0xE4F PUSH8 0x7C370B76374FB6B9 PUSH1 0xC0 SHL PUSH2 0xD7E JUMP JUMPDEST PUSH2 0xE63 PUSH8 0xF178053F18D1AB3F PUSH1 0xC0 SHL PUSH2 0xD7E JUMP JUMPDEST PUSH0 PUSH32 0x0 PUSH20 0xFFFFFFFFFFFFFFFFFFFFFFFFFFFFFFFFFFFFFFFF AND PUSH4 0xFEAF968C PUSH1 0x40 MLOAD DUP2 PUSH4 0xFFFFFFFF AND PUSH1 0xE0 SHL DUP2 MSTORE PUSH1 0x4 ADD PUSH1 0xA0 PUSH1 0x40 MLOAD DUP1 DUP4 SUB DUP2 DUP7 GAS STATICCALL ISZERO DUP1 ISZERO PUSH2 0xECD JUMPI RETURNDATASIZE PUSH0 DUP1 RETURNDATACOPY RETURNDATASIZE PUSH0 REVERT JUMPDEST POP POP POP POP PUSH1 0x40 MLOAD RETURNDATASIZE PUSH1 0x1F NOT PUSH1 0x1F DUP3 ADD AND DUP3 ADD DUP1 PUSH1 0x40 MSTORE POP DUP2 ADD SWAP1 PUSH2 0xEF1 SWAP2 SWAP1 PUSH2 0x150D JUMP JUMPDEST POP POP POP SWAP2 POP POP PUSH2 0xF0B PUSH8 0x669AFEC633C359CA PUSH1 0xC0 SHL PUSH2 0xD7E JUMP JUMPDEST PUSH2 0xF1F PUSH8 0xA962020952A7063D PUSH1 0xC0 SHL PUSH2 0xD7E JUMP JUMPDEST PUSH0 DUP2 SGT PUSH2 0xF6C JUMPI PUSH2 0xF3A PUSH8 0x3EDF16164D1BA66E PUSH1 0xC0 SHL PUSH2 0xD7E JUMP JUMPDEST PUSH1 0x40 MLOAD PUSH32 0xFFB848D000000000000000000000000000000000000000000000000000000000 DUP2 MSTORE PUSH1 0x4 ADD PUSH1 0x40 MLOAD DUP1 SWAP2 SUB SWAP1 REVERT JUMPDEST PUSH2 0xF80 PUSH8 0xB8329487EBB49037 PUSH1 0xC0 SHL PUSH2 0xD7E JUMP JUMPDEST PUSH2 0xF94 PUSH8 0x2244FF631D1A8F21 PUSH1 0xC0 SHL PUSH2 0xD7E JUMP JUMPDEST PUSH2 0xFA8 PUSH8 0xDEC89B9CA6311F87 PUSH1 0xC0 SHL PUSH2 0xD7E JUMP JUMPDEST PUSH5 0x2E90EDD000 DUP2 SLT ISZERO PUSH2 0xFF1 JUMPI PUSH2 0xFC9 PUSH8 0xFAB3F2AC90600F4D PUSH1 0xC0 SHL PUSH2 0xD7E JUMP JUMPDEST PUSH2 0xFDD PUSH8 0x1D4460F42F57E40B PUSH1 0xC0 SHL PUSH2 0xD7E JUMP JUMPDEST PUSH1 0x2 DUP3 PUSH2 0xFEA SWAP2 SWAP1 PUSH2 0x144F JUMP JUMPDEST SWAP2 POP PUSH2 0x1006 JUMP JUMPDEST PUSH2 0x1005 PUSH8 0xE4A06ABD94A92BBB PUSH1 0xC0 SHL PUSH2 0xD7E JUMP JUMPDEST JUMPDEST PUSH2 0x101A PUSH8 0x42916FE4924F6B18 PUSH1 0xC0 SHL PUSH2 0xD7E JUMP JUMPDEST PUSH2 0x102E PUSH8 0x95FAE1C079CC9A2D PUSH1 0xC0 SHL PUSH2 0xD7E JUMP JUMPDEST DUP2 SWAP4 POP POP POP POP SWAP2 SWAP1 POP JUMP JUMPDEST PUSH1 0x1 PUSH2 0x104B PUSH2 0x1046 PUSH2 0x1094 JUMP JUMPDEST PUSH2 0x10BD JUMP JUMPDEST PUSH0 ADD DUP2 SWAP1 SSTORE POP JUMP JUMPDEST PUSH2 0x105B PUSH2 0x10C6 JUMP JUMPDEST ISZERO PUSH2 0x1092 JUMPI PUSH1 0x40 MLOAD PUSH32 0x3EE5AEB500000000000000000000000000000000000000000000000000000000 DUP2 MSTORE PUSH1 0x4 ADD PUSH1 0x40 MLOAD DUP1 SWAP2 SUB SWAP1 REVERT JUMPDEST JUMP JUMPDEST PUSH0 PUSH32 0x9B779B17422D0DF92223018B32B4D1FA46E071723D6817E2486D003BECC55F00 PUSH0 SHL SWAP1 POP SWAP1 JUMP JUMPDEST PUSH0 DUP2 SWAP1 POP SWAP2 SWAP1 POP JUMP JUMPDEST PUSH0 PUSH1 0x2 PUSH2 0x10D9 PUSH2 0x10D4 PUSH2 0x1094 JUMP JUMPDEST PUSH2 0x10BD JUMP JUMPDEST PUSH0 ADD SLOAD EQ SWAP1 POP SWAP1 JUMP JUMPDEST PUSH0 DUP2 SWAP1 POP SWAP2 SWAP1 POP JUMP JUMPDEST PUSH2 0x10F4 DUP2 PUSH2 0x10E2 JUMP JUMPDEST DUP3 MSTORE POP POP JUMP JUMPDEST PUSH0 PUSH1 0x20 DUP3 ADD SWAP1 POP PUSH2 0x110D PUSH0 DUP4 ADD DUP5 PUSH2 0x10EB JUMP JUMPDEST SWAP3 SWAP2 POP POP JUMP JUMPDEST PUSH0 DUP1 REVERT JUMPDEST PUSH2 0x1120 DUP2 PUSH2 0x10E2 JUMP JUMPDEST DUP2 EQ PUSH2 0x112A JUMPI PUSH0 DUP1 REVERT JUMPDEST POP JUMP JUMPDEST PUSH0 DUP2 CALLDATALOAD SWAP1 POP PUSH2 0x113B DUP2 PUSH2 0x1117 JUMP JUMPDEST SWAP3 SWAP2 POP POP JUMP JUMPDEST PUSH0 PUSH1 0x20 DUP3 DUP5 SUB SLT ISZERO PUSH2 0x1156 JUMPI PUSH2 0x1155 PUSH2 0x1113 JUMP JUMPDEST JUMPDEST PUSH0 PUSH2 0x1163 DUP5 DUP3 DUP6 ADD PUSH2 0x112D JUMP JUMPDEST SWAP2 POP POP SWAP3 SWAP2 POP POP JUMP JUMPDEST PUSH0 PUSH20 0xFFFFFFFFFFFFFFFFFFFFFFFFFFFFFFFFFFFFFFFF DUP3 AND SWAP1 POP SWAP2 SWAP1 POP JUMP JUMPDEST PUSH0 DUP2 SWAP1 POP SWAP2 SWAP1 POP JUMP JUMPDEST PUSH0 PUSH2 0x11AE PUSH2 0x11A9 PUSH2 0x11A4 DUP5 PUSH2 0x116C JUMP JUMPDEST PUSH2 0x118B JUMP JUMPDEST PUSH2 0x116C JUMP JUMPDEST SWAP1 POP SWAP2 SWAP1 POP JUMP JUMPDEST PUSH0 PUSH2 0x11BF DUP3 PUSH2 0x1194 JUMP JUMPDEST SWAP1 POP SWAP2 SWAP1 POP JUMP JUMPDEST PUSH0 PUSH2 0x11D0 DUP3 PUSH2 0x11B5 JUMP JUMPDEST SWAP1 POP SWAP2 SWAP1 POP JUMP JUMPDEST PUSH2 0x11E0 DUP2 PUSH2 0x11C6 JUMP JUMPDEST DUP3 MSTORE POP POP JUMP JUMPDEST PUSH0 PUSH1 0x20 DUP3 ADD SWAP1 POP PUSH2 0x11F9 PUSH0 DUP4 ADD DUP5 PUSH2 0x11D7 JUMP JUMPDEST SWAP3 SWAP2 POP POP JUMP JUMPDEST PUSH0 PUSH2 0x1209 DUP3 PUSH2 0x11B5 JUMP JUMPDEST SWAP1 POP SWAP2 SWAP1 POP JUMP JUMPDEST PUSH2 0x1219 DUP2 PUSH2 0x11FF JUMP JUMPDEST DUP3 MSTORE POP POP JUMP JUMPDEST PUSH0 PUSH1 0x20 DUP3 ADD SWAP1 POP PUSH2 0x1232 PUSH0 DUP4 ADD DUP5 PUSH2 0x1210 JUMP JUMPDEST SWAP3 SWAP2 POP POP JUMP JUMPDEST PUSH0 PUSH2 0x1242 DUP3 PUSH2 0x11B5 JUMP JUMPDEST SWAP1 POP SWAP2 SWAP1 POP JUMP JUMPDEST PUSH2 0x1252 DUP2 PUSH2 0x1238 JUMP JUMPDEST DUP3 MSTORE POP POP JUMP JUMPDEST PUSH0 PUSH1 0x20 DUP3 ADD SWAP1 POP PUSH2 0x126B PUSH0 DUP4 ADD DUP5 PUSH2 0x1249 JUMP JUMPDEST SWAP3 SWAP2 POP POP JUMP JUMPDEST PUSH0 PUSH2 0x127B DUP3 PUSH2 0x116C JUMP JUMPDEST SWAP1 POP SWAP2 SWAP1 POP JUMP JUMPDEST PUSH2 0x128B DUP2 PUSH2 0x1271 JUMP JUMPDEST DUP3 MSTORE POP POP JUMP JUMPDEST PUSH0 PUSH8 0xFFFFFFFFFFFFFFFF DUP3 AND SWAP1 POP SWAP2 SWAP1 POP JUMP JUMPDEST PUSH2 0x12AD DUP2 PUSH2 0x1291 JUMP JUMPDEST DUP3 MSTORE POP POP JUMP JUMPDEST PUSH0 PUSH1 0x40 DUP3 ADD SWAP1 POP PUSH2 0x12C6 PUSH0 DUP4 ADD DUP6 PUSH2 0x1282 JUMP JUMPDEST PUSH2 0x12D3 PUSH1 0x20 DUP4 ADD DUP5 PUSH2 0x12A4 JUMP JUMPDEST SWAP4 SWAP3 POP POP POP JUMP JUMPDEST PUSH0 DUP2 SWAP1 POP SWAP2 SWAP1 POP JUMP JUMPDEST PUSH2 0x12EC DUP2 PUSH2 0x12DA JUMP JUMPDEST DUP3 MSTORE POP POP JUMP JUMPDEST PUSH0 PUSH1 0x20 DUP3 ADD SWAP1 POP PUSH2 0x1305 PUSH0 DUP4 ADD DUP5 PUSH2 0x12E3 JUMP JUMPDEST SWAP3 SWAP2 POP POP JUMP JUMPDEST PUSH32 0x4E487B7100000000000000000000000000000000000000000000000000000000 PUSH0 MSTORE PUSH1 0x11 PUSH1 0x4 MSTORE PUSH1 0x24 PUSH0 REVERT JUMPDEST PUSH0 PUSH2 0x1342 DUP3 PUSH2 0x10E2 JUMP JUMPDEST SWAP2 POP PUSH2 0x134D DUP4 PUSH2 0x10E2 JUMP JUMPDEST SWAP3 POP DUP3 DUP3 ADD SWAP1 POP DUP1 DUP3 GT ISZERO PUSH2 0x1365 JUMPI PUSH2 0x1364 PUSH2 0x130B JUMP JUMPDEST JUMPDEST SWAP3 SWAP2 POP POP JUMP JUMPDEST PUSH0 PUSH1 0x40 DUP3 ADD SWAP1 POP PUSH2 0x137E PUSH0 DUP4 ADD DUP6 PUSH2 0x1282 JUMP JUMPDEST PUSH2 0x138B PUSH1 0x20 DUP4 ADD DUP5 PUSH2 0x10EB JUMP JUMPDEST SWAP4 SWAP3 POP POP POP JUMP JUMPDEST PUSH0 PUSH1 0x60 DUP3 ADD SWAP1 POP PUSH2 0x13A5 PUSH0 DUP4 ADD DUP7 PUSH2 0x1282 JUMP JUMPDEST PUSH2 0x13B2 PUSH1 0x20 DUP4 ADD DUP6 PUSH2 0x1282 JUMP JUMPDEST PUSH2 0x13BF PUSH1 0x40 DUP4 ADD DUP5 PUSH2 0x10EB JUMP JUMPDEST SWAP5 SWAP4 POP POP POP POP JUMP JUMPDEST PUSH2 0x13D0 DUP2 PUSH2 0x1271 JUMP JUMPDEST DUP2 EQ PUSH2 0x13DA JUMPI PUSH0 DUP1 REVERT JUMPDEST POP JUMP JUMPDEST PUSH0 DUP2 MLOAD SWAP1 POP PUSH2 0x13EB DUP2 PUSH2 0x13C7 JUMP JUMPDEST SWAP3 SWAP2 POP POP JUMP JUMPDEST PUSH0 PUSH1 0x20 DUP3 DUP5 SUB SLT ISZERO PUSH2 0x1406 JUMPI PUSH2 0x1405 PUSH2 0x1113 JUMP JUMPDEST JUMPDEST PUSH0 PUSH2 0x1413 DUP5 DUP3 DUP6 ADD PUSH2 0x13DD JUMP JUMPDEST SWAP2 POP POP SWAP3 SWAP2 POP POP JUMP JUMPDEST PUSH0 PUSH2 0x1426 DUP3 PUSH2 0x10E2 JUMP JUMPDEST SWAP2 POP PUSH2 0x1431 DUP4 PUSH2 0x10E2 JUMP JUMPDEST SWAP3 POP DUP3 DUP3 SUB SWAP1 POP DUP2 DUP2 GT ISZERO PUSH2 0x1449 JUMPI PUSH2 0x1448 PUSH2 0x130B JUMP JUMPDEST JUMPDEST SWAP3 SWAP2 POP POP JUMP JUMPDEST PUSH0 PUSH2 0x1459 DUP3 PUSH2 0x10E2 JUMP JUMPDEST SWAP2 POP PUSH2 0x1464 DUP4 PUSH2 0x10E2 JUMP JUMPDEST SWAP3 POP DUP3 DUP3 MUL PUSH2 0x1472 DUP2 PUSH2 0x10E2 JUMP JUMPDEST SWAP2 POP DUP3 DUP3 DIV DUP5 EQ DUP4 ISZERO OR PUSH2 0x1489 JUMPI PUSH2 0x1488 PUSH2 0x130B JUMP JUMPDEST JUMPDEST POP SWAP3 SWAP2 POP POP JUMP JUMPDEST PUSH0 PUSH10 0xFFFFFFFFFFFFFFFFFFFF DUP3 AND SWAP1 POP SWAP2 SWAP1 POP JUMP JUMPDEST PUSH2 0x14AE DUP2 PUSH2 0x1490 JUMP JUMPDEST DUP2 EQ PUSH2 0x14B8 JUMPI PUSH0 DUP1 REVERT JUMPDEST POP JUMP JUMPDEST PUSH0 DUP2 MLOAD SWAP1 POP PUSH2 0x14C9 DUP2 PUSH2 0x14A5 JUMP JUMPDEST SWAP3 SWAP2 POP POP JUMP JUMPDEST PUSH2 0x14D8 DUP2 PUSH2 0x12DA JUMP JUMPDEST DUP2 EQ PUSH2 0x14E2 JUMPI PUSH0 DUP1 REVERT JUMPDEST POP JUMP JUMPDEST PUSH0 DUP2 MLOAD SWAP1 POP PUSH2 0x14F3 DUP2 PUSH2 0x14CF JUMP JUMPDEST SWAP3 SWAP2 POP POP JUMP JUMPDEST PUSH0 DUP2 MLOAD SWAP1 POP PUSH2 0x1507 DUP2 PUSH2 0x1117 JUMP JUMPDEST SWAP3 SWAP2 POP POP JUMP JUMPDEST PUSH0 DUP1 PUSH0 DUP1 PUSH0 PUSH1 0xA0 DUP7 DUP9 SUB SLT ISZERO PUSH2 0x1526 JUMPI PUSH2 0x1525 PUSH2 0x1113 JUMP JUMPDEST JUMPDEST PUSH0 PUSH2 0x1533 DUP9 DUP3 DUP10 ADD PUSH2 0x14BB JUMP JUMPDEST SWAP6 POP POP PUSH1 0x20 PUSH2 0x1544 DUP9 DUP3 DUP10 ADD PUSH2 0x14E5 JUMP JUMPDEST SWAP5 POP POP PUSH1 0x40 PUSH2 0x1555 DUP9 DUP3 DUP10 ADD PUSH2 0x14F9 JUMP JUMPDEST SWAP4 POP POP PUSH1 0x60 PUSH2 0x1566 DUP9 DUP3 DUP10 ADD PUSH2 0x14F9 JUMP JUMPDEST SWAP3 POP POP PUSH1 0x80 PUSH2 0x1577 DUP9 DUP3 DUP10 ADD PUSH2 0x14BB JUMP JUMPDEST SWAP2 POP POP SWAP3 SWAP6 POP SWAP3 SWAP6 SWAP1 SWAP4 POP JUMP INVALID LOG2 PUSH5 0x6970667358 0x22 SLT KECCAK256 0xBA DUP13 PUSH11 0x134761E934523DEAB41E7B 0xA5 PUSH4 0xFD0A59F5 TSTORE 0xB4 PREVRANDAO NUMBER POP SWAP1 SWAP1 PUSH1 0x57 SWAP7 PUSH3 0xBB6473 PUSH16 0x6C634300081800330000000000000000 "},"methodIdentifiers":{"BASE_REWARD_RATE()":"0e40fe9f","BONUS_MULTIPLIER()":"8aa28550","EDU_TOKEN()":"5df2dcbc","ETH_PRICE_THRESHOLD()":"ebfad492","MIN_STAKING_TIME()":"343d597c","PRICE_FEED()":"31eb318a","STUDENT_BADGE()":"5856deba","calculateReward(uint256)":"d2d7231f","stake(uint256)":"a694fc3a","stakes(uint256)":"d5a44f86","unstake(uint256)":"2e17de78"}}}}}