{"src/dao/EduDAO.sol":{"EduDAO":{"abi":[{"inputs":[{"internalType":"address","name":"_token","type":"address"}],"stateMutability":"nonpayable","type":"constructor"},{"inputs":[],"name":"EduDAO__AlreadyVoted","type":"error"},{"inputs":[],"name":"EduDAO__BalanceTooLargeForVoteWeight","type":"error"},{"inputs":[],"name":"EduDAO__InsufficientTokens","type":"error"},{"inputs":[],"name":"EduDAO__InsufficientTokensToPropose","type":"error"},{"inputs":[],"name":"EduDAO__ProposalDoesNotExist","type":"error"},{"inputs":[],"name":"EduDAO__VotingClosed","type":"error"},{"anonymous":false,"inputs":[{"indexed":true,"internalType":"uint256","name":"id","type":"uint256"},{"indexed":false,"internalType":"bytes32","name":"descriptionHash","type":"bytes32"},{"indexed":false,"internalType":"uint256","name":"deadline","type":"uint256"}],"name":"ProposalCreated","type":"event"},{"anonymous":false,"inputs":[{"indexed":true,"internalType":"uint256","name":"id","type":"uint256"},{"indexed":true,"internalType":"address","name":"voter","type":"address"},{"indexed":false,"internalType":"bool","name":"support","type":"bool"},{"indexed":false,"internalType":"uint256","name":"weight","type":"uint256"}],"name":"Voted","type":"event"},{"inputs":[],"name":"EDU_TOKEN","outputs":[{"internalType":"contract IERC20","name":"","type":"address"}],"stateMutability":"view","type":"function"},{"inputs":[],"name":"MIN_VOTE_POWER","outputs":[{"internalType":"uint256","name":"","type":"uint256"}],"stateMutability":"view","type":"function"},{"inputs":[],"name":"PROPOSAL_THRESHOLD","outputs":[{"internalType":"uint256","name":"","type":"uint256"}],"stateMutability":"view","type":"function"},{"inputs":[{"internalType":"bytes32","name":"descriptionHash","type":"bytes32"}],"name":"createProposal","outputs":[],"stateMutability":"nonpayable","type":"function"},{"inputs":[{"internalType":"uint256","name":"","type":"uint256"},{"internalType":"address","name":"","type":"address"}],"name":"hasVoted","outputs":[{"internalType":"bool","name":"","type":"bool"}],"stateMutability":"view","type":"function"},{"inputs":[],"name":"nextProposalId","outputs":[{"internalType":"uint256","name":"","type":"uint256"}],"stateMutability":"view","type":"function"},{"inputs":[{"internalType":"uint256","name":"","type":"uint256"}],"name":"proposals","outputs":[{"internalType":"bytes32","name":"descriptionHash","type":"bytes32"},{"internalType":"uint128","name":"votesFor","type":"uint128"},{"internalType":"uint128","name":"votesAgainst","type":"uint128"},{"internalType":"uint64","name":"deadline","type":"uint64"}],"stateMutability":"view","type":"function"},{"inputs":[{"internalType":"uint256","name":"proposalId","type":"uint256"},{"internalType":"bool","name":"support","type":"bool"}],"name":"vote","outputs":[],"stateMutability":"nonpayable","type":"function"}],"evm":{"bytecode":{"linkReferences":{},"object":"60a060405234801562000010575f80fd5b50604051620012f9380380620012f9833981810160405281019062000036919062000111565b6200005267f26089c00d504a4560c01b620000a960201b60201c565b6200006e674afaf1ebd00e91e560c01b620000a960201b60201c565b8073ffffffffffffffffffffffffffffffffffffffff1660808173ffffffffffffffffffffffffffffffffffffffff16815250505062000141565b50565b5f80fd5b5f73ffffffffffffffffffffffffffffffffffffffff82169050919050565b5f620000db82620000b0565b9050919050565b620000ed81620000cf565b8114620000f8575f80fd5b50565b5f815190506200010b81620000e2565b92915050565b5f60208284031215620001295762000128620000ac565b5b5f6200013884828501620000fb565b91505092915050565b608051611191620001685f395f818161026701528181610593015261060101526111915ff3fe608060405234801561000f575f80fd5b5060043610610086575f3560e01c8063438596321161005957806343859632146101155780635df2dcbc14610145578063a6c2660314610163578063c9d27afe1461018157610086565b8063013cf08b1461008a5780631e484e70146100bd5780632542bf06146100db5780632ab09d14146100f7575b5f80fd5b6100a4600480360381019061009f9190610c96565b61019d565b6040516100b49493929190610d25565b60405180910390f35b6100c5610213565b6040516100d29190610d77565b60405180910390f35b6100f560048036038101906100f09190610dba565b61021f565b005b6100ff610562565b60405161010c9190610d77565b60405180910390f35b61012f600480360381019061012a9190610e3f565b610567565b60405161013c9190610e97565b60405180910390f35b61014d610591565b60405161015a9190610f0b565b60405180910390f35b61016b6105b5565b6040516101789190610d77565b60405180910390f35b61019b60048036038101906101969190610f4e565b6105c2565b005b6001602052805f5260405f205f91509050805f015490806001015f9054906101000a90046fffffffffffffffffffffffffffffffff16908060010160109054906101000a90046fffffffffffffffffffffffffffffffff1690806002015f9054906101000a900467ffffffffffffffff16905084565b678ac7230489e8000081565b61023367b4b2473efdd965d660c01b610c5c565b61024767ec06fcd5bc7cd1f960c01b610c5c565b61025b677f4166fcb07b7c2560c01b610c5c565b68056bc75e2d631000007f000000000000000000000000000000000000000000000000000000000000000073ffffffffffffffffffffffffffffffffffffffff166370a08231336040518263ffffffff1660e01b81526004016102be9190610f9b565b602060405180830381865afa1580156102d9573d5f803e3d5ffd5b505050506040513d601f19601f820116820180604052508101906102fd9190610fc8565b10156103495761031767be2b9261556cbff960c01b610c5c565b6040517f2af2bb1a00000000000000000000000000000000000000000000000000000000815260040160405180910390fd5b61035d67274b17012181662360c01b610c5c565b61037167cddbd617c20cae6560c01b610c5c565b610385675c94bef39130047f60c01b610c5c565b5f805f81548092919061039790611020565b9190505590506103b167c87c00e2a7ef482d60c01b610c5c565b60405180608001604052808381526020015f6fffffffffffffffffffffffffffffffff1681526020015f6fffffffffffffffffffffffffffffffff1681526020016203f480426104019190611067565b67ffffffffffffffff1681525060015f8381526020019081526020015f205f820151815f01556020820151816001015f6101000a8154816fffffffffffffffffffffffffffffffff02191690836fffffffffffffffffffffffffffffffff16021790555060408201518160010160106101000a8154816fffffffffffffffffffffffffffffffff02191690836fffffffffffffffffffffffffffffffff1602179055506060820151816002015f6101000a81548167ffffffffffffffff021916908367ffffffffffffffff1602179055509050506104e967438c960d7cd4777c60c01b610c5c565b6104fd67ddd021d75661e05b60c01b610c5c565b807f9e11360c49d21b49588f4e4425c0d0e234aa7206f32c51bd357d570c262ef7238360015f8581526020019081526020015f206002015f9054906101000a900467ffffffffffffffff166040516105569291906110ca565b60405180910390a25050565b5f5481565b6002602052815f5260405f20602052805f5260405f205f915091509054906101000a900460ff1681565b7f000000000000000000000000000000000000000000000000000000000000000081565b68056bc75e2d6310000081565b6105d66712df16846658a1ea60c01b610c5c565b6105ea67a23cdd4ecc560d7560c01b610c5c565b6105fe676d6de4ba29f3c47260c01b610c5c565b5f7f000000000000000000000000000000000000000000000000000000000000000073ffffffffffffffffffffffffffffffffffffffff166370a08231336040518263ffffffff1660e01b81526004016106589190610f9b565b602060405180830381865afa158015610673573d5f803e3d5ffd5b505050506040513d601f19601f820116820180604052508101906106979190610fc8565b90506106ad6739563d7cf0b4751d60c01b610c5c565b6106c1672bdd5abfb6e52a9c60c01b610c5c565b5f54831061070f576106dd671a76aa7bd8d5491160c01b610c5c565b6040517f6f68cda900000000000000000000000000000000000000000000000000000000815260040160405180910390fd5b610723677d2d0fbeae7921a860c01b610c5c565b6107376719d0b77067813a8260c01b610c5c565b61074b67142abca6953eaa7f60c01b610c5c565b6fffffffffffffffffffffffffffffffff80168111156107ab57610779672223886ce583ec4160c01b610c5c565b6040517fa9b0fd1600000000000000000000000000000000000000000000000000000000815260040160405180910390fd5b6107bf67cd42f501152d091760c01b610c5c565b6107d367ca48b2d1c39a996460c01b610c5c565b6107e76718cf55cff7c010f360c01b610c5c565b678ac7230489e8000081101561083d5761080b670bb21de93553e0e760c01b610c5c565b6040517fb6bf7bc600000000000000000000000000000000000000000000000000000000815260040160405180910390fd5b61085167f98cf8f8b6e3c07460c01b610c5c565b6108656789515b72a812782460c01b610c5c565b61087967bafeba2d72ecc4ba60c01b610c5c565b5f60015f8581526020019081526020015f2090506108a1675eab627735b56a5a60c01b610c5c565b6108b567cc6f183c2aa794cd60c01b610c5c565b806002015f9054906101000a900467ffffffffffffffff1667ffffffffffffffff16421115610924576108f2679eff199eca3b3ecc60c01b610c5c565b6040517fe0b8d95f00000000000000000000000000000000000000000000000000000000815260040160405180910390fd5b610938673afff3e43dbb98d960c01b610c5c565b61094c675980d921d830311c60c01b610c5c565b610960674c3c4f4e5e8266ff60c01b610c5c565b60025f8581526020019081526020015f205f3373ffffffffffffffffffffffffffffffffffffffff1673ffffffffffffffffffffffffffffffffffffffff1681526020019081526020015f205f9054906101000a900460ff1615610a04576109d2678135cc471938390c60c01b610c5c565b6040517f3b989be200000000000000000000000000000000000000000000000000000000815260040160405180910390fd5b610a18673af118e912ce55c360c01b610c5c565b610a2c6776b711723fbe3cc460c01b610c5c565b600160025f8681526020019081526020015f205f3373ffffffffffffffffffffffffffffffffffffffff1673ffffffffffffffffffffffffffffffffffffffff1681526020019081526020015f205f6101000a81548160ff021916908315150217905550610aa46755c320d6fe13817c60c01b610c5c565b610ab867e4fb674fe0716be760c01b610c5c565b8215610b4f57610ad2678900a1c32a25fefe60c01b610c5c565b610ae667eac3eb529ee0ee9760c01b610c5c565b81816001015f8282829054906101000a90046fffffffffffffffffffffffffffffffff16610b1491906110f1565b92506101000a8154816fffffffffffffffffffffffffffffffff02191690836fffffffffffffffffffffffffffffffff160217905550610bdd565b610b63675903a6d0b15275bb60c01b610c5c565b610b7767081cbfb6edc907ba60c01b610c5c565b818160010160108282829054906101000a90046fffffffffffffffffffffffffffffffff16610ba691906110f1565b92506101000a8154816fffffffffffffffffffffffffffffffff02191690836fffffffffffffffffffffffffffffffff1602179055505b610bf1676b0789d4a9d3231560c01b610c5c565b610c05673e6fc7d43fd0254960c01b610c5c565b3373ffffffffffffffffffffffffffffffffffffffff16847f7c2de587c00d75474a0c6c6fa96fd3b45dc974cd4e8a75f712bb84c950dce1b58585604051610c4e929190611134565b60405180910390a350505050565b50565b5f80fd5b5f819050919050565b610c7581610c63565b8114610c7f575f80fd5b50565b5f81359050610c9081610c6c565b92915050565b5f60208284031215610cab57610caa610c5f565b5b5f610cb884828501610c82565b91505092915050565b5f819050919050565b610cd381610cc1565b82525050565b5f6fffffffffffffffffffffffffffffffff82169050919050565b610cfd81610cd9565b82525050565b5f67ffffffffffffffff82169050919050565b610d1f81610d03565b82525050565b5f608082019050610d385f830187610cca565b610d456020830186610cf4565b610d526040830185610cf4565b610d5f6060830184610d16565b95945050505050565b610d7181610c63565b82525050565b5f602082019050610d8a5f830184610d68565b92915050565b610d9981610cc1565b8114610da3575f80fd5b50565b5f81359050610db481610d90565b92915050565b5f60208284031215610dcf57610dce610c5f565b5b5f610ddc84828501610da6565b91505092915050565b5f73ffffffffffffffffffffffffffffffffffffffff82169050919050565b5f610e0e82610de5565b9050919050565b610e1e81610e04565b8114610e28575f80fd5b50565b5f81359050610e3981610e15565b92915050565b5f8060408385031215610e5557610e54610c5f565b5b5f610e6285828601610c82565b9250506020610e7385828601610e2b565b9150509250929050565b5f8115159050919050565b610e9181610e7d565b82525050565b5f602082019050610eaa5f830184610e88565b92915050565b5f819050919050565b5f610ed3610ece610ec984610de5565b610eb0565b610de5565b9050919050565b5f610ee482610eb9565b9050919050565b5f610ef582610eda565b9050919050565b610f0581610eeb565b82525050565b5f602082019050610f1e5f830184610efc565b92915050565b610f2d81610e7d565b8114610f37575f80fd5b50565b5f81359050610f4881610f24565b92915050565b5f8060408385031215610f6457610f63610c5f565b5b5f610f7185828601610c82565b9250506020610f8285828601610f3a565b9150509250929050565b610f9581610e04565b82525050565b5f602082019050610fae5f830184610f8c565b92915050565b5f81519050610fc281610c6c565b92915050565b5f60208284031215610fdd57610fdc610c5f565b5b5f610fea84828501610fb4565b91505092915050565b7f4e487b71000000000000000000000000000000000000000000000000000000005f52601160045260245ffd5b5f61102a82610c63565b91507fffffffffffffffffffffffffffffffffffffffffffffffffffffffffffffffff820361105c5761105b610ff3565b5b600182019050919050565b5f61107182610c63565b915061107c83610c63565b925082820190508082111561109457611093610ff3565b5b92915050565b5f6110b46110af6110aa84610d03565b610eb0565b610c63565b9050919050565b6110c48161109a565b82525050565b5f6040820190506110dd5f830185610cca565b6110ea60208301846110bb565b9392505050565b5f6110fb82610cd9565b915061110683610cd9565b925082820190506fffffffffffffffffffffffffffffffff81111561112e5761112d610ff3565b5b92915050565b5f6040820190506111475f830185610e88565b6111546020830184610d68565b939250505056fea2646970667358221220d6f146bc00263e39fc16d0e5f659b665c6e7ba34b33270d7a6f76bce2dbdfd7e64736f6c63430008180033","opcodes":"PUSH1 0xA0 PUSH1 0x40 MSTORE CALLVALUE DUP1 ISZERO PUSH3 0x10 JUMPI PUSH0 DUP1 REVERT JUMPDEST POP PUSH1 0x40 MLOAD PUSH3 0x12F9 CODESIZE SUB DUP1 PUSH3 0x12F9 DUP4 CODECOPY DUP2 DUP2 ADD PUSH1 0x40 MSTORE DUP2 ADD SWAP1 PUSH3 0x36 SWAP2 SWAP1 PUSH3 0x111 JUMP JUMPDEST PUSH3 0x52 PUSH8 0xF26089C00D504A45 PUSH1 0xC0 SHL PUSH3 0xA9 PUSH1 0x20 SHL PUSH1 0x20 SHR JUMP JUMPDEST PUSH3 0x6E PUSH8 0x4AFAF1EBD00E91E5 PUSH1 0xC0 SHL PUSH3 0xA9 PUSH1 0x20 SHL PUSH1 0x20 SHR JUMP JUMPDEST DUP1 PUSH20 0xFFFFFFFFFFFFFFFFFFFFFFFFFFFFFFFFFFFFFFFF AND PUSH1 0x80 DUP2 PUSH20 0xFFFFFFFFFFFFFFFFFFFFFFFFFFFFFFFFFFFFFFFF AND DUP2 MSTORE POP POP POP PUSH3 0x141 JUMP JUMPDEST POP JUMP JUMPDEST PUSH0 DUP1 REVERT JUMPDEST PUSH0 PUSH20 0xFFFFFFFFFFFFFFFFFFFFFFFFFFFFFFFFFFFFFFFF DUP3 AND SWAP1 POP SWAP2 SWAP1 POP JUMP JUMPDEST PUSH0 PUSH3 0xDB DUP3 PUSH3 0xB0 JUMP JUMPDEST SWAP1 POP SWAP2 SWAP1 POP JUMP JUMPDEST PUSH3 0xED DUP2 PUSH3 0xCF JUMP JUMPDEST DUP2 EQ PUSH3 0xF8 JUMPI PUSH0 DUP1 REVERT JUMPDEST POP JUMP JUMPDEST PUSH0 DUP2 MLOAD SWAP1 POP PUSH3 0x10B DUP2 PUSH3 0xE2 JUMP JUMPDEST SWAP3 SWAP2 POP POP JUMP JUMPDEST PUSH0 PUSH1 0x20 DUP3 DUP5 SUB SLT ISZERO PUSH3 0x129 JUMPI PUSH3 0x128 PUSH3 0xAC JUMP JUMPDEST JUMPDEST PUSH0 PUSH3 0x138 DUP5 DUP3 DUP6 ADD PUSH3 0xFB JUMP JUMPDEST SWAP2 POP POP SWAP3 SWAP2 POP POP JUMP JUMPDEST PUSH1 0x80 MLOAD PUSH2 0x1191 PUSH3 0x168 PUSH0 CODECOPY PUSH0 DUP2 DUP2 PUSH2 0x267 ADD MSTORE DUP2 DUP2 PUSH2 0x593 ADD MSTORE PUSH2 0x601 ADD MSTORE PUSH2 0x1191 PUSH0 RETURN INVALID PUSH1 0x80 PUSH1 0x40 MSTORE CALLVALUE DUP1 ISZERO PUSH2 0xF JUMPI PUSH0 DUP1 REVERT JUMPDEST POP PUSH1 0x4 CALLDATASIZE LT PUSH2 0x86 JUMPI PUSH0 CALLDATALOAD PUSH1 0xE0 SHR DUP1 PUSH4 0x43859632 GT PUSH2 0x59 JUMPI DUP1 PUSH4 0x43859632 EQ PUSH2 0x115 JUMPI DUP1 PUSH4 0x5DF2DCBC EQ PUSH2 0x145 JUMPI DUP1 PUSH4 0xA6C26603 EQ PUSH2 0x163 JUMPI DUP1 PUSH4 0xC9D27AFE EQ PUSH2 0x181 JUMPI PUSH2 0x86 JUMP JUMPDEST DUP1 PUSH4 0x13CF08B EQ PUSH2 0x8A JUMPI DUP1 PUSH4 0x1E484E70 EQ PUSH2 0xBD JUMPI DUP1 PUSH4 0x2542BF06 EQ PUSH2 0xDB JUMPI DUP1 PUSH4 0x2AB09D14 EQ PUSH2 0xF7 JUMPI JUMPDEST PUSH0 DUP1 REVERT JUMPDEST PUSH2 0xA4 PUSH1 0x4 DUP1 CALLDATASIZE SUB DUP2 ADD SWAP1 PUSH2 0x9F SWAP2 SWAP1 PUSH2 0xC96 JUMP JUMPDEST PUSH2 0x19D JUMP JUMPDEST PUSH1 0x40 MLOAD PUSH2 0xB4 SWAP5 SWAP4 SWAP3 SWAP2 SWAP1 PUSH2 0xD25 JUMP JUMPDEST PUSH1 0x40 MLOAD DUP1 SWAP2 SUB SWAP1 RETURN JUMPDEST PUSH2 0xC5 PUSH2 0x213 JUMP JUMPDEST PUSH1 0x40 MLOAD PUSH2 0xD2 SWAP2 SWAP1 PUSH2 0xD77 JUMP JUMPDEST PUSH1 0x40 MLOAD DUP1 SWAP2 SUB SWAP1 RETURN JUMPDEST PUSH2 0xF5 PUSH1 0x4 DUP1 CALLDATASIZE SUB DUP2 ADD SWAP1 PUSH2 0xF0 SWAP2 SWAP1 PUSH2 0xDBA JUMP JUMPDEST PUSH2 0x21F JUMP JUMPDEST STOP JUMPDEST PUSH2 0xFF PUSH2 0x562 JUMP JUMPDEST PUSH1 0x40 MLOAD PUSH2 0x10C SWAP2 SWAP1 PUSH2 0xD77 JUMP JUMPDEST PUSH1 0x40 MLOAD DUP1 SWAP2 SUB SWAP1 RETURN JUMPDEST PUSH2 0x12F PUSH1 0x4 DUP1 CALLDATASIZE SUB DUP2 ADD SWAP1 PUSH2 0x12A SWAP2 SWAP1 PUSH2 0xE3F JUMP JUMPDEST PUSH2 0x567 JUMP JUMPDEST PUSH1 0x40 MLOAD PUSH2 0x13C SWAP2 SWAP1 PUSH2 0xE97 JUMP JUMPDEST PUSH1 0x40 MLOAD DUP1 SWAP2 SUB SWAP1 RETURN JUMPDEST PUSH2 0x14D PUSH2 0x591 JUMP JUMPDEST PUSH1 0x40 MLOAD PUSH2 0x15A SWAP2 SWAP1 PUSH2 0xF0B JUMP JUMPDEST PUSH1 0x40 MLOAD DUP1 SWAP2 SUB SWAP1 RETURN JUMPDEST PUSH2 0x16B PUSH2 0x5B5 JUMP JUMPDEST PUSH1 0x40 MLOAD PUSH2 0x178 SWAP2 SWAP1 PUSH2 0xD77 JUMP JUMPDEST PUSH1 0x40 MLOAD DUP1 SWAP2 SUB SWAP1 RETURN JUMPDEST PUSH2 0x19B PUSH1 0x4 DUP1 CALLDATASIZE SUB DUP2 ADD SWAP1 PUSH2 0x196 SWAP2 SWAP1 PUSH2 0xF4E JUMP JUMPDEST PUSH2 0x5C2 JUMP JUMPDEST STOP JUMPDEST PUSH1 0x1 PUSH1 0x20 MSTORE DUP1 PUSH0 MSTORE PUSH1 0x40 PUSH0 KECCAK256 PUSH0 SWAP2 POP SWAP1 POP DUP1 PUSH0 ADD SLOAD SWAP1 DUP1 PUSH1 0x1 ADD PUSH0 SWAP1 SLOAD SWAP1 PUSH2 0x100 EXP SWAP1 DIV PUSH16 0xFFFFFFFFFFFFFFFFFFFFFFFFFFFFFFFF AND SWAP1 DUP1 PUSH1 0x1 ADD PUSH1 0x10 SWAP1 SLOAD SWAP1 PUSH2 0x100 EXP SWAP1 DIV PUSH16 0xFFFFFFFFFFFFFFFFFFFFFFFFFFFFFFFF AND SWAP1 DUP1 PUSH1 0x2 ADD PUSH0 SWAP1 SLOAD SWAP1 PUSH2 0x100 EXP SWAP1 DIV PUSH8 0xFFFFFFFFFFFFFFFF AND SWAP1 POP DUP5 JUMP JUMPDEST PUSH8 0x8AC7230489E80000 DUP2 JUMP JUMPDEST PUSH2 0x233 PUSH8 0xB4B2473EFDD965D6 PUSH1 0xC0 SHL PUSH2 0xC5C JUMP JUMPDEST PUSH2 0x247 PUSH8 0xEC06FCD5BC7CD1F9 PUSH1 0xC0 SHL PUSH2 0xC5C JUMP JUMPDEST PUSH2 0x25B PUSH8 0x7F4166FCB07B7C25 PUSH1 0xC0 SHL PUSH2 0xC5C JUMP JUMPDEST PUSH9 0x56BC75E2D63100000 PUSH32 0x0 PUSH20 0xFFFFFFFFFFFFFFFFFFFFFFFFFFFFFFFFFFFFFFFF AND PUSH4 0x70A08231 CALLER PUSH1 0x40 MLOAD DUP3 PUSH4 0xFFFFFFFF AND PUSH1 0xE0 SHL DUP2 MSTORE PUSH1 0x4 ADD PUSH2 0x2BE SWAP2 SWAP1 PUSH2 0xF9B JUMP JUMPDEST PUSH1 0x20 PUSH1 0x40 MLOAD DUP1 DUP4 SUB DUP2 DUP7 GAS STATICCALL ISZERO DUP1 ISZERO PUSH2 0x2D9 JUMPI RETURNDATASIZE PUSH0 DUP1 RETURNDATACOPY RETURNDATASIZE PUSH0 REVERT JUMPDEST POP POP POP POP PUSH1 0x40 MLOAD RETURNDATASIZE PUSH1 0x1F NOT PUSH1 0x1F DUP3 ADD AND DUP3 ADD DUP1 PUSH1 0x40 MSTORE POP DUP2 ADD SWAP1 PUSH2 0x2FD SWAP2 SWAP1 PUSH2 0xFC8 JUMP JUMPDEST LT ISZERO PUSH2 0x349 JUMPI PUSH2 0x317 PUSH8 0xBE2B9261556CBFF9 PUSH1 0xC0 SHL PUSH2 0xC5C JUMP JUMPDEST PUSH1 0x40 MLOAD PUSH32 0x2AF2BB1A00000000000000000000000000000000000000000000000000000000 DUP2 MSTORE PUSH1 0x4 ADD PUSH1 0x40 MLOAD DUP1 SWAP2 SUB SWAP1 REVERT JUMPDEST PUSH2 0x35D PUSH8 0x274B170121816623 PUSH1 0xC0 SHL PUSH2 0xC5C JUMP JUMPDEST PUSH2 0x371 PUSH8 0xCDDBD617C20CAE65 PUSH1 0xC0 SHL PUSH2 0xC5C JUMP JUMPDEST PUSH2 0x385 PUSH8 0x5C94BEF39130047F PUSH1 0xC0 SHL PUSH2 0xC5C JUMP JUMPDEST PUSH0 DUP1 PUSH0 DUP2 SLOAD DUP1 SWAP3 SWAP2 SWAP1 PUSH2 0x397 SWAP1 PUSH2 0x1020 JUMP JUMPDEST SWAP2 SWAP1 POP SSTORE SWAP1 POP PUSH2 0x3B1 PUSH8 0xC87C00E2A7EF482D PUSH1 0xC0 SHL PUSH2 0xC5C JUMP JUMPDEST PUSH1 0x40 MLOAD DUP1 PUSH1 0x80 ADD PUSH1 0x40 MSTORE DUP1 DUP4 DUP2 MSTORE PUSH1 0x20 ADD PUSH0 PUSH16 0xFFFFFFFFFFFFFFFFFFFFFFFFFFFFFFFF AND DUP2 MSTORE PUSH1 0x20 ADD PUSH0 PUSH16 0xFFFFFFFFFFFFFFFFFFFFFFFFFFFFFFFF AND DUP2 MSTORE PUSH1 0x20 ADD PUSH3 0x3F480 TIMESTAMP PUSH2 0x401 SWAP2 SWAP1 PUSH2 0x1067 JUMP JUMPDEST PUSH8 0xFFFFFFFFFFFFFFFF AND DUP2 MSTORE POP PUSH1 0x1 PUSH0 DUP4 DUP2 MSTORE PUSH1 0x20 ADD SWAP1 DUP2 MSTORE PUSH1 0x20 ADD PUSH0 KECCAK256 PUSH0 DUP3 ADD MLOAD DUP2 PUSH0 ADD SSTORE PUSH1 0x20 DUP3 ADD MLOAD DUP2 PUSH1 0x1 ADD PUSH0 PUSH2 0x100 EXP DUP2 SLOAD DUP2 PUSH16 0xFFFFFFFFFFFFFFFFFFFFFFFFFFFFFFFF MUL NOT AND SWAP1 DUP4 PUSH16 0xFFFFFFFFFFFFFFFFFFFFFFFFFFFFFFFF AND MUL OR SWAP1 SSTORE POP PUSH1 0x40 DUP3 ADD MLOAD DUP2 PUSH1 0x1 ADD PUSH1 0x10 PUSH2 0x100 EXP DUP2 SLOAD DUP2 PUSH16 0xFFFFFFFFFFFFFFFFFFFFFFFFFFFFFFFF MUL NOT AND SWAP1 DUP4 PUSH16 0xFFFFFFFFFFFFFFFFFFFFFFFFFFFFFFFF AND MUL OR SWAP1 SSTORE POP PUSH1 0x60 DUP3 ADD MLOAD DUP2 PUSH1 0x2 ADD PUSH0 PUSH2 0x100 EXP DUP2 SLOAD DUP2 PUSH8 0xFFFFFFFFFFFFFFFF MUL NOT AND SWAP1 DUP4 PUSH8 0xFFFFFFFFFFFFFFFF AND MUL OR SWAP1 SSTORE POP SWAP1 POP POP PUSH2 0x4E9 PUSH8 0x438C960D7CD4777C PUSH1 0xC0 SHL PUSH2 0xC5C JUMP JUMPDEST PUSH2 0x4FD PUSH8 0xDDD021D75661E05B PUSH1 0xC0 SHL PUSH2 0xC5C JUMP JUMPDEST DUP1 PUSH32 0x9E11360C49D21B49588F4E4425C0D0E234AA7206F32C51BD357D570C262EF723 DUP4 PUSH1 0x1 PUSH0 DUP6 DUP2 MSTORE PUSH1 0x20 ADD SWAP1 DUP2 MSTORE PUSH1 0x20 ADD PUSH0 KECCAK256 PUSH1 0x2 ADD PUSH0 SWAP1 SLOAD SWAP1 PUSH2 0x100 EXP SWAP1 DIV PUSH8 0xFFFFFFFFFFFFFFFF AND PUSH1 0x40 MLOAD PUSH2 0x556 SWAP3 SWAP2 SWAP1 PUSH2 0x10CA JUMP JUMPDEST PUSH1 0x40 MLOAD DUP1 SWAP2 SUB SWAP1 LOG2 POP POP JUMP JUMPDEST PUSH0 SLOAD DUP2 JUMP JUMPDEST PUSH1 0x2 PUSH1 0x20 MSTORE DUP2 PUSH0 MSTORE PUSH1 0x40 PUSH0 KECCAK256 PUSH1 0x20 MSTORE DUP1 PUSH0 MSTORE PUSH1 0x40 PUSH0 KECCAK256 PUSH0 SWAP2 POP SWAP2 POP SWAP1 SLOAD SWAP1 PUSH2 0x100 EXP SWAP1 DIV PUSH1 0xFF AND DUP2 JUMP JUMPDEST PUSH32 0x0 DUP2 JUMP JUMPDEST PUSH9 0x56BC75E2D63100000 DUP2 JUMP JUMPDEST PUSH2 0x5D6 PUSH8 0x12DF16846658A1EA PUSH1 0xC0 SHL PUSH2 0xC5C JUMP JUMPDEST PUSH2 0x5EA PUSH8 0xA23CDD4ECC560D75 PUSH1 0xC0 SHL PUSH2 0xC5C JUMP JUMPDEST PUSH2 0x5FE PUSH8 0x6D6DE4BA29F3C472 PUSH1 0xC0 SHL PUSH2 0xC5C JUMP JUMPDEST PUSH0 PUSH32 0x0 PUSH20 0xFFFFFFFFFFFFFFFFFFFFFFFFFFFFFFFFFFFFFFFF AND PUSH4 0x70A08231 CALLER PUSH1 0x40 MLOAD DUP3 PUSH4 0xFFFFFFFF AND PUSH1 0xE0 SHL DUP2 MSTORE PUSH1 0x4 ADD PUSH2 0x658 SWAP2 SWAP1 PUSH2 0xF9B JUMP JUMPDEST PUSH1 0x20 PUSH1 0x40 MLOAD DUP1 DUP4 SUB DUP2 DUP7 GAS STATICCALL ISZERO DUP1 ISZERO PUSH2 0x673 JUMPI RETURNDATASIZE PUSH0 DUP1 RETURNDATACOPY RETURNDATASIZE PUSH0 REVERT JUMPDEST POP POP POP POP PUSH1 0x40 MLOAD RETURNDATASIZE PUSH1 0x1F NOT PUSH1 0x1F DUP3 ADD AND DUP3 ADD DUP1 PUSH1 0x40 MSTORE POP DUP2 ADD SWAP1 PUSH2 0x697 SWAP2 SWAP1 PUSH2 0xFC8 JUMP JUMPDEST SWAP1 POP PUSH2 0x6AD PUSH8 0x39563D7CF0B4751D PUSH1 0xC0 SHL PUSH2 0xC5C JUMP JUMPDEST PUSH2 0x6C1 PUSH8 0x2BDD5ABFB6E52A9C PUSH1 0xC0 SHL PUSH2 0xC5C JUMP JUMPDEST PUSH0 SLOAD DUP4 LT PUSH2 0x70F JUMPI PUSH2 0x6DD PUSH8 0x1A76AA7BD8D54911 PUSH1 0xC0 SHL PUSH2 0xC5C JUMP JUMPDEST PUSH1 0x40 MLOAD PUSH32 0x6F68CDA900000000000000000000000000000000000000000000000000000000 DUP2 MSTORE PUSH1 0x4 ADD PUSH1 0x40 MLOAD DUP1 SWAP2 SUB SWAP1 REVERT JUMPDEST PUSH2 0x723 PUSH8 0x7D2D0FBEAE7921A8 PUSH1 0xC0 SHL PUSH2 0xC5C JUMP JUMPDEST PUSH2 0x737 PUSH8 0x19D0B77067813A82 PUSH1 0xC0 SHL PUSH2 0xC5C JUMP JUMPDEST PUSH2 0x74B PUSH8 0x142ABCA6953EAA7F PUSH1 0xC0 SHL PUSH2 0xC5C JUMP JUMPDEST PUSH16 0xFFFFFFFFFFFFFFFFFFFFFFFFFFFFFFFF DUP1 AND DUP2 GT ISZERO PUSH2 0x7AB JUMPI PUSH2 0x779 PUSH8 0x2223886CE583EC41 PUSH1 0xC0 SHL PUSH2 0xC5C JUMP JUMPDEST PUSH1 0x40 MLOAD PUSH32 0xA9B0FD1600000000000000000000000000000000000000000000000000000000 DUP2 MSTORE PUSH1 0x4 ADD PUSH1 0x40 MLOAD DUP1 SWAP2 SUB SWAP1 REVERT JUMPDEST PUSH2 0x7BF PUSH8 0xCD42F501152D0917 PUSH1 0xC0 SHL PUSH2 0xC5C JUMP JUMPDEST PUSH2 0x7D3 PUSH8 0xCA48B2D1C39A9964 PUSH1 0xC0 SHL PUSH2 0xC5C JUMP JUMPDEST PUSH2 0x7E7 PUSH8 0x18CF55CFF7C010F3 PUSH1 0xC0 SHL PUSH2 0xC5C JUMP JUMPDEST PUSH8 0x8AC7230489E80000 DUP2 LT ISZERO PUSH2 0x83D JUMPI PUSH2 0x80B PUSH8 0xBB21DE93553E0E7 PUSH1 0xC0 SHL PUSH2 0xC5C JUMP JUMPDEST PUSH1 0x40 MLOAD PUSH32 0xB6BF7BC600000000000000000000000000000000000000000000000000000000 DUP2 MSTORE PUSH1 0x4 ADD PUSH1 0x40 MLOAD DUP1 SWAP2 SUB SWAP1 REVERT JUMPDEST PUSH2 0x851 PUSH8 0xF98CF8F8B6E3C074 PUSH1 0xC0 SHL PUSH2 0xC5C JUMP JUMPDEST PUSH2 0x865 PUSH8 0x89515B72A8127824 PUSH1 0xC0 SHL PUSH2 0xC5C JUMP JUMPDEST PUSH2 0x879 PUSH8 0xBAFEBA2D72ECC4BA PUSH1 0xC0 SHL PUSH2 0xC5C JUMP JUMPDEST PUSH0 PUSH1 0x1 PUSH0 DUP6 DUP2 MSTORE PUSH1 0x20 ADD SWAP1 DUP2 MSTORE PUSH1 0x20 ADD PUSH0 KECCAK256 SWAP1 POP PUSH2 0x8A1 PUSH8 0x5EAB627735B56A5A PUSH1 0xC0 SHL PUSH2 0xC5C JUMP JUMPDEST PUSH2 0x8B5 PUSH8 0xCC6F183C2AA794CD PUSH1 0xC0 SHL PUSH2 0xC5C JUMP JUMPDEST DUP1 PUSH1 0x2 ADD PUSH0 SWAP1 SLOAD SWAP1 PUSH2 0x100 EXP SWAP1 DIV PUSH8 0xFFFFFFFFFFFFFFFF AND PUSH8 0xFFFFFFFFFFFFFFFF AND TIMESTAMP GT ISZERO PUSH2 0x924 JUMPI PUSH2 0x8F2 PUSH8 0x9EFF199ECA3B3ECC PUSH1 0xC0 SHL PUSH2 0xC5C JUMP JUMPDEST PUSH1 0x40 MLOAD PUSH32 0xE0B8D95F00000000000000000000000000000000000000000000000000000000 DUP2 MSTORE PUSH1 0x4 ADD PUSH1 0x40 MLOAD DUP1 SWAP2 SUB SWAP1 REVERT JUMPDEST PUSH2 0x938 PUSH8 0x3AFFF3E43DBB98D9 PUSH1 0xC0 SHL PUSH2 0xC5C JUMP JUMPDEST PUSH2 0x94C PUSH8 0x5980D921D830311C PUSH1 0xC0 SHL PUSH2 0xC5C JUMP JUMPDEST PUSH2 0x960 PUSH8 0x4C3C4F4E5E8266FF PUSH1 0xC0 SHL PUSH2 0xC5C JUMP JUMPDEST PUSH1 0x2 PUSH0 DUP6 DUP2 MSTORE PUSH1 0x20 ADD SWAP1 DUP2 MSTORE PUSH1 0x20 ADD PUSH0 KECCAK256 PUSH0 CALLER PUSH20 0xFFFFFFFFFFFFFFFFFFFFFFFFFFFFFFFFFFFFFFFF AND PUSH20 0xFFFFFFFFFFFFFFFFFFFFFFFFFFFFFFFFFFFFFFFF AND DUP2 MSTORE PUSH1 0x20 ADD SWAP1 DUP2 MSTORE PUSH1 0x20 ADD PUSH0 KECCAK256 PUSH0 SWAP1 SLOAD SWAP1 PUSH2 0x100 EXP SWAP1 DIV PUSH1 0xFF AND ISZERO PUSH2 0xA04 JUMPI PUSH2 0x9D2 PUSH8 0x8135CC471938390C PUSH1 0xC0 SHL PUSH2 0xC5C JUMP JUMPDEST PUSH1 0x40 MLOAD PUSH32 0x3B989BE200000000000000000000000000000000000000000000000000000000 DUP2 MSTORE PUSH1 0x4 ADD PUSH1 0x40 MLOAD DUP1 SWAP2 SUB SWAP1 REVERT JUMPDEST PUSH2 0xA18 PUSH8 0x3AF118E912CE55C3 PUSH1 0xC0 SHL PUSH2 0xC5C JUMP JUMPDEST PUSH2 0xA2C PUSH8 0x76B711723FBE3CC4 PUSH1 0xC0 SHL PUSH2 0xC5C JUMP JUMPDEST PUSH1 0x1 PUSH1 0x2 PUSH0 DUP7 DUP2 MSTORE PUSH1 0x20 ADD SWAP1 DUP2 MSTORE PUSH1 0x20 ADD PUSH0 KECCAK256 PUSH0 CALLER PUSH20 0xFFFFFFFFFFFFFFFFFFFFFFFFFFFFFFFFFFFFFFFF AND PUSH20 0xFFFFFFFFFFFFFFFFFFFFFFFFFFFFFFFFFFFFFFFF AND DUP2 MSTORE PUSH1 0x20 ADD SWAP1 DUP2 MSTORE PUSH1 0x20 ADD PUSH0 KECCAK256 PUSH0 PUSH2 0x100 EXP DUP2 SLOAD DUP2 PUSH1 0xFF MUL NOT AND SWAP1 DUP4 ISZERO ISZERO MUL OR SWAP1 SSTORE POP PUSH2 0xAA4 PUSH8 0x55C320D6FE13817C PUSH1 0xC0 SHL PUSH2 0xC5C JUMP JUMPDEST PUSH2 0xAB8 PUSH8 0xE4FB674FE0716BE7 PUSH1 0xC0 SHL PUSH2 0xC5C JUMP JUMPDEST DUP3 ISZERO PUSH2 0xB4F JUMPI PUSH2 0xAD2 PUSH8 0x8900A1C32A25FEFE PUSH1 0xC0 SHL PUSH2 0xC5C JUMP JUMPDEST PUSH2 0xAE6 PUSH8 0xEAC3EB529EE0EE97 PUSH1 0xC0 SHL PUSH2 0xC5C JUMP JUMPDEST DUP2 DUP2 PUSH1 0x1 ADD PUSH0 DUP3 DUP3 DUP3 SWAP1 SLOAD SWAP1 PUSH2 0x100 EXP SWAP1 DIV PUSH16 0xFFFFFFFFFFFFFFFFFFFFFFFFFFFFFFFF AND PUSH2 0xB14 SWAP2 SWAP1 PUSH2 0x10F1 JUMP JUMPDEST SWAP3 POP PUSH2 0x100 EXP DUP2 SLOAD DUP2 PUSH16 0xFFFFFFFFFFFFFFFFFFFFFFFFFFFFFFFF MUL NOT AND SWAP1 DUP4 PUSH16 0xFFFFFFFFFFFFFFFFFFFFFFFFFFFFFFFF AND MUL OR SWAP1 SSTORE POP PUSH2 0xBDD JUMP JUMPDEST PUSH2 0xB63 PUSH8 0x5903A6D0B15275BB PUSH1 0xC0 SHL PUSH2 0xC5C JUMP JUMPDEST PUSH2 0xB77 PUSH8 0x81CBFB6EDC907BA PUSH1 0xC0 SHL PUSH2 0xC5C JUMP JUMPDEST DUP2 DUP2 PUSH1 0x1 ADD PUSH1 0x10 DUP3 DUP3 DUP3 SWAP1 SLOAD SWAP1 PUSH2 0x100 EXP SWAP1 DIV PUSH16 0xFFFFFFFFFFFFFFFFFFFFFFFFFFFFFFFF AND PUSH2 0xBA6 SWAP2 SWAP1 PUSH2 0x10F1 JUMP JUMPDEST SWAP3 POP PUSH2 0x100 EXP DUP2 SLOAD DUP2 PUSH16 0xFFFFFFFFFFFFFFFFFFFFFFFFFFFFFFFF MUL NOT AND SWAP1 DUP4 PUSH16 0xFFFFFFFFFFFFFFFFFFFFFFFFFFFFFFFF AND MUL OR SWAP1 SSTORE POP JUMPDEST PUSH2 0xBF1 PUSH8 0x6B0789D4A9D32315 PUSH1 0xC0 SHL PUSH2 0xC5C JUMP JUMPDEST PUSH2 0xC05 PUSH8 0x3E6FC7D43FD02549 PUSH1 0xC0 SHL PUSH2 0xC5C JUMP JUMPDEST CALLER PUSH20 0xFFFFFFFFFFFFFFFFFFFFFFFFFFFFFFFFFFFFFFFF AND DUP5 PUSH32 0x7C2DE587C00D75474A0C6C6FA96FD3B45DC974CD4E8A75F712BB84C950DCE1B5 DUP6 DUP6 PUSH1 0x40 MLOAD PUSH2 0xC4E SWAP3 SWAP2 SWAP1 PUSH2 0x1134 JUMP JUMPDEST PUSH1 0x40 MLOAD DUP1 SWAP2 SUB SWAP1 LOG3 POP POP POP POP JUMP JUMPDEST POP JUMP JUMPDEST PUSH0 DUP1 REVERT JUMPDEST PUSH0 DUP2 SWAP1 POP SWAP2 SWAP1 POP JUMP JUMPDEST PUSH2 0xC75 DUP2 PUSH2 0xC63 JUMP JUMPDEST DUP2 EQ PUSH2 0xC7F JUMPI PUSH0 DUP1 REVERT JUMPDEST POP JUMP JUMPDEST PUSH0 DUP2 CALLDATALOAD SWAP1 POP PUSH2 0xC90 DUP2 PUSH2 0xC6C JUMP JUMPDEST SWAP3 SWAP2 POP POP JUMP JUMPDEST PUSH0 PUSH1 0x20 DUP3 DUP5 SUB SLT ISZERO PUSH2 0xCAB JUMPI PUSH2 0xCAA PUSH2 0xC5F JUMP JUMPDEST JUMPDEST PUSH0 PUSH2 0xCB8 DUP5 DUP3 DUP6 ADD PUSH2 0xC82 JUMP JUMPDEST SWAP2 POP POP SWAP3 SWAP2 POP POP JUMP JUMPDEST PUSH0 DUP2 SWAP1 POP SWAP2 SWAP1 POP JUMP JUMPDEST PUSH2 0xCD3 DUP2 PUSH2 0xCC1 JUMP JUMPDEST DUP3 MSTORE POP POP JUMP JUMPDEST PUSH0 PUSH16 0xFFFFFFFFFFFFFFFFFFFFFFFFFFFFFFFF DUP3 AND SWAP1 POP SWAP2 SWAP1 POP JUMP JUMPDEST PUSH2 0xCFD DUP2 PUSH2 0xCD9 JUMP JUMPDEST DUP3 MSTORE POP POP JUMP JUMPDEST PUSH0 PUSH8 0xFFFFFFFFFFFFFFFF DUP3 AND SWAP1 POP SWAP2 SWAP1 POP JUMP JUMPDEST PUSH2 0xD1F DUP2 PUSH2 0xD03 JUMP JUMPDEST DUP3 MSTORE POP POP JUMP JUMPDEST PUSH0 PUSH1 0x80 DUP3 ADD SWAP1 POP PUSH2 0xD38 PUSH0 DUP4 ADD DUP8 PUSH2 0xCCA JUMP JUMPDEST PUSH2 0xD45 PUSH1 0x20 DUP4 ADD DUP7 PUSH2 0xCF4 JUMP JUMPDEST PUSH2 0xD52 PUSH1 0x40 DUP4 ADD DUP6 PUSH2 0xCF4 JUMP JUMPDEST PUSH2 0xD5F PUSH1 0x60 DUP4 ADD DUP5 PUSH2 0xD16 JUMP JUMPDEST SWAP6 SWAP5 POP POP POP POP POP JUMP JUMPDEST PUSH2 0xD71 DUP2 PUSH2 0xC63 JUMP JUMPDEST DUP3 MSTORE POP POP JUMP JUMPDEST PUSH0 PUSH1 0x20 DUP3 ADD SWAP1 POP PUSH2 0xD8A PUSH0 DUP4 ADD DUP5 PUSH2 0xD68 JUMP JUMPDEST SWAP3 SWAP2 POP POP JUMP JUMPDEST PUSH2 0xD99 DUP2 PUSH2 0xCC1 JUMP JUMPDEST DUP2 EQ PUSH2 0xDA3 JUMPI PUSH0 DUP1 REVERT JUMPDEST POP JUMP JUMPDEST PUSH0 DUP2 CALLDATALOAD SWAP1 POP PUSH2 0xDB4 DUP2 PUSH2 0xD90 JUMP JUMPDEST SWAP3 SWAP2 POP POP JUMP JUMPDEST PUSH0 PUSH1 0x20 DUP3 DUP5 SUB SLT ISZERO PUSH2 0xDCF JUMPI PUSH2 0xDCE PUSH2 0xC5F JUMP JUMPDEST JUMPDEST PUSH0 PUSH2 0xDDC DUP5 DUP3 DUP6 ADD PUSH2 0xDA6 JUMP JUMPDEST SWAP2 POP POP SWAP3 SWAP2 POP POP JUMP JUMPDEST PUSH0 PUSH20 0xFFFFFFFFFFFFFFFFFFFFFFFFFFFFFFFFFFFFFFFF DUP3 AND SWAP1 POP SWAP2 SWAP1 POP JUMP JUMPDEST PUSH0 PUSH2 0xE0E DUP3 PUSH2 0xDE5 JUMP JUMPDEST SWAP1 POP SWAP2 SWAP1 POP JUMP JUMPDEST PUSH2 0xE1E DUP2 PUSH2 0xE04 JUMP JUMPDEST DUP2 EQ PUSH2 0xE28 JUMPI PUSH0 DUP1 REVERT JUMPDEST POP JUMP JUMPDEST PUSH0 DUP2 CALLDATALOAD SWAP1 POP PUSH2 0xE39 DUP2 PUSH2 0xE15 JUMP JUMPDEST SWAP3 SWAP2 POP POP JUMP JUMPDEST PUSH0 DUP1 PUSH1 0x40 DUP4 DUP6 SUB SLT ISZERO PUSH2 0xE55 JUMPI PUSH2 0xE54 PUSH2 0xC5F JUMP JUMPDEST JUMPDEST PUSH0 PUSH2 0xE62 DUP6 DUP3 DUP7 ADD PUSH2 0xC82 JUMP JUMPDEST SWAP3 POP POP PUSH1 0x20 PUSH2 0xE73 DUP6 DUP3 DUP7 ADD PUSH2 0xE2B JUMP JUMPDEST SWAP2 POP POP SWAP3 POP SWAP3 SWAP1 POP JUMP JUMPDEST PUSH0 DUP2 ISZERO ISZERO SWAP1 POP SWAP2 SWAP1 POP JUMP JUMPDEST PUSH2 0xE91 DUP2 PUSH2 0xE7D JUMP JUMPDEST DUP3 MSTORE POP POP JUMP JUMPDEST PUSH0 PUSH1 0x20 DUP3 ADD SWAP1 POP PUSH2 0xEAA PUSH0 DUP4 ADD DUP5 PUSH2 0xE88 JUMP JUMPDEST SWAP3 SWAP2 POP POP JUMP JUMPDEST PUSH0 DUP2 SWAP1 POP SWAP2 SWAP1 POP JUMP JUMPDEST PUSH0 PUSH2 0xED3 PUSH2 0xECE PUSH2 0xEC9 DUP5 PUSH2 0xDE5 JUMP JUMPDEST PUSH2 0xEB0 JUMP JUMPDEST PUSH2 0xDE5 JUMP JUMPDEST SWAP1 POP SWAP2 SWAP1 POP JUMP JUMPDEST PUSH0 PUSH2 0xEE4 DUP3 PUSH2 0xEB9 JUMP JUMPDEST SWAP1 POP SWAP2 SWAP1 POP JUMP JUMPDEST PUSH0 PUSH2 0xEF5 DUP3 PUSH2 0xEDA JUMP JUMPDEST SWAP1 POP SWAP2 SWAP1 POP JUMP JUMPDEST PUSH2 0xF05 DUP2 PUSH2 0xEEB JUMP JUMPDEST DUP3 MSTORE POP POP JUMP JUMPDEST PUSH0 PUSH1 0x20 DUP3 ADD SWAP1 POP PUSH2 0xF1E PUSH0 DUP4 ADD DUP5 PUSH2 0xEFC JUMP JUMPDEST SWAP3 SWAP2 POP POP JUMP JUMPDEST PUSH2 0xF2D DUP2 PUSH2 0xE7D JUMP JUMPDEST DUP2 EQ PUSH2 0xF37 JUMPI PUSH0 DUP1 REVERT JUMPDEST POP JUMP JUMPDEST PUSH0 DUP2 CALLDATALOAD SWAP1 POP PUSH2 0xF48 DUP2 PUSH2 0xF24 JUMP JUMPDEST SWAP3 SWAP2 POP POP JUMP JUMPDEST PUSH0 DUP1 PUSH1 0x40 DUP4 DUP6 SUB SLT ISZERO PUSH2 0xF64 JUMPI PUSH2 0xF63 PUSH2 0xC5F JUMP JUMPDEST JUMPDEST PUSH0 PUSH2 0xF71 DUP6 DUP3 DUP7 ADD PUSH2 0xC82 JUMP JUMPDEST SWAP3 POP POP PUSH1 0x20 PUSH2 0xF82 DUP6 DUP3 DUP7 ADD PUSH2 0xF3A JUMP JUMPDEST SWAP2 POP POP SWAP3 POP SWAP3 SWAP1 POP JUMP JUMPDEST PUSH2 0xF95 DUP2 PUSH2 0xE04 JUMP JUMPDEST DUP3 MSTORE POP POP JUMP JUMPDEST PUSH0 PUSH1 0x20 DUP3 ADD SWAP1 POP PUSH2 0xFAE PUSH0 DUP4 ADD DUP5 PUSH2 0xF8C JUMP JUMPDEST SWAP3 SWAP2 POP POP JUMP JUMPDEST PUSH0 DUP2 MLOAD SWAP1 POP PUSH2 0xFC2 DUP2 PUSH2 0xC6C JUMP JUMPDEST SWAP3 SWAP2 POP POP JUMP JUMPDEST PUSH0 PUSH1 0x20 DUP3 DUP5 SUB SLT ISZERO PUSH2 0xFDD JUMPI PUSH2 0xFDC PUSH2 0xC5F JUMP JUMPDEST JUMPDEST PUSH0 PUSH2 0xFEA DUP5 DUP3 DUP6 ADD PUSH2 0xFB4 JUMP JUMPDEST SWAP2 POP POP SWAP3 SWAP2 POP POP JUMP JUMPDEST PUSH32 0x4E487B7100000000000000000000000000000000000000000000000000000000 PUSH0 MSTORE PUSH1 0x11 PUSH1 0x4 MSTORE PUSH1 0x24 PUSH0 REVERT JUMPDEST PUSH0 PUSH2 0x102A DUP3 PUSH2 0xC63 JUMP JUMPDEST SWAP2 POP PUSH32 0xFFFFFFFFFFFFFFFFFFFFFFFFFFFFFFFFFFFFFFFFFFFFFFFFFFFFFFFFFFFFFFFF DUP3 SUB PUSH2 0x105C JUMPI PUSH2 0x105B PUSH2 0xFF3 JUMP JUMPDEST JUMPDEST PUSH1 0x1 DUP3 ADD SWAP1 POP SWAP2 SWAP1 POP JUMP JUMPDEST PUSH0 PUSH2 0x1071 DUP3 PUSH2 0xC63 JUMP JUMPDEST SWAP2 POP PUSH2 0x107C DUP4 PUSH2 0xC63 JUMP JUMPDEST SWAP3 POP DUP3 DUP3 ADD SWAP1 POP DUP1 DUP3 GT ISZERO PUSH2 0x1094 JUMPI PUSH2 0x1093 PUSH2 0xFF3 JUMP JUMPDEST JUMPDEST SWAP3 SWAP2 POP POP JUMP JUMPDEST PUSH0 PUSH2 0x10B4 PUSH2 0x10AF PUSH2 0x10AA DUP5 PUSH2 0xD03 JUMP JUMPDEST PUSH2 0xEB0 JUMP JUMPDEST PUSH2 0xC63 JUMP JUMPDEST SWAP1 POP SWAP2 SWAP1 POP JUMP JUMPDEST PUSH2 0x10C4 DUP2 PUSH2 0x109A JUMP JUMPDEST DUP3 MSTORE POP POP JUMP JUMPDEST PUSH0 PUSH1 0x40 DUP3 ADD SWAP1 POP PUSH2 0x10DD PUSH0 DUP4 ADD DUP6 PUSH2 0xCCA JUMP JUMPDEST PUSH2 0x10EA PUSH1 0x20 DUP4 ADD DUP5 PUSH2 0x10BB JUMP JUMPDEST SWAP4 SWAP3 POP POP POP JUMP JUMPDEST PUSH0 PUSH2 0x10FB DUP3 PUSH2 0xCD9 JUMP JUMPDEST SWAP2 POP PUSH2 0x1106 DUP4 PUSH2 0xCD9 JUMP JUMPDEST SWAP3 POP DUP3 DUP3 ADD SWAP1 POP PUSH16 0xFFFFFFFFFFFFFFFFFFFFFFFFFFFFFFFF DUP2 GT ISZERO PUSH2 0x112E JUMPI PUSH2 0x112D PUSH2 0xFF3 JUMP JUMPDEST JUMPDEST SWAP3 SWAP2 POP POP JUMP JUMPDEST PUSH0 PUSH1 0x40 DUP3 ADD SWAP1 POP PUSH2 0x1147 PUSH0 DUP4 ADD DUP6 PUSH2 0xE88 JUMP JUMPDEST PUSH2 0x1154 PUSH1 0x20 DUP4 ADD DUP5 PUSH2 0xD68 JUMP JUMPDEST SWAP4 SWAP3 POP POP POP JUMP INVALID LOG2 PUSH5 0x6970667358 0x22 SLT KECCAK256 0xD6 CALL CHAINID 0xBC STOP 0x26 RETURNDATACOPY CODECOPY 0xFC AND 0xD0 0xE5 0xF6 MSIZE 0xB6 PUSH6 0xC6E7BA34B332 PUSH17 0xD7A6F76BCE2DBDFD7E64736F6C63430008 XOR STOP CALLER "},"methodIdentifiers":{"EDU_TOKEN()":"5df2dcbc","MIN_VOTE_POWER()":"1e484e70","PROPOSAL_THRESHOLD()":"a6c26603","createProposal(bytes32)":"2542bf06","hasVoted(uint256,address)":"43859632","nextProposalId()":"2ab09d14","proposals(uint256)":"013cf08b","vote(uint256,bool)":"c9d27afe"}}}}}