{
  "_format": "hh-sol-artifact-1",
  "contractName": "EduStaking",
  "sourceName": "src/staking/EduStaking.sol",
  "abi": [
    {
      "inputs": [
        {
          "internalType": "address",
          "name": "_badge",
          "type": "address"
        },
        {
          "internalType": "address",
          "name": "_token",
          "type": "address"
        },
        {
          "internalType": "address",
          "name": "_priceFeed",
          "type": "address"
        }
      ],
      "stateMutability": "nonpayable",
      "type": "constructor"
    },
    {
      "inputs": [],
      "name": "EduStaking__InvalidPrice",
      "type": "error"
    },
    {
      "inputs": [],
      "name": "EduStaking__NotOwnerOfNFT",
      "type": "error"
    },
    {
      "inputs": [],
      "name": "EduStaking__StakingTimeNotMet",
      "type": "error"
    },
    {
      "inputs": [],
      "name": "ReentrancyGuardReentrantCall",
      "type": "error"
    },
    {
      "anonymous": false,
      "inputs": [
        {
          "indexed": true,
          "internalType": "address",
          "name": "user",
          "type": "address"
        },
        {
          "indexed": true,
          "internalType": "uint256",
          "name": "tokenId",
          "type": "uint256"
        }
      ],
      "name": "Staked",
      "type": "event"
    },
    {
      "anonymous": false,
      "inputs": [
        {
          "indexed": true,
          "internalType": "address",
          "name": "user",
          "type": "address"
        },
        {
          "indexed": true,
          "internalType": "uint256",
          "name": "tokenId",
          "type": "uint256"
        },
        {
          "indexed": false,
          "internalType": "uint256",
          "name": "reward",
          "type": "uint256"
        }
      ],
      "name": "Unstaked",
      "type": "event"
    },
    {
      "inputs": [],
      "name": "BASE_REWARD_RATE",
      "outputs": [
        {
          "internalType": "uint256",
          "name": "",
          "type": "uint256"
        }
      ],
      "stateMutability": "view",
      "type": "function"
    },
    {
      "inputs": [],
      "name": "BONUS_MULTIPLIER",
      "outputs": [
        {
          "internalType": "uint256",
          "name": "",
          "type": "uint256"
        }
      ],
      "stateMutability": "view",
      "type": "function"
    },
    {
      "inputs": [],
      "name": "EDU_TOKEN",
      "outputs": [
        {
          "internalType": "contract IEduToken",
          "name": "",
          "type": "address"
        }
      ],
      "stateMutability": "view",
      "type": "function"
    },
    {
      "inputs": [],
      "name": "ETH_PRICE_THRESHOLD",
      "outputs": [
        {
          "internalType": "int256",
          "name": "",
          "type": "int256"
        }
      ],
      "stateMutability": "view",
      "type": "function"
    },
    {
      "inputs": [],
      "name": "MIN_STAKING_TIME",
      "outputs": [
        {
          "internalType": "uint256",
          "name": "",
          "type": "uint256"
        }
      ],
      "stateMutability": "view",
      "type": "function"
    },
    {
      "inputs": [],
      "name": "PRICE_FEED",
      "outputs": [
        {
          "internalType": "contract IAggregatorV3",
          "name": "",
          "type": "address"
        }
      ],
      "stateMutability": "view",
      "type": "function"
    },
    {
      "inputs": [],
      "name": "STUDENT_BADGE",
      "outputs": [
        {
          "internalType": "contract IERC721",
          "name": "",
          "type": "address"
        }
      ],
      "stateMutability": "view",
      "type": "function"
    },
    {
      "inputs": [
        {
          "internalType": "uint256",
          "name": "tokenId",
          "type": "uint256"
        }
      ],
      "name": "calculateReward",
      "outputs": [
        {
          "internalType": "uint256",
          "name": "",
          "type": "uint256"
        }
      ],
      "stateMutability": "view",
      "type": "function"
    },
    {
      "inputs": [
        {
          "internalType": "uint256",
          "name": "tokenId",
          "type": "uint256"
        }
      ],
      "name": "stake",
      "outputs": [],
      "stateMutability": "nonpayable",
      "type": "function"
    },
    {
      "inputs": [
        {
          "internalType": "uint256",
          "name": "",
          "type": "uint256"
        }
      ],
      "name": "stakes",
      "outputs": [
        {
          "internalType": "address",
          "name": "owner",
          "type": "address"
        },
        {
          "internalType": "uint64",
          "name": "timestamp",
          "type": "uint64"
        }
      ],
      "stateMutability": "view",
      "type": "function"
    },
    {
      "inputs": [
        {
          "internalType": "uint256",
          "name": "tokenId",
          "type": "uint256"
        }
      ],
      "name": "unstake",
      "outputs": [],
      "stateMutability": "nonpayable",
      "type": "function"
    }
  ],
  "bytecode": "0x60e060405234801562000010575f80fd5b506040516200186e3803806200186e83398181016040528101906200003691906200020d565b6001620000586200004c6200017360201b60201c565b6200019c60201b60201c565b5f01819055506200007a67b69449e5463bb92260c01b620001a560201b60201c565b6200009667d86d02eea71e142460c01b620001a560201b60201c565b8273ffffffffffffffffffffffffffffffffffffffff1660808173ffffffffffffffffffffffffffffffffffffffff1681525050620000e667aa53f5073ccb547b60c01b620001a560201b60201c565b8173ffffffffffffffffffffffffffffffffffffffff1660a08173ffffffffffffffffffffffffffffffffffffffff168152505062000136679d017498892fe28060c01b620001a560201b60201c565b8073ffffffffffffffffffffffffffffffffffffffff1660c08173ffffffffffffffffffffffffffffffffffffffff168152505050505062000266565b5f7f9b779b17422d0df92223018b32b4d1fa46e071723d6817e2486d003becc55f005f1b905090565b5f819050919050565b50565b5f80fd5b5f73ffffffffffffffffffffffffffffffffffffffff82169050919050565b5f620001d782620001ac565b9050919050565b620001e981620001cb565b8114620001f4575f80fd5b50565b5f815190506200020781620001de565b92915050565b5f805f60608486031215620002275762000226620001a8565b5b5f6200023686828701620001f7565b93505060206200024986828701620001f7565b92505060406200025c86828701620001f7565b9150509250925092565b60805160a05160c0516115ba620002b45f395f818161076c0152610e6601525f818161059401526107b901525f818161065e01528181610795015281816108650152610a6801526115ba5ff3fe608060405234801561000f575f80fd5b50600436106100a7575f3560e01c80635df2dcbc1161006f5780635df2dcbc1461013f5780638aa285501461015d578063a694fc3a1461017b578063d2d7231f14610197578063d5a44f86146101c7578063ebfad492146101f8576100a7565b80630e40fe9f146100ab5780632e17de78146100c957806331eb318a146100e5578063343d597c146101035780635856deba14610121575b5f80fd5b6100b3610216565b6040516100c091906110fa565b60405180910390f35b6100e360048036038101906100de9190611141565b610221565b005b6100ed61076a565b6040516100fa91906111e6565b60405180910390f35b61010b61078e565b60405161011891906110fa565b60405180910390f35b610129610793565b604051610136919061121f565b60405180910390f35b6101476107b7565b6040516101549190611258565b60405180910390f35b6101656107db565b60405161017291906110fa565b60405180910390f35b61019560048036038101906101909190611141565b6107e0565b005b6101b160048036038101906101ac9190611141565b610b67565b6040516101be91906110fa565b60405180910390f35b6101e160048036038101906101dc9190611141565b610d24565b6040516101ef9291906112b3565b60405180910390f35b610200610d75565b60405161020d91906112f2565b60405180910390f35b66038d7ea4c6800081565b61023567c669b44638e11c3260c01b610d7e565b61023d610d81565b610251678cc6f47ffdd9428360c01b610d7e565b6102656737af73d16f7d704560c01b610d7e565b61027967b114175d7018322060c01b610d7e565b61028d673ba81f83c216a56c60c01b610d7e565b5f805f8381526020019081526020015f206040518060400160405290815f82015f9054906101000a900473ffffffffffffffffffffffffffffffffffffffff1673ffffffffffffffffffffffffffffffffffffffff1673ffffffffffffffffffffffffffffffffffffffff1681526020015f820160149054906101000a900467ffffffffffffffff1667ffffffffffffffff1667ffffffffffffffff1681525050905061034467d115193d4380ec2260c01b610d7e565b6103586717315a3d40c8a56a60c01b610d7e565b3373ffffffffffffffffffffffffffffffffffffffff16815f015173ffffffffffffffffffffffffffffffffffffffff16146103d4576103a2678f1842da22fadb7760c01b610d7e565b6040517fff75c0a900000000000000000000000000000000000000000000000000000000815260040160405180910390fd5b6103e867cd664dac546a433760c01b610d7e565b6103fc67dc33f4830a20d4a760c01b610d7e565b6104106710cde47bb9cf55e960c01b610d7e565b601e816020015167ffffffffffffffff1661042b9190611338565b4210156104785761044667109c3f8548cb86ce60c01b610d7e565b6040517ff149710500000000000000000000000000000000000000000000000000000000815260040160405180910390fd5b61048c6769196954be6f417060c01b610d7e565b6104a06727a3a2789e3ee29160c01b610d7e565b6104b46750a9bdd7f7dc7a2660c01b610d7e565b5f6104be82610da3565b90506104d467daedc86be54c0b9560c01b610d7e565b5f808481526020019081526020015f205f8082015f6101000a81549073ffffffffffffffffffffffffffffffffffffffff02191690555f820160146101000a81549067ffffffffffffffff0219169055505061053a674cbe46ef00792b4060c01b610d7e565b61054e678cb32f08ef203eeb60c01b610d7e565b5f81111561061f5761056a675ec3fd74471b07b360c01b610d7e565b61057e67cda7ab05fcde44b160c01b610d7e565b6105926779a53ce6cc81a62760c01b610d7e565b7f000000000000000000000000000000000000000000000000000000000000000073ffffffffffffffffffffffffffffffffffffffff166340c10f1933836040518363ffffffff1660e01b81526004016105ed92919061136b565b5f604051808303815f87803b158015610604575f80fd5b505af1158015610616573d5f803e3d5ffd5b50505050610634565b61063367de0d604d6daf1b7660c01b610d7e565b5b61064867ca9705071b08533560c01b610d7e565b61065c67e84871c8499e5e3960c01b610d7e565b7f000000000000000000000000000000000000000000000000000000000000000073ffffffffffffffffffffffffffffffffffffffff166323b872dd3033866040518463ffffffff1660e01b81526004016106b993929190611392565b5f604051808303815f87803b1580156106d0575f80fd5b505af11580156106e2573d5f803e3d5ffd5b505050506106fa67fb6465a5e8780ee160c01b610d7e565b61070e6752a7c06e1758f51b60c01b610d7e565b823373ffffffffffffffffffffffffffffffffffffffff167f7fc4727e062e336010f2c282598ef5f14facb3de68cf8195c2f23e1454b2b74e8360405161075591906110fa565b60405180910390a35050610767611039565b50565b7f000000000000000000000000000000000000000000000000000000000000000081565b601e81565b7f000000000000000000000000000000000000000000000000000000000000000081565b7f000000000000000000000000000000000000000000000000000000000000000081565b600281565b6107f467a0c7f68b908d83cc60c01b610d7e565b6107fc610d81565b61081067fc1f4dfd70b634e460c01b610d7e565b61082467c7e2f84f7955524e60c01b610d7e565b61083867526f28309dd53dff60c01b610d7e565b61084c67e5de484a469a7b1e60c01b610d7e565b3373ffffffffffffffffffffffffffffffffffffffff167f000000000000000000000000000000000000000000000000000000000000000073ffffffffffffffffffffffffffffffffffffffff16636352211e836040518263ffffffff1660e01b81526004016108bc91906110fa565b602060405180830381865afa1580156108d7573d5f803e3d5ffd5b505050506040513d601f19601f820116820180604052508101906108fb91906113f1565b73ffffffffffffffffffffffffffffffffffffffff161461095c5761092a67649d2a018af0344b60c01b610d7e565b6040517fff75c0a900000000000000000000000000000000000000000000000000000000815260040160405180910390fd5b61097067df8f1a1be1b8788560c01b610d7e565b61098467bfe3476904ceb49960c01b610d7e565b60405180604001604052803373ffffffffffffffffffffffffffffffffffffffff1681526020014267ffffffffffffffff168152505f808381526020019081526020015f205f820151815f015f6101000a81548173ffffffffffffffffffffffffffffffffffffffff021916908373ffffffffffffffffffffffffffffffffffffffff1602179055506020820151815f0160146101000a81548167ffffffffffffffff021916908367ffffffffffffffff160217905550905050610a5267a312983fb8d67c3360c01b610d7e565b610a6667d3e4eb15b4f119bd60c01b610d7e565b7f000000000000000000000000000000000000000000000000000000000000000073ffffffffffffffffffffffffffffffffffffffff166323b872dd3330846040518463ffffffff1660e01b8152600401610ac393929190611392565b5f604051808303815f87803b158015610ada575f80fd5b505af1158015610aec573d5f803e3d5ffd5b50505050610b0467f6fea526fb83d62d60c01b610d7e565b610b1867b1c2f03b5ce473ef60c01b610d7e565b803373ffffffffffffffffffffffffffffffffffffffff167f9e71bc8eea02a63969f509818f2dafb9254532904319f9dbda79b67bd34a5f3d60405160405180910390a3610b64611039565b50565b5f610b7c6766671eff88b030cb60c01b610d7e565b610b906717c146e6d3b1520360c01b610d7e565b610ba4678daaf19e3c8b124d60c01b610d7e565b5f805f8481526020019081526020015f206040518060400160405290815f82015f9054906101000a900473ffffffffffffffffffffffffffffffffffffffff1673ffffffffffffffffffffffffffffffffffffffff1673ffffffffffffffffffffffffffffffffffffffff1681526020015f820160149054906101000a900467ffffffffffffffff1667ffffffffffffffff1667ffffffffffffffff16815250509050610c5b67ab511a8deaa15d0f60c01b610d7e565b610c6f67b2846e7855f097e560c01b610d7e565b5f73ffffffffffffffffffffffffffffffffffffffff16815f015173ffffffffffffffffffffffffffffffffffffffff1603610cd657610cb96798d05587aa231f3960c01b610d7e565b610ccd67dfd988bad518adf260c01b610d7e565b5f915050610d1f565b610cea6766c2887e2f62e74560c01b610d7e565b610cfe67c1bf79a31082b7ff60c01b610d7e565b610d1267cfcfad8b7be065bd60c01b610d7e565b610d1b81610da3565b9150505b919050565b5f602052805f5260405f205f91509050805f015f9054906101000a900473ffffffffffffffffffffffffffffffffffffffff1690805f0160149054906101000a900467ffffffffffffffff16905082565b642e90edd00081565b50565b610d89611053565b6002610d9b610d96611094565b6110bd565b5f0181905550565b5f610db867997650923f24e59760c01b610d7e565b610dcc674e08be895fa2d43460c01b610d7e565b610de06771ce62bd3d9fba7060c01b610d7e565b5f826020015167ffffffffffffffff1642610dfb919061141c565b9050610e1167dae35c5763e0ccef60c01b610d7e565b610e2567dfc0bde838a11b9660c01b610d7e565b5f66038d7ea4c6800082610e39919061144f565b9050610e4f677c370b76374fb6b960c01b610d7e565b610e6367f178053f18d1ab3f60c01b610d7e565b5f7f000000000000000000000000000000000000000000000000000000000000000073ffffffffffffffffffffffffffffffffffffffff1663feaf968c6040518163ffffffff1660e01b815260040160a060405180830381865afa158015610ecd573d5f803e3d5ffd5b505050506040513d601f19601f82011682018060405250810190610ef1919061150d565b505050915050610f0b67669afec633c359ca60c01b610d7e565b610f1f67a962020952a7063d60c01b610d7e565b5f8113610f6c57610f3a673edf16164d1ba66e60c01b610d7e565b6040517fffb848d000000000000000000000000000000000000000000000000000000000815260040160405180910390fd5b610f8067b8329487ebb4903760c01b610d7e565b610f94672244ff631d1a8f2160c01b610d7e565b610fa867dec89b9ca6311f8760c01b610d7e565b642e90edd000811215610ff157610fc967fab3f2ac90600f4d60c01b610d7e565b610fdd671d4460f42f57e40b60c01b610d7e565b600282610fea919061144f565b9150611006565b61100567e4a06abd94a92bbb60c01b610d7e565b5b61101a6742916fe4924f6b1860c01b610d7e565b61102e6795fae1c079cc9a2d60c01b610d7e565b819350505050919050565b600161104b611046611094565b6110bd565b5f0181905550565b61105b6110c6565b15611092576040517f3ee5aeb500000000000000000000000000000000000000000000000000000000815260040160405180910390fd5b565b5f7f9b779b17422d0df92223018b32b4d1fa46e071723d6817e2486d003becc55f005f1b905090565b5f819050919050565b5f60026110d96110d4611094565b6110bd565b5f015414905090565b5f819050919050565b6110f4816110e2565b82525050565b5f60208201905061110d5f8301846110eb565b92915050565b5f80fd5b611120816110e2565b811461112a575f80fd5b50565b5f8135905061113b81611117565b92915050565b5f6020828403121561115657611155611113565b5b5f6111638482850161112d565b91505092915050565b5f73ffffffffffffffffffffffffffffffffffffffff82169050919050565b5f819050919050565b5f6111ae6111a96111a48461116c565b61118b565b61116c565b9050919050565b5f6111bf82611194565b9050919050565b5f6111d0826111b5565b9050919050565b6111e0816111c6565b82525050565b5f6020820190506111f95f8301846111d7565b92915050565b5f611209826111b5565b9050919050565b611219816111ff565b82525050565b5f6020820190506112325f830184611210565b92915050565b5f611242826111b5565b9050919050565b61125281611238565b82525050565b5f60208201905061126b5f830184611249565b92915050565b5f61127b8261116c565b9050919050565b61128b81611271565b82525050565b5f67ffffffffffffffff82169050919050565b6112ad81611291565b82525050565b5f6040820190506112c65f830185611282565b6112d360208301846112a4565b9392505050565b5f819050919050565b6112ec816112da565b82525050565b5f6020820190506113055f8301846112e3565b92915050565b7f4e487b71000000000000000000000000000000000000000000000000000000005f52601160045260245ffd5b5f611342826110e2565b915061134d836110e2565b92508282019050808211156113655761136461130b565b5b92915050565b5f60408201905061137e5f830185611282565b61138b60208301846110eb565b9392505050565b5f6060820190506113a55f830186611282565b6113b26020830185611282565b6113bf60408301846110eb565b949350505050565b6113d081611271565b81146113da575f80fd5b50565b5f815190506113eb816113c7565b92915050565b5f6020828403121561140657611405611113565b5b5f611413848285016113dd565b91505092915050565b5f611426826110e2565b9150611431836110e2565b92508282039050818111156114495761144861130b565b5b92915050565b5f611459826110e2565b9150611464836110e2565b9250828202611472816110e2565b915082820484148315176114895761148861130b565b5b5092915050565b5f69ffffffffffffffffffff82169050919050565b6114ae81611490565b81146114b8575f80fd5b50565b5f815190506114c9816114a5565b92915050565b6114d8816112da565b81146114e2575f80fd5b50565b5f815190506114f3816114cf565b92915050565b5f8151905061150781611117565b92915050565b5f805f805f60a0868803121561152657611525611113565b5b5f611533888289016114bb565b9550506020611544888289016114e5565b9450506040611555888289016114f9565b9350506060611566888289016114f9565b9250506080611577888289016114bb565b915050929550929590935056fea2646970667358221220ba8c6a134761e934523deab41e7ba563fd0a59f55db4444350909060579662bb64736f6c63430008180033",
  "linkReferences": {},
  "deployedLinkReferences": {}
}