{
  "_format": "hh-sol-artifact-1",
  "contractName": "EduDAO",
  "sourceName": "src/dao/EduDAO.sol",
  "abi": [
    {
      "inputs": [
        {
          "internalType": "address",
          "name": "_token",
          "type": "address"
        }
      ],
      "stateMutability": "nonpayable",
      "type": "constructor"
    },
    {
      "inputs": [],
      "name": "EduDAO__AlreadyVoted",
      "type": "error"
    },
    {
      "inputs": [],
      "name": "EduDAO__BalanceTooLargeForVoteWeight",
      "type": "error"
    },
    {
      "inputs": [],
      "name": "EduDAO__InsufficientTokens",
      "type": "error"
    },
    {
      "inputs": [],
      "name": "EduDAO__InsufficientTokensToPropose",
      "type": "error"
    },
    {
      "inputs": [],
      "name": "EduDAO__ProposalDoesNotExist",
      "type": "error"
    },
    {
      "inputs": [],
      "name": "EduDAO__VotingClosed",
      "type": "error"
    },
    {
      "anonymous": false,
      "inputs": [
        {
          "indexed": true,
          "internalType": "uint256",
          "name": "id",
          "type": "uint256"
        },
        {
          "indexed": false,
          "internalType": "bytes32",
          "name": "descriptionHash",
          "type": "bytes32"
        },
        {
          "indexed": false,
          "internalType": "uint256",
          "name": "deadline",
          "type": "uint256"
        }
      ],
      "name": "ProposalCreated",
      "type": "event"
    },
    {
      "anonymous": false,
      "inputs": [
        {
          "indexed": true,
          "internalType": "uint256",
          "name": "id",
          "type": "uint256"
        },
        {
          "indexed": true,
          "internalType": "address",
          "name": "voter",
          "type": "address"
        },
        {
          "indexed": false,
          "internalType": "bool",
          "name": "support",
          "type": "bool"
        },
        {
          "indexed": false,
          "internalType": "uint256",
          "name": "weight",
          "type": "uint256"
        }
      ],
      "name": "Voted",
      "type": "event"
    },
    {
      "inputs": [],
      "name": "EDU_TOKEN",
      "outputs": [
        {
          "internalType": "contract IERC20",
          "name": "",
          "type": "address"
        }
      ],
      "stateMutability": "view",
      "type": "function"
    },
    {
      "inputs": [],
      "name": "MIN_VOTE_POWER",
      "outputs": [
        {
          "internalType": "uint256",
          "name": "",
          "type": "uint256"
        }
      ],
      "stateMutability": "view",
      "type": "function"
    },
    {
      "inputs": [],
      "name": "PROPOSAL_THRESHOLD",
      "outputs": [
        {
          "internalType": "uint256",
          "name": "",
          "type": "uint256"
        }
      ],
      "stateMutability": "view",
      "type": "function"
    },
    {
      "inputs": [
        {
          "internalType": "bytes32",
          "name": "descriptionHash",
          "type": "bytes32"
        }
      ],
      "name": "createProposal",
      "outputs": [],
      "stateMutability": "nonpayable",
      "type": "function"
    },
    {
      "inputs": [
        {
          "internalType": "uint256",
          "name": "",
          "type": "uint256"
        },
        {
          "internalType": "address",
          "name": "",
          "type": "address"
        }
      ],
      "name": "hasVoted",
      "outputs": [
        {
          "internalType": "bool",
          "name": "",
          "type": "bool"
        }
      ],
      "stateMutability": "view",
      "type": "function"
    },
    {
      "inputs": [],
      "name": "nextProposalId",
      "outputs": [
        {
          "internalType": "uint256",
          "name": "",
          "type": "uint256"
        }
      ],
      "stateMutability": "view",
      "type": "function"
    },
    {
      "inputs": [
        {
          "internalType": "uint256",
          "name": "",
          "type": "uint256"
        }
      ],
      "name": "proposals",
      "outputs": [
        {
          "internalType": "bytes32",
          "name": "descriptionHash",
          "type": "bytes32"
        },
        {
          "internalType": "uint128",
          "name": "votesFor",
          "type": "uint128"
        },
        {
          "internalType": "uint128",
          "name": "votesAgainst",
          "type": "uint128"
        },
        {
          "internalType": "uint64",
          "name": "deadline",
          "type": "uint64"
        }
      ],
      "stateMutability": "view",
      "type": "function"
    },
    {
      "inputs": [
        {
          "internalType": "uint256",
          "name": "proposalId",
          "type": "uint256"
        },
        {
          "internalType": "bool",
          "name": "support",
          "type": "bool"
        }
      ],
      "name": "vote",
      "outputs": [],
      "stateMutability": "nonpayable",
      "type": "function"
    }
  ],
  "bytecode": "0x60a060405234801562000010575f80fd5b50604051620012f9380380620012f9833981810160405281019062000036919062000111565b6200005267f26089c00d504a4560c01b620000a960201b60201c565b6200006e674afaf1ebd00e91e560c01b620000a960201b60201c565b8073ffffffffffffffffffffffffffffffffffffffff1660808173ffffffffffffffffffffffffffffffffffffffff16815250505062000141565b50565b5f80fd5b5f73ffffffffffffffffffffffffffffffffffffffff82169050919050565b5f620000db82620000b0565b9050919050565b620000ed81620000cf565b8114620000f8575f80fd5b50565b5f815190506200010b81620000e2565b92915050565b5f60208284031215620001295762000128620000ac565b5b5f6200013884828501620000fb565b91505092915050565b608051611191620001685f395f818161026701528181610593015261060101526111915ff3fe608060405234801561000f575f80fd5b5060043610610086575f3560e01c8063438596321161005957806343859632146101155780635df2dcbc14610145578063a6c2660314610163578063c9d27afe1461018157610086565b8063013cf08b1461008a5780631e484e70146100bd5780632542bf06146100db5780632ab09d14146100f7575b5f80fd5b6100a4600480360381019061009f9190610c96565b61019d565b6040516100b49493929190610d25565b60405180910390f35b6100c5610213565b6040516100d29190610d77565b60405180910390f35b6100f560048036038101906100f09190610dba565b61021f565b005b6100ff610562565b60405161010c9190610d77565b60405180910390f35b61012f600480360381019061012a9190610e3f565b610567565b60405161013c9190610e97565b60405180910390f35b61014d610591565b60405161015a9190610f0b565b60405180910390f35b61016b6105b5565b6040516101789190610d77565b60405180910390f35b61019b60048036038101906101969190610f4e565b6105c2565b005b6001602052805f5260405f205f91509050805f015490806001015f9054906101000a90046fffffffffffffffffffffffffffffffff16908060010160109054906101000a90046fffffffffffffffffffffffffffffffff1690806002015f9054906101000a900467ffffffffffffffff16905084565b678ac7230489e8000081565b61023367b4b2473efdd965d660c01b610c5c565b61024767ec06fcd5bc7cd1f960c01b610c5c565b61025b677f4166fcb07b7c2560c01b610c5c565b68056bc75e2d631000007f000000000000000000000000000000000000000000000000000000000000000073ffffffffffffffffffffffffffffffffffffffff166370a08231336040518263ffffffff1660e01b81526004016102be9190610f9b565b602060405180830381865afa1580156102d9573d5f803e3d5ffd5b505050506040513d601f19601f820116820180604052508101906102fd9190610fc8565b10156103495761031767be2b9261556cbff960c01b610c5c565b6040517f2af2bb1a00000000000000000000000000000000000000000000000000000000815260040160405180910390fd5b61035d67274b17012181662360c01b610c5c565b61037167cddbd617c20cae6560c01b610c5c565b610385675c94bef39130047f60c01b610c5c565b5f805f81548092919061039790611020565b9190505590506103b167c87c00e2a7ef482d60c01b610c5c565b60405180608001604052808381526020015f6fffffffffffffffffffffffffffffffff1681526020015f6fffffffffffffffffffffffffffffffff1681526020016203f480426104019190611067565b67ffffffffffffffff1681525060015f8381526020019081526020015f205f820151815f01556020820151816001015f6101000a8154816fffffffffffffffffffffffffffffffff02191690836fffffffffffffffffffffffffffffffff16021790555060408201518160010160106101000a8154816fffffffffffffffffffffffffffffffff02191690836fffffffffffffffffffffffffffffffff1602179055506060820151816002015f6101000a81548167ffffffffffffffff021916908367ffffffffffffffff1602179055509050506104e967438c960d7cd4777c60c01b610c5c565b6104fd67ddd021d75661e05b60c01b610c5c565b807f9e11360c49d21b49588f4e4425c0d0e234aa7206f32c51bd357d570c262ef7238360015f8581526020019081526020015f206002015f9054906101000a900467ffffffffffffffff166040516105569291906110ca565b60405180910390a25050565b5f5481565b6002602052815f5260405f20602052805f5260405f205f915091509054906101000a900460ff1681565b7f000000000000000000000000000000000000000000000000000000000000000081565b68056bc75e2d6310000081565b6105d66712df16846658a1ea60c01b610c5c565b6105ea67a23cdd4ecc560d7560c01b610c5c565b6105fe676d6de4ba29f3c47260c01b610c5c565b5f7f000000000000000000000000000000000000000000000000000000000000000073ffffffffffffffffffffffffffffffffffffffff166370a08231336040518263ffffffff1660e01b81526004016106589190610f9b565b602060405180830381865afa158015610673573d5f803e3d5ffd5b505050506040513d601f19601f820116820180604052508101906106979190610fc8565b90506106ad6739563d7cf0b4751d60c01b610c5c565b6106c1672bdd5abfb6e52a9c60c01b610c5c565b5f54831061070f576106dd671a76aa7bd8d5491160c01b610c5c565b6040517f6f68cda900000000000000000000000000000000000000000000000000000000815260040160405180910390fd5b610723677d2d0fbeae7921a860c01b610c5c565b6107376719d0b77067813a8260c01b610c5c565b61074b67142abca6953eaa7f60c01b610c5c565b6fffffffffffffffffffffffffffffffff80168111156107ab57610779672223886ce583ec4160c01b610c5c565b6040517fa9b0fd1600000000000000000000000000000000000000000000000000000000815260040160405180910390fd5b6107bf67cd42f501152d091760c01b610c5c565b6107d367ca48b2d1c39a996460c01b610c5c565b6107e76718cf55cff7c010f360c01b610c5c565b678ac7230489e8000081101561083d5761080b670bb21de93553e0e760c01b610c5c565b6040517fb6bf7bc600000000000000000000000000000000000000000000000000000000815260040160405180910390fd5b61085167f98cf8f8b6e3c07460c01b610c5c565b6108656789515b72a812782460c01b610c5c565b61087967bafeba2d72ecc4ba60c01b610c5c565b5f60015f8581526020019081526020015f2090506108a1675eab627735b56a5a60c01b610c5c565b6108b567cc6f183c2aa794cd60c01b610c5c565b806002015f9054906101000a900467ffffffffffffffff1667ffffffffffffffff16421115610924576108f2679eff199eca3b3ecc60c01b610c5c565b6040517fe0b8d95f00000000000000000000000000000000000000000000000000000000815260040160405180910390fd5b610938673afff3e43dbb98d960c01b610c5c565b61094c675980d921d830311c60c01b610c5c565b610960674c3c4f4e5e8266ff60c01b610c5c565b60025f8581526020019081526020015f205f3373ffffffffffffffffffffffffffffffffffffffff1673ffffffffffffffffffffffffffffffffffffffff1681526020019081526020015f205f9054906101000a900460ff1615610a04576109d2678135cc471938390c60c01b610c5c565b6040517f3b989be200000000000000000000000000000000000000000000000000000000815260040160405180910390fd5b610a18673af118e912ce55c360c01b610c5c565b610a2c6776b711723fbe3cc460c01b610c5c565b600160025f8681526020019081526020015f205f3373ffffffffffffffffffffffffffffffffffffffff1673ffffffffffffffffffffffffffffffffffffffff1681526020019081526020015f205f6101000a81548160ff021916908315150217905550610aa46755c320d6fe13817c60c01b610c5c565b610ab867e4fb674fe0716be760c01b610c5c565b8215610b4f57610ad2678900a1c32a25fefe60c01b610c5c565b610ae667eac3eb529ee0ee9760c01b610c5c565b81816001015f8282829054906101000a90046fffffffffffffffffffffffffffffffff16610b1491906110f1565b92506101000a8154816fffffffffffffffffffffffffffffffff02191690836fffffffffffffffffffffffffffffffff160217905550610bdd565b610b63675903a6d0b15275bb60c01b610c5c565b610b7767081cbfb6edc907ba60c01b610c5c565b818160010160108282829054906101000a90046fffffffffffffffffffffffffffffffff16610ba691906110f1565b92506101000a8154816fffffffffffffffffffffffffffffffff02191690836fffffffffffffffffffffffffffffffff1602179055505b610bf1676b0789d4a9d3231560c01b610c5c565b610c05673e6fc7d43fd0254960c01b610c5c565b3373ffffffffffffffffffffffffffffffffffffffff16847f7c2de587c00d75474a0c6c6fa96fd3b45dc974cd4e8a75f712bb84c950dce1b58585604051610c4e929190611134565b60405180910390a350505050565b50565b5f80fd5b5f819050919050565b610c7581610c63565b8114610c7f575f80fd5b50565b5f81359050610c9081610c6c565b92915050565b5f60208284031215610cab57610caa610c5f565b5b5f610cb884828501610c82565b91505092915050565b5f819050919050565b610cd381610cc1565b82525050565b5f6fffffffffffffffffffffffffffffffff82169050919050565b610cfd81610cd9565b82525050565b5f67ffffffffffffffff82169050919050565b610d1f81610d03565b82525050565b5f608082019050610d385f830187610cca565b610d456020830186610cf4565b610d526040830185610cf4565b610d5f6060830184610d16565b95945050505050565b610d7181610c63565b82525050565b5f602082019050610d8a5f830184610d68565b92915050565b610d9981610cc1565b8114610da3575f80fd5b50565b5f81359050610db481610d90565b92915050565b5f60208284031215610dcf57610dce610c5f565b5b5f610ddc84828501610da6565b91505092915050565b5f73ffffffffffffffffffffffffffffffffffffffff82169050919050565b5f610e0e82610de5565b9050919050565b610e1e81610e04565b8114610e28575f80fd5b50565b5f81359050610e3981610e15565b92915050565b5f8060408385031215610e5557610e54610c5f565b5b5f610e6285828601610c82565b9250506020610e7385828601610e2b565b9150509250929050565b5f8115159050919050565b610e9181610e7d565b82525050565b5f602082019050610eaa5f830184610e88565b92915050565b5f819050919050565b5f610ed3610ece610ec984610de5565b610eb0565b610de5565b9050919050565b5f610ee482610eb9565b9050919050565b5f610ef582610eda565b9050919050565b610f0581610eeb565b82525050565b5f602082019050610f1e5f830184610efc565b92915050565b610f2d81610e7d565b8114610f37575f80fd5b50565b5f81359050610f4881610f24565b92915050565b5f8060408385031215610f6457610f63610c5f565b5b5f610f7185828601610c82565b9250506020610f8285828601610f3a565b9150509250929050565b610f9581610e04565b82525050565b5f602082019050610fae5f830184610f8c565b92915050565b5f81519050610fc281610c6c565b92915050565b5f60208284031215610fdd57610fdc610c5f565b5b5f610fea84828501610fb4565b91505092915050565b7f4e487b71000000000000000000000000000000000000000000000000000000005f52601160045260245ffd5b5f61102a82610c63565b91507fffffffffffffffffffffffffffffffffffffffffffffffffffffffffffffffff820361105c5761105b610ff3565b5b600182019050919050565b5f61107182610c63565b915061107c83610c63565b925082820190508082111561109457611093610ff3565b5b92915050565b5f6110b46110af6110aa84610d03565b610eb0565b610c63565b9050919050565b6110c48161109a565b82525050565b5f6040820190506110dd5f830185610cca565b6110ea60208301846110bb565b9392505050565b5f6110fb82610cd9565b915061110683610cd9565b925082820190506fffffffffffffffffffffffffffffffff81111561112e5761112d610ff3565b5b92915050565b5f6040820190506111475f830185610e88565b6111546020830184610d68565b939250505056fea2646970667358221220d6f146bc00263e39fc16d0e5f659b665c6e7ba34b33270d7a6f76bce2dbdfd7e64736f6c63430008180033",
  "linkReferences": {},
  "deployedLinkReferences": {}
}