{
  "_format": "hh-sol-artifact-1",
  "contractName": "EduToken",
  "sourceName": "src/token/EduToken.sol",
  "abi": [
    {
      "inputs": [
        {
          "internalType": "address",
          "name": "initialOwner",
          "type": "address"
        }
      ],
      "stateMutability": "nonpayable",
      "type": "constructor"
    },
    {
      "inputs": [
        {
          "internalType": "address",
          "name": "spender",
          "type": "address"
        },
        {
          "internalType": "uint256",
          "name": "allowance",
          "type": "uint256"
        },
        {
          "internalType": "uint256",
          "name": "needed",
          "type": "uint256"
        }
      ],
      "name": "ERC20InsufficientAllowance",
      "type": "error"
    },
    {
      "inputs": [
        {
          "internalType": "address",
          "name": "sender",
          "type": "address"
        },
        {
          "internalType": "uint256",
          "name": "balance",
          "type": "uint256"
        },
        {
          "internalType": "uint256",
          "name": "needed",
          "type": "uint256"
        }
      ],
      "name": "ERC20InsufficientBalance",
      "type": "error"
    },
    {
      "inputs": [
        {
          "internalType": "address",
          "name": "approver",
          "type": "address"
        }
      ],
      "name": "ERC20InvalidApprover",
      "type": "error"
    },
    {
      "inputs": [
        {
          "internalType": "address",
          "name": "receiver",
          "type": "address"
        }
      ],
      "name": "ERC20InvalidReceiver",
      "type": "error"
    },
    {
      "inputs": [
        {
          "internalType": "address",
          "name": "sender",
          "type": "address"
        }
      ],
      "name": "ERC20InvalidSender",
      "type": "error"
    },
    {
      "inputs": [
        {
          "internalType": "address",
          "name": "spender",
          "type": "address"
        }
      ],
      "name": "ERC20InvalidSpender",
      "type": "error"
    },
    {
      "inputs": [],
      "name": "EduToken__OnlyStakingContract",
      "type": "error"
    },
    {
      "inputs": [],
      "name": "EduToken__ZeroAddress",
      "type": "error"
    },
    {
      "inputs": [
        {
          "internalType": "address",
          "name": "owner",
          "type": "address"
        }
      ],
      "name": "OwnableInvalidOwner",
      "type": "error"
    },
    {
      "inputs": [
        {
          "internalType": "address",
          "name": "account",
          "type": "address"
        }
      ],
      "name": "OwnableUnauthorizedAccount",
      "type": "error"
    },
    {
      "anonymous": false,
      "inputs": [
        {
          "indexed": true,
          "internalType": "address",
          "name": "owner",
          "type": "address"
        },
        {
          "indexed": true,
          "internalType": "address",
          "name": "spender",
          "type": "address"
        },
        {
          "indexed": false,
          "internalType": "uint256",
          "name": "value",
          "type": "uint256"
        }
      ],
      "name": "Approval",
      "type": "event"
    },
    {
      "anonymous": false,
      "inputs": [
        {
          "indexed": true,
          "internalType": "address",
          "name": "previousOwner",
          "type": "address"
        },
        {
          "indexed": true,
          "internalType": "address",
          "name": "newOwner",
          "type": "address"
        }
      ],
      "name": "OwnershipTransferStarted",
      "type": "event"
    },
    {
      "anonymous": false,
      "inputs": [
        {
          "indexed": true,
          "internalType": "address",
          "name": "previousOwner",
          "type": "address"
        },
        {
          "indexed": true,
          "internalType": "address",
          "name": "newOwner",
          "type": "address"
        }
      ],
      "name": "OwnershipTransferred",
      "type": "event"
    },
    {
      "anonymous": false,
      "inputs": [
        {
          "indexed": true,
          "internalType": "address",
          "name": "from",
          "type": "address"
        },
        {
          "indexed": true,
          "internalType": "address",
          "name": "to",
          "type": "address"
        },
        {
          "indexed": false,
          "internalType": "uint256",
          "name": "value",
          "type": "uint256"
        }
      ],
      "name": "Transfer",
      "type": "event"
    },
    {
      "inputs": [],
      "name": "acceptOwnership",
      "outputs": [],
      "stateMutability": "nonpayable",
      "type": "function"
    },
    {
      "inputs": [
        {
          "internalType": "address",
          "name": "owner",
          "type": "address"
        },
        {
          "internalType": "address",
          "name": "spender",
          "type": "address"
        }
      ],
      "name": "allowance",
      "outputs": [
        {
          "internalType": "uint256",
          "name": "",
          "type": "uint256"
        }
      ],
      "stateMutability": "view",
      "type": "function"
    },
    {
      "inputs": [
        {
          "internalType": "address",
          "name": "spender",
          "type": "address"
        },
        {
          "internalType": "uint256",
          "name": "value",
          "type": "uint256"
        }
      ],
      "name": "approve",
      "outputs": [
        {
          "internalType": "bool",
          "name": "",
          "type": "bool"
        }
      ],
      "stateMutability": "nonpayable",
      "type": "function"
    },
    {
      "inputs": [
        {
          "internalType": "address",
          "name": "account",
          "type": "address"
        }
      ],
      "name": "balanceOf",
      "outputs": [
        {
          "internalType": "uint256",
          "name": "",
          "type": "uint256"
        }
      ],
      "stateMutability": "view",
      "type": "function"
    },
    {
      "inputs": [],
      "name": "decimals",
      "outputs": [
        {
          "internalType": "uint8",
          "name": "",
          "type": "uint8"
        }
      ],
      "stateMutability": "view",
      "type": "function"
    },
    {
      "inputs": [
        {
          "internalType": "address",
          "name": "to",
          "type": "address"
        },
        {
          "internalType": "uint256",
          "name": "amount",
          "type": "uint256"
        }
      ],
      "name": "mint",
      "outputs": [],
      "stateMutability": "nonpayable",
      "type": "function"
    },
    {
      "inputs": [],
      "name": "name",
      "outputs": [
        {
          "internalType": "string",
          "name": "",
          "type": "string"
        }
      ],
      "stateMutability": "view",
      "type": "function"
    },
    {
      "inputs": [],
      "name": "owner",
      "outputs": [
        {
          "internalType": "address",
          "name": "",
          "type": "address"
        }
      ],
      "stateMutability": "view",
      "type": "function"
    },
    {
      "inputs": [],
      "name": "pendingOwner",
      "outputs": [
        {
          "internalType": "address",
          "name": "",
          "type": "address"
        }
      ],
      "stateMutability": "view",
      "type": "function"
    },
    {
      "inputs": [],
      "name": "renounceOwnership",
      "outputs": [],
      "stateMutability": "nonpayable",
      "type": "function"
    },
    {
      "inputs": [
        {
          "internalType": "address",
          "name": "_stakingContract",
          "type": "address"
        }
      ],
      "name": "setStakingContract",
      "outputs": [],
      "stateMutability": "nonpayable",
      "type": "function"
    },
    {
      "inputs": [],
      "name": "stakingContract",
      "outputs": [
        {
          "internalType": "address",
          "name": "",
          "type": "address"
        }
      ],
      "stateMutability": "view",
      "type": "function"
    },
    {
      "inputs": [],
      "name": "symbol",
      "outputs": [
        {
          "internalType": "string",
          "name": "",
          "type": "string"
        }
      ],
      "stateMutability": "view",
      "type": "function"
    },
    {
      "inputs": [],
      "name": "totalSupply",
      "outputs": [
        {
          "internalType": "uint256",
          "name": "",
          "type": "uint256"
        }
      ],
      "stateMutability": "view",
      "type": "function"
    },
    {
      "inputs": [
        {
          "internalType": "address",
          "name": "to",
          "type": "address"
        },
        {
          "internalType": "uint256",
          "name": "value",
          "type": "uint256"
        }
      ],
      "name": "transfer",
      "outputs": [
        {
          "internalType": "bool",
          "name": "",
          "type": "bool"
        }
      ],
      "stateMutability": "nonpayable",
      "type": "function"
    },
    {
      "inputs": [
        {
          "internalType": "address",
          "name": "from",
          "type": "address"
        },
        {
          "internalType": "address",
          "name": "to",
          "type": "address"
        },
        {
          "internalType": "uint256",
          "name": "value",
          "type": "uint256"
        }
      ],
      "name": "transferFrom",
      "outputs": [
        {
          "internalType": "bool",
          "name": "",
          "type": "bool"
        }
      ],
      "stateMutability": "nonpayable",
      "type": "function"
    },
    {
      "inputs": [
        {
          "internalType": "address",
          "name": "newOwner",
          "type": "address"
        }
      ],
      "name": "transferOwnership",
      "outputs": [],
      "stateMutability": "nonpayable",
      "type": "function"
    }
  ],
  "bytecode": "0x608060405234801562000010575f80fd5b5060405162001cd438038062001cd48339818101604052810190620000369190620003aa565b806040518060400160405280600881526020017f456475546f6b656e0000000000000000000000000000000000000000000000008152506040518060400160405280600381526020017f45445500000000000000000000000000000000000000000000000000000000008152508160039081620000b491906200063e565b508060049081620000c691906200063e565b5050505f73ffffffffffffffffffffffffffffffffffffffff168173ffffffffffffffffffffffffffffffffffffffff16036200013c575f6040517f1e4fbdf700000000000000000000000000000000000000000000000000000000815260040162000133919062000733565b60405180910390fd5b6200014d816200024760201b60201c565b506200016a67d6e9ced91781d85460c01b6200027f60201b60201c565b62000186671c676e31c0d7258260c01b6200027f60201b60201c565b620001a267e143ba3242f0649360c01b6200027f60201b60201c565b5f73ffffffffffffffffffffffffffffffffffffffff168173ffffffffffffffffffffffffffffffffffffffff16036200022457620001f267d2ba045fc73cf81b60c01b6200027f60201b60201c565b6040517fa665958500000000000000000000000000000000000000000000000000000000815260040160405180910390fd5b6200024067d61e2095268472a260c01b6200027f60201b60201c565b506200074e565b60065f6101000a81549073ffffffffffffffffffffffffffffffffffffffff02191690556200027c816200028260201b60201c565b50565b50565b5f60055f9054906101000a900473ffffffffffffffffffffffffffffffffffffffff1690508160055f6101000a81548173ffffffffffffffffffffffffffffffffffffffff021916908373ffffffffffffffffffffffffffffffffffffffff1602179055508173ffffffffffffffffffffffffffffffffffffffff168173ffffffffffffffffffffffffffffffffffffffff167f8be0079c531659141344cd1fd0a4f28419497f9722a3daafe3b4186f6b6457e060405160405180910390a35050565b5f80fd5b5f73ffffffffffffffffffffffffffffffffffffffff82169050919050565b5f620003748262000349565b9050919050565b620003868162000368565b811462000391575f80fd5b50565b5f81519050620003a4816200037b565b92915050565b5f60208284031215620003c257620003c162000345565b5b5f620003d18482850162000394565b91505092915050565b5f81519050919050565b7f4e487b71000000000000000000000000000000000000000000000000000000005f52604160045260245ffd5b7f4e487b71000000000000000000000000000000000000000000000000000000005f52602260045260245ffd5b5f60028204905060018216806200045657607f821691505b6020821081036200046c576200046b62000411565b5b50919050565b5f819050815f5260205f209050919050565b5f6020601f8301049050919050565b5f82821b905092915050565b5f60088302620004d07fffffffffffffffffffffffffffffffffffffffffffffffffffffffffffffffff8262000493565b620004dc868362000493565b95508019841693508086168417925050509392505050565b5f819050919050565b5f819050919050565b5f62000526620005206200051a84620004f4565b620004fd565b620004f4565b9050919050565b5f819050919050565b620005418362000506565b6200055962000550826200052d565b8484546200049f565b825550505050565b5f90565b6200056f62000561565b6200057c81848462000536565b505050565b5b81811015620005a357620005975f8262000565565b60018101905062000582565b5050565b601f821115620005f257620005bc8162000472565b620005c78462000484565b81016020851015620005d7578190505b620005ef620005e68562000484565b83018262000581565b50505b505050565b5f82821c905092915050565b5f620006145f1984600802620005f7565b1980831691505092915050565b5f6200062e838362000603565b9150826002028217905092915050565b6200064982620003da565b67ffffffffffffffff811115620006655762000664620003e4565b5b6200067182546200043e565b6200067e828285620005a7565b5f60209050601f831160018114620006b4575f84156200069f578287015190505b620006ab858262000621565b8655506200071a565b601f198416620006c48662000472565b5f5b82811015620006ed57848901518255600182019150602085019450602081019050620006c6565b868310156200070d578489015162000709601f89168262000603565b8355505b6001600288020188555050505b505050505050565b6200072d8162000368565b82525050565b5f602082019050620007485f83018462000722565b92915050565b611578806200075c5f395ff3fe608060405234801561000f575f80fd5b5060043610610109575f3560e01c806379ba5097116100a0578063a9059cbb1161006f578063a9059cbb1461027f578063dd62ed3e146102af578063e30c3978146102df578063ee99205c146102fd578063f2fde38b1461031b57610109565b806379ba50971461021d5780638da5cb5b1461022757806395d89b41146102455780639dd373b91461026357610109565b8063313ce567116100dc578063313ce567146101a957806340c10f19146101c757806370a08231146101e3578063715018a61461021357610109565b806306fdde031461010d578063095ea7b31461012b57806318160ddd1461015b57806323b872dd14610179575b5f80fd5b610115610337565b60405161012291906111f1565b60405180910390f35b610145600480360381019061014091906112a2565b6103c7565b60405161015291906112fa565b60405180910390f35b6101636103e9565b6040516101709190611322565b60405180910390f35b610193600480360381019061018e919061133b565b6103f2565b6040516101a091906112fa565b60405180910390f35b6101b1610420565b6040516101be91906113a6565b60405180910390f35b6101e160048036038101906101dc91906112a2565b610428565b005b6101fd60048036038101906101f891906113bf565b61055c565b60405161020a9190611322565b60405180910390f35b61021b6105a1565b005b6102256105b4565b005b61022f610642565b60405161023c91906113f9565b60405180910390f35b61024d61066a565b60405161025a91906111f1565b60405180910390f35b61027d600480360381019061027891906113bf565b6106fa565b005b610299600480360381019061029491906112a2565b61084a565b6040516102a691906112fa565b60405180910390f35b6102c960048036038101906102c49190611412565b61086c565b6040516102d69190611322565b60405180910390f35b6102e76108ee565b6040516102f491906113f9565b60405180910390f35b610305610916565b60405161031291906113f9565b60405180910390f35b610335600480360381019061033091906113bf565b61093b565b005b6060600380546103469061147d565b80601f01602080910402602001604051908101604052809291908181526020018280546103729061147d565b80156103bd5780601f10610394576101008083540402835291602001916103bd565b820191905f5260205f20905b8154815290600101906020018083116103a057829003601f168201915b5050505050905090565b5f806103d16109e7565b90506103de8185856109ee565b600191505092915050565b5f600254905090565b5f806103fc6109e7565b9050610409858285610a00565b610414858585610a93565b60019150509392505050565b5f6012905090565b61043c6728ce279d49cec57c60c01b610b83565b6104506728be3c6b918d490f60c01b610b83565b61046467fbf8e02519bdc4f260c01b610b83565b60075f9054906101000a900473ffffffffffffffffffffffffffffffffffffffff1673ffffffffffffffffffffffffffffffffffffffff163373ffffffffffffffffffffffffffffffffffffffff1614610512576104cc673d1e270132c3266460c01b610b83565b6104e0673e5ab9fecec3afca60c01b610b83565b6040517fb8b0ba0300000000000000000000000000000000000000000000000000000000815260040160405180910390fd5b6105266784593cf612ae29c960c01b610b83565b61053a6750fdca4f5356b80860c01b610b83565b61054e67066a62794dfa52f760c01b610b83565b6105588282610b86565b5050565b5f805f8373ffffffffffffffffffffffffffffffffffffffff1673ffffffffffffffffffffffffffffffffffffffff1681526020019081526020015f20549050919050565b6105a9610c05565b6105b25f610c8c565b565b5f6105bd6109e7565b90508073ffffffffffffffffffffffffffffffffffffffff166105de6108ee565b73ffffffffffffffffffffffffffffffffffffffff161461063657806040517f118cdaa700000000000000000000000000000000000000000000000000000000815260040161062d91906113f9565b60405180910390fd5b61063f81610c8c565b50565b5f60055f9054906101000a900473ffffffffffffffffffffffffffffffffffffffff16905090565b6060600480546106799061147d565b80601f01602080910402602001604051908101604052809291908181526020018280546106a59061147d565b80156106f05780601f106106c7576101008083540402835291602001916106f0565b820191905f5260205f20905b8154815290600101906020018083116106d357829003601f168201915b5050505050905090565b61070e6783b3c45330e2655260c01b610b83565b610716610c05565b61072a677ecfa05d9842a48860c01b610b83565b61073e67f656f7e81603025260c01b610b83565b610752671e893bbec5569e8f60c01b610b83565b61076667584d2b046290b4fd60c01b610b83565b5f73ffffffffffffffffffffffffffffffffffffffff168173ffffffffffffffffffffffffffffffffffffffff16036107df576107ad671baae1e6d6d7cced60c01b610b83565b6040517fa665958500000000000000000000000000000000000000000000000000000000815260040160405180910390fd5b6107f36728953e4f5d4de06260c01b610b83565b61080767e9fe521a4e70f13b60c01b610b83565b8060075f6101000a81548173ffffffffffffffffffffffffffffffffffffffff021916908373ffffffffffffffffffffffffffffffffffffffff16021790555050565b5f806108546109e7565b9050610861818585610a93565b600191505092915050565b5f60015f8473ffffffffffffffffffffffffffffffffffffffff1673ffffffffffffffffffffffffffffffffffffffff1681526020019081526020015f205f8373ffffffffffffffffffffffffffffffffffffffff1673ffffffffffffffffffffffffffffffffffffffff1681526020019081526020015f2054905092915050565b5f60065f9054906101000a900473ffffffffffffffffffffffffffffffffffffffff16905090565b60075f9054906101000a900473ffffffffffffffffffffffffffffffffffffffff1681565b610943610c05565b8060065f6101000a81548173ffffffffffffffffffffffffffffffffffffffff021916908373ffffffffffffffffffffffffffffffffffffffff1602179055508073ffffffffffffffffffffffffffffffffffffffff166109a2610642565b73ffffffffffffffffffffffffffffffffffffffff167f38d16b8cac22d99fc7c124b9cd0de2d3fa1faef420bfe791d8c362d765e2270060405160405180910390a350565b5f33905090565b6109fb8383836001610cbc565b505050565b5f610a0b848461086c565b90507fffffffffffffffffffffffffffffffffffffffffffffffffffffffffffffffff811015610a8d5781811015610a7e578281836040517ffb8f41b2000000000000000000000000000000000000000000000000000000008152600401610a75939291906114ad565b60405180910390fd5b610a8c84848484035f610cbc565b5b50505050565b5f73ffffffffffffffffffffffffffffffffffffffff168373ffffffffffffffffffffffffffffffffffffffff1603610b03575f6040517f96c6fd1e000000000000000000000000000000000000000000000000000000008152600401610afa91906113f9565b60405180910390fd5b5f73ffffffffffffffffffffffffffffffffffffffff168273ffffffffffffffffffffffffffffffffffffffff1603610b73575f6040517fec442f05000000000000000000000000000000000000000000000000000000008152600401610b6a91906113f9565b60405180910390fd5b610b7e838383610e8b565b505050565b50565b5f73ffffffffffffffffffffffffffffffffffffffff168273ffffffffffffffffffffffffffffffffffffffff1603610bf6575f6040517fec442f05000000000000000000000000000000000000000000000000000000008152600401610bed91906113f9565b60405180910390fd5b610c015f8383610e8b565b5050565b610c0d6109e7565b73ffffffffffffffffffffffffffffffffffffffff16610c2b610642565b73ffffffffffffffffffffffffffffffffffffffff1614610c8a57610c4e6109e7565b6040517f118cdaa7000000000000000000000000000000000000000000000000000000008152600401610c8191906113f9565b60405180910390fd5b565b60065f6101000a81549073ffffffffffffffffffffffffffffffffffffffff0219169055610cb9816110a4565b50565b5f73ffffffffffffffffffffffffffffffffffffffff168473ffffffffffffffffffffffffffffffffffffffff1603610d2c575f6040517fe602df05000000000000000000000000000000000000000000000000000000008152600401610d2391906113f9565b60405180910390fd5b5f73ffffffffffffffffffffffffffffffffffffffff168373ffffffffffffffffffffffffffffffffffffffff1603610d9c575f6040517f94280d62000000000000000000000000000000000000000000000000000000008152600401610d9391906113f9565b60405180910390fd5b8160015f8673ffffffffffffffffffffffffffffffffffffffff1673ffffffffffffffffffffffffffffffffffffffff1681526020019081526020015f205f8573ffffffffffffffffffffffffffffffffffffffff1673ffffffffffffffffffffffffffffffffffffffff1681526020019081526020015f20819055508015610e85578273ffffffffffffffffffffffffffffffffffffffff168473ffffffffffffffffffffffffffffffffffffffff167f8c5be1e5ebec7d5bd14f71427d1e84f3dd0314c0f7b2291e5b200ac8c7c3b92584604051610e7c9190611322565b60405180910390a35b50505050565b5f73ffffffffffffffffffffffffffffffffffffffff168373ffffffffffffffffffffffffffffffffffffffff1603610edb578060025f828254610ecf919061150f565b92505081905550610fa9565b5f805f8573ffffffffffffffffffffffffffffffffffffffff1673ffffffffffffffffffffffffffffffffffffffff1681526020019081526020015f2054905081811015610f64578381836040517fe450d38c000000000000000000000000000000000000000000000000000000008152600401610f5b939291906114ad565b60405180910390fd5b8181035f808673ffffffffffffffffffffffffffffffffffffffff1673ffffffffffffffffffffffffffffffffffffffff1681526020019081526020015f2081905550505b5f73ffffffffffffffffffffffffffffffffffffffff168273ffffffffffffffffffffffffffffffffffffffff1603610ff0578060025f828254039250508190555061103a565b805f808473ffffffffffffffffffffffffffffffffffffffff1673ffffffffffffffffffffffffffffffffffffffff1681526020019081526020015f205f82825401925050819055505b8173ffffffffffffffffffffffffffffffffffffffff168373ffffffffffffffffffffffffffffffffffffffff167fddf252ad1be2c89b69c2b068fc378daa952ba7f163c4a11628f55a4df523b3ef836040516110979190611322565b60405180910390a3505050565b5f60055f9054906101000a900473ffffffffffffffffffffffffffffffffffffffff1690508160055f6101000a81548173ffffffffffffffffffffffffffffffffffffffff021916908373ffffffffffffffffffffffffffffffffffffffff1602179055508173ffffffffffffffffffffffffffffffffffffffff168173ffffffffffffffffffffffffffffffffffffffff167f8be0079c531659141344cd1fd0a4f28419497f9722a3daafe3b4186f6b6457e060405160405180910390a35050565b5f81519050919050565b5f82825260208201905092915050565b5f5b8381101561119e578082015181840152602081019050611183565b5f8484015250505050565b5f601f19601f8301169050919050565b5f6111c382611167565b6111cd8185611171565b93506111dd818560208601611181565b6111e6816111a9565b840191505092915050565b5f6020820190508181035f83015261120981846111b9565b905092915050565b5f80fd5b5f73ffffffffffffffffffffffffffffffffffffffff82169050919050565b5f61123e82611215565b9050919050565b61124e81611234565b8114611258575f80fd5b50565b5f8135905061126981611245565b92915050565b5f819050919050565b6112818161126f565b811461128b575f80fd5b50565b5f8135905061129c81611278565b92915050565b5f80604083850312156112b8576112b7611211565b5b5f6112c58582860161125b565b92505060206112d68582860161128e565b9150509250929050565b5f8115159050919050565b6112f4816112e0565b82525050565b5f60208201905061130d5f8301846112eb565b92915050565b61131c8161126f565b82525050565b5f6020820190506113355f830184611313565b92915050565b5f805f6060848603121561135257611351611211565b5b5f61135f8682870161125b565b93505060206113708682870161125b565b92505060406113818682870161128e565b9150509250925092565b5f60ff82169050919050565b6113a08161138b565b82525050565b5f6020820190506113b95f830184611397565b92915050565b5f602082840312156113d4576113d3611211565b5b5f6113e18482850161125b565b91505092915050565b6113f381611234565b82525050565b5f60208201905061140c5f8301846113ea565b92915050565b5f806040838503121561142857611427611211565b5b5f6114358582860161125b565b92505060206114468582860161125b565b9150509250929050565b7f4e487b71000000000000000000000000000000000000000000000000000000005f52602260045260245ffd5b5f600282049050600182168061149457607f821691505b6020821081036114a7576114a6611450565b5b50919050565b5f6060820190506114c05f8301866113ea565b6114cd6020830185611313565b6114da6040830184611313565b949350505050565b7f4e487b71000000000000000000000000000000000000000000000000000000005f52601160045260245ffd5b5f6115198261126f565b91506115248361126f565b925082820190508082111561153c5761153b6114e2565b5b9291505056fea2646970667358221220e2f31cae4e8baee0fc5bf03361af79cd05495cbc9ddf0c5237f3aea7fecbad6064736f6c63430008180033",
  "linkReferences": {},
  "deployedLinkReferences": {}
}